{
	"contracts/FundMe/contracts/FundeMe.sol": {
		"FundMe": {
			"abi": [
				{
					"inputs": [],
					"stateMutability": "nonpayable",
					"type": "constructor"
				},
				{
					"inputs": [],
					"name": "notOwner",
					"type": "error"
				},
				{
					"stateMutability": "payable",
					"type": "fallback"
				},
				{
					"inputs": [],
					"name": "MINIMUM_USD_TO_SEND",
					"outputs": [
						{
							"internalType": "uint256",
							"name": "",
							"type": "uint256"
						}
					],
					"stateMutability": "view",
					"type": "function"
				},
				{
					"inputs": [],
					"name": "fund",
					"outputs": [],
					"stateMutability": "payable",
					"type": "function"
				},
				{
					"inputs": [
						{
							"internalType": "uint256",
							"name": "",
							"type": "uint256"
						}
					],
					"name": "funders",
					"outputs": [
						{
							"internalType": "address",
							"name": "",
							"type": "address"
						}
					],
					"stateMutability": "view",
					"type": "function"
				},
				{
					"inputs": [
						{
							"internalType": "address",
							"name": "",
							"type": "address"
						}
					],
					"name": "fundersFundings",
					"outputs": [
						{
							"internalType": "uint256",
							"name": "",
							"type": "uint256"
						}
					],
					"stateMutability": "view",
					"type": "function"
				},
				{
					"inputs": [],
					"name": "getEthAmountUsd",
					"outputs": [
						{
							"internalType": "uint256",
							"name": "",
							"type": "uint256"
						}
					],
					"stateMutability": "view",
					"type": "function"
				},
				{
					"inputs": [
						{
							"internalType": "address",
							"name": "_funder",
							"type": "address"
						}
					],
					"name": "getFundingDetails",
					"outputs": [
						{
							"internalType": "uint256",
							"name": "",
							"type": "uint256"
						}
					],
					"stateMutability": "view",
					"type": "function"
				},
				{
					"inputs": [],
					"name": "getPrice",
					"outputs": [
						{
							"internalType": "uint256",
							"name": "",
							"type": "uint256"
						}
					],
					"stateMutability": "view",
					"type": "function"
				},
				{
					"inputs": [],
					"name": "i_owner",
					"outputs": [
						{
							"internalType": "address",
							"name": "",
							"type": "address"
						}
					],
					"stateMutability": "view",
					"type": "function"
				},
				{
					"inputs": [],
					"name": "withdraw",
					"outputs": [],
					"stateMutability": "nonpayable",
					"type": "function"
				},
				{
					"stateMutability": "payable",
					"type": "receive"
				}
			],
			"devdoc": {
				"kind": "dev",
				"methods": {},
				"version": 1
			},
			"evm": {
				"assembly": "    /* \"contracts/FundMe/contracts/FundeMe.sol\":316:2958  contract FundMe {... */\n  mstore(0x40, 0xa0)\n    /* \"contracts/FundMe/contracts/FundeMe.sol\":684:736  constructor () {... */\n  callvalue\n  dup1\n  iszero\n  tag_1\n  jumpi\n  0x00\n  dup1\n  revert\ntag_1:\n  pop\n    /* \"contracts/FundMe/contracts/FundeMe.sol\":719:729  msg.sender */\n  caller\n    /* \"contracts/FundMe/contracts/FundeMe.sol\":709:729  i_owner = msg.sender */\n  0xffffffffffffffffffffffffffffffffffffffff\n  and\n  0x80\n  dup2\n  0xffffffffffffffffffffffffffffffffffffffff\n  and\n  dup2\n  mstore\n  pop\n  pop\n    /* \"contracts/FundMe/contracts/FundeMe.sol\":316:2958  contract FundMe {... */\n  mload(0x80)\n  codecopy(0x00, dataOffset(sub_0), dataSize(sub_0))\n  0x00\n  assignImmutable(\"0x789bcdf275fa270780a52ae3b79bb1ce0fda7e0aaad87b57b74bb99ac290714a\")\n  return(0x00, dataSize(sub_0))\nstop\n\nsub_0: assembly {\n        /* \"contracts/FundMe/contracts/FundeMe.sol\":316:2958  contract FundMe {... */\n      mstore(0x40, 0x80)\n      jumpi(tag_1, lt(calldatasize, 0x04))\n      shr(0xe0, calldataload(0x00))\n      dup1\n      0xb60d4288\n      gt\n      tag_12\n      jumpi\n      dup1\n      0xb60d4288\n      eq\n      tag_7\n      jumpi\n      dup1\n      0xc9b90f2c\n      eq\n      tag_8\n      jumpi\n      dup1\n      0xdba6335f\n      eq\n      tag_9\n      jumpi\n      dup1\n      0xdc0d3dff\n      eq\n      tag_10\n      jumpi\n      dup1\n      0xff126197\n      eq\n      tag_11\n      jumpi\n      jump(tag_2)\n    tag_12:\n      dup1\n      0x3ccfd60b\n      eq\n      tag_3\n      jumpi\n      dup1\n      0x4452d405\n      eq\n      tag_4\n      jumpi\n      dup1\n      0x98d5fdca\n      eq\n      tag_5\n      jumpi\n      dup1\n      0xac47a8b7\n      eq\n      tag_6\n      jumpi\n      jump(tag_2)\n    tag_1:\n      jumpi(tag_2, calldatasize)\n        /* \"contracts/FundMe/contracts/FundeMe.sol\":779:785  fund() */\n      tag_15\n        /* \"contracts/FundMe/contracts/FundeMe.sol\":779:783  fund */\n      tag_16\n        /* \"contracts/FundMe/contracts/FundeMe.sol\":779:785  fund() */\n      jump\t// in\n    tag_15:\n        /* \"contracts/FundMe/contracts/FundeMe.sol\":316:2958  contract FundMe {... */\n      stop\n    tag_2:\n        /* \"contracts/FundMe/contracts/FundeMe.sol\":2941:2947  fund() */\n      tag_19\n        /* \"contracts/FundMe/contracts/FundeMe.sol\":2941:2945  fund */\n      tag_16\n        /* \"contracts/FundMe/contracts/FundeMe.sol\":2941:2947  fund() */\n      jump\t// in\n    tag_19:\n        /* \"contracts/FundMe/contracts/FundeMe.sol\":316:2958  contract FundMe {... */\n      stop\n        /* \"contracts/FundMe/contracts/FundeMe.sol\":1617:2614  function withdraw() public onlyOwner {... */\n    tag_3:\n      callvalue\n      dup1\n      iszero\n      tag_20\n      jumpi\n      0x00\n      dup1\n      revert\n    tag_20:\n      pop\n      tag_21\n      tag_22\n      jump\t// in\n    tag_21:\n      stop\n        /* \"contracts/FundMe/contracts/FundeMe.sol\":627:677  mapping(address => uint256) public fundersFundings */\n    tag_4:\n      callvalue\n      dup1\n      iszero\n      tag_23\n      jumpi\n      0x00\n      dup1\n      revert\n    tag_23:\n      pop\n      tag_24\n      0x04\n      dup1\n      calldatasize\n      sub\n      dup2\n      add\n      swap1\n      tag_25\n      swap2\n      swap1\n      tag_26\n      jump\t// in\n    tag_25:\n      tag_27\n      jump\t// in\n    tag_24:\n      mload(0x40)\n      tag_28\n      swap2\n      swap1\n      tag_29\n      jump\t// in\n    tag_28:\n      mload(0x40)\n      dup1\n      swap2\n      sub\n      swap1\n      return\n        /* \"contracts/FundMe/contracts/FundeMe.sol\":2620:2727  function getPrice() public view returns (uint256) {... */\n    tag_5:\n      callvalue\n      dup1\n      iszero\n      tag_30\n      jumpi\n      0x00\n      dup1\n      revert\n    tag_30:\n      pop\n      tag_31\n      tag_32\n      jump\t// in\n    tag_31:\n      mload(0x40)\n      tag_33\n      swap2\n      swap1\n      tag_29\n      jump\t// in\n    tag_33:\n      mload(0x40)\n      dup1\n      swap2\n      sub\n      swap1\n      return\n        /* \"contracts/FundMe/contracts/FundeMe.sol\":480:531  uint256 public constant MINIMUM_USD_TO_SEND = 10e18 */\n    tag_6:\n      callvalue\n      dup1\n      iszero\n      tag_34\n      jumpi\n      0x00\n      dup1\n      revert\n    tag_34:\n      pop\n      tag_35\n      tag_36\n      jump\t// in\n    tag_35:\n      mload(0x40)\n      tag_37\n      swap2\n      swap1\n      tag_29\n      jump\t// in\n    tag_37:\n      mload(0x40)\n      dup1\n      swap2\n      sub\n      swap1\n      return\n        /* \"contracts/FundMe/contracts/FundeMe.sol\":800:1204  function fund() public payable {... */\n    tag_7:\n      tag_38\n      tag_16\n      jump\t// in\n    tag_38:\n      stop\n        /* \"contracts/FundMe/contracts/FundeMe.sol\":2733:2898  function getEthAmountUsd() public view returns(uint256){... */\n    tag_8:\n      callvalue\n      dup1\n      iszero\n      tag_39\n      jumpi\n      0x00\n      dup1\n      revert\n    tag_39:\n      pop\n      tag_40\n      tag_41\n      jump\t// in\n    tag_40:\n      mload(0x40)\n      tag_42\n      swap2\n      swap1\n      tag_29\n      jump\t// in\n    tag_42:\n      mload(0x40)\n      dup1\n      swap2\n      sub\n      swap1\n      return\n        /* \"contracts/FundMe/contracts/FundeMe.sol\":537:569  address public immutable i_owner */\n    tag_9:\n      callvalue\n      dup1\n      iszero\n      tag_43\n      jumpi\n      0x00\n      dup1\n      revert\n    tag_43:\n      pop\n      tag_44\n      tag_45\n      jump\t// in\n    tag_44:\n      mload(0x40)\n      tag_46\n      swap2\n      swap1\n      tag_47\n      jump\t// in\n    tag_46:\n      mload(0x40)\n      dup1\n      swap2\n      sub\n      swap1\n      return\n        /* \"contracts/FundMe/contracts/FundeMe.sol\":597:621  address[] public funders */\n    tag_10:\n      callvalue\n      dup1\n      iszero\n      tag_48\n      jumpi\n      0x00\n      dup1\n      revert\n    tag_48:\n      pop\n      tag_49\n      0x04\n      dup1\n      calldatasize\n      sub\n      dup2\n      add\n      swap1\n      tag_50\n      swap2\n      swap1\n      tag_51\n      jump\t// in\n    tag_50:\n      tag_52\n      jump\t// in\n    tag_49:\n      mload(0x40)\n      tag_53\n      swap2\n      swap1\n      tag_47\n      jump\t// in\n    tag_53:\n      mload(0x40)\n      dup1\n      swap2\n      sub\n      swap1\n      return\n        /* \"contracts/FundMe/contracts/FundeMe.sol\":1211:1333  function getFundingDetails(address _funder) public view returns (uint256) {... */\n    tag_11:\n      callvalue\n      dup1\n      iszero\n      tag_54\n      jumpi\n      0x00\n      dup1\n      revert\n    tag_54:\n      pop\n      tag_55\n      0x04\n      dup1\n      calldatasize\n      sub\n      dup2\n      add\n      swap1\n      tag_56\n      swap2\n      swap1\n      tag_26\n      jump\t// in\n    tag_56:\n      tag_57\n      jump\t// in\n    tag_55:\n      mload(0x40)\n      tag_58\n      swap2\n      swap1\n      tag_29\n      jump\t// in\n    tag_58:\n      mload(0x40)\n      dup1\n      swap2\n      sub\n      swap1\n      return\n        /* \"contracts/FundMe/contracts/FundeMe.sol\":800:1204  function fund() public payable {... */\n    tag_16:\n        /* \"contracts/FundMe/contracts/FundeMe.sol\":526:531  10e18 */\n      0x8ac7230489e80000\n        /* \"contracts/FundMe/contracts/FundeMe.sol\":850:879  msg.value.getConversionRate() */\n      tag_60\n        /* \"contracts/FundMe/contracts/FundeMe.sol\":850:859  msg.value */\n      callvalue\n        /* \"contracts/FundMe/contracts/FundeMe.sol\":850:877  msg.value.getConversionRate */\n      tag_61\n        /* \"contracts/FundMe/contracts/FundeMe.sol\":850:879  msg.value.getConversionRate() */\n      jump\t// in\n    tag_60:\n        /* \"contracts/FundMe/contracts/FundeMe.sol\":850:902  msg.value.getConversionRate() >= MINIMUM_USD_TO_SEND */\n      lt\n      iszero\n        /* \"contracts/FundMe/contracts/FundeMe.sol\":841:956  require( msg.value.getConversionRate() >= MINIMUM_USD_TO_SEND , \"You need to send at least 10 USD worth of Ether!\") */\n      tag_62\n      jumpi\n      mload(0x40)\n      0x08c379a000000000000000000000000000000000000000000000000000000000\n      dup2\n      mstore\n      0x04\n      add\n      tag_63\n      swap1\n      tag_64\n      jump\t// in\n    tag_63:\n      mload(0x40)\n      dup1\n      swap2\n      sub\n      swap1\n      revert\n    tag_62:\n        /* \"contracts/FundMe/contracts/FundeMe.sol\":1123:1130  funders */\n      0x01\n        /* \"contracts/FundMe/contracts/FundeMe.sol\":1136:1146  msg.sender */\n      caller\n        /* \"contracts/FundMe/contracts/FundeMe.sol\":1123:1147  funders.push(msg.sender) */\n      swap1\n      dup1\n      0x01\n      dup2\n      sload\n      add\n      dup1\n      dup3\n      sstore\n      dup1\n      swap2\n      pop\n      pop\n      0x01\n      swap1\n      sub\n      swap1\n      0x00\n      mstore\n      keccak256(0x00, 0x20)\n      add\n      0x00\n      swap1\n      swap2\n      swap1\n      swap2\n      swap1\n      swap2\n      0x0100\n      exp\n      dup2\n      sload\n      dup2\n      0xffffffffffffffffffffffffffffffffffffffff\n      mul\n      not\n      and\n      swap1\n      dup4\n      0xffffffffffffffffffffffffffffffffffffffff\n      and\n      mul\n      or\n      swap1\n      sstore\n      pop\n        /* \"contracts/FundMe/contracts/FundeMe.sol\":1188:1197  msg.value */\n      callvalue\n        /* \"contracts/FundMe/contracts/FundeMe.sol\":1157:1172  fundersFundings */\n      0x02\n        /* \"contracts/FundMe/contracts/FundeMe.sol\":1157:1184  fundersFundings[msg.sender] */\n      0x00\n        /* \"contracts/FundMe/contracts/FundeMe.sol\":1173:1183  msg.sender */\n      caller\n        /* \"contracts/FundMe/contracts/FundeMe.sol\":1157:1184  fundersFundings[msg.sender] */\n      0xffffffffffffffffffffffffffffffffffffffff\n      and\n      0xffffffffffffffffffffffffffffffffffffffff\n      and\n      dup2\n      mstore\n      0x20\n      add\n      swap1\n      dup2\n      mstore\n      0x20\n      add\n      0x00\n      keccak256\n      0x00\n        /* \"contracts/FundMe/contracts/FundeMe.sol\":1157:1197  fundersFundings[msg.sender] += msg.value */\n      dup3\n      dup3\n      sload\n      tag_66\n      swap2\n      swap1\n      tag_67\n      jump\t// in\n    tag_66:\n      swap3\n      pop\n      pop\n      dup2\n      swap1\n      sstore\n      pop\n        /* \"contracts/FundMe/contracts/FundeMe.sol\":800:1204  function fund() public payable {... */\n      jump\t// out\n        /* \"contracts/FundMe/contracts/FundeMe.sol\":1617:2614  function withdraw() public onlyOwner {... */\n    tag_22:\n        /* \"contracts/FundMe/contracts/FundeMe.sol\":1542:1549  i_owner */\n      immutable(\"0x789bcdf275fa270780a52ae3b79bb1ce0fda7e0aaad87b57b74bb99ac290714a\")\n        /* \"contracts/FundMe/contracts/FundeMe.sol\":1528:1549  msg.sender != i_owner */\n      0xffffffffffffffffffffffffffffffffffffffff\n      and\n        /* \"contracts/FundMe/contracts/FundeMe.sol\":1528:1538  msg.sender */\n      caller\n        /* \"contracts/FundMe/contracts/FundeMe.sol\":1528:1549  msg.sender != i_owner */\n      0xffffffffffffffffffffffffffffffffffffffff\n      and\n      eq\n        /* \"contracts/FundMe/contracts/FundeMe.sol\":1524:1572  if (msg.sender != i_owner) { revert notOwner();} */\n      tag_69\n      jumpi\n        /* \"contracts/FundMe/contracts/FundeMe.sol\":1560:1570  notOwner() */\n      mload(0x40)\n      0x251c9d6300000000000000000000000000000000000000000000000000000000\n      dup2\n      mstore\n      0x04\n      add\n      mload(0x40)\n      dup1\n      swap2\n      sub\n      swap1\n      revert\n        /* \"contracts/FundMe/contracts/FundeMe.sol\":1524:1572  if (msg.sender != i_owner) { revert notOwner();} */\n    tag_69:\n        /* \"contracts/FundMe/contracts/FundeMe.sol\":1751:1771  uint256 _funderIndex */\n      0x00\n        /* \"contracts/FundMe/contracts/FundeMe.sol\":1747:2015  for(uint256 _funderIndex = 0 ; _funderIndex < funders.length ; _funderIndex ++ ){... */\n    tag_71:\n        /* \"contracts/FundMe/contracts/FundeMe.sol\":1793:1800  funders */\n      0x01\n        /* \"contracts/FundMe/contracts/FundeMe.sol\":1793:1807  funders.length */\n      dup1\n      sload\n      swap1\n      pop\n        /* \"contracts/FundMe/contracts/FundeMe.sol\":1778:1790  _funderIndex */\n      dup2\n        /* \"contracts/FundMe/contracts/FundeMe.sol\":1778:1807  _funderIndex < funders.length */\n      lt\n        /* \"contracts/FundMe/contracts/FundeMe.sol\":1747:2015  for(uint256 _funderIndex = 0 ; _funderIndex < funders.length ; _funderIndex ++ ){... */\n      iszero\n      tag_72\n      jumpi\n        /* \"contracts/FundMe/contracts/FundeMe.sol\":1923:1938  address _funder */\n      0x00\n        /* \"contracts/FundMe/contracts/FundeMe.sol\":1941:1948  funders */\n      0x01\n        /* \"contracts/FundMe/contracts/FundeMe.sol\":1949:1961  _funderIndex */\n      dup3\n        /* \"contracts/FundMe/contracts/FundeMe.sol\":1941:1962  funders[_funderIndex] */\n      dup2\n      sload\n      dup2\n      lt\n      tag_74\n      jumpi\n      tag_75\n      tag_76\n      jump\t// in\n    tag_75:\n    tag_74:\n      swap1\n      0x00\n      mstore\n      keccak256(0x00, 0x20)\n      add\n      0x00\n      swap1\n      sload\n      swap1\n      0x0100\n      exp\n      swap1\n      div\n      0xffffffffffffffffffffffffffffffffffffffff\n      and\n        /* \"contracts/FundMe/contracts/FundeMe.sol\":1923:1962  address _funder = funders[_funderIndex] */\n      swap1\n      pop\n        /* \"contracts/FundMe/contracts/FundeMe.sol\":2003:2004  0 */\n      0x00\n        /* \"contracts/FundMe/contracts/FundeMe.sol\":1976:1991  fundersFundings */\n      0x02\n        /* \"contracts/FundMe/contracts/FundeMe.sol\":1976:2000  fundersFundings[_funder] */\n      0x00\n        /* \"contracts/FundMe/contracts/FundeMe.sol\":1992:1999  _funder */\n      dup4\n        /* \"contracts/FundMe/contracts/FundeMe.sol\":1976:2000  fundersFundings[_funder] */\n      0xffffffffffffffffffffffffffffffffffffffff\n      and\n      0xffffffffffffffffffffffffffffffffffffffff\n      and\n      dup2\n      mstore\n      0x20\n      add\n      swap1\n      dup2\n      mstore\n      0x20\n      add\n      0x00\n      keccak256\n        /* \"contracts/FundMe/contracts/FundeMe.sol\":1976:2004  fundersFundings[_funder] = 0 */\n      dup2\n      swap1\n      sstore\n      pop\n        /* \"contracts/FundMe/contracts/FundeMe.sol\":1827:2015  {... */\n      pop\n        /* \"contracts/FundMe/contracts/FundeMe.sol\":1810:1825  _funderIndex ++ */\n      dup1\n      dup1\n      0x01\n      add\n      swap2\n      pop\n      pop\n        /* \"contracts/FundMe/contracts/FundeMe.sol\":1747:2015  for(uint256 _funderIndex = 0 ; _funderIndex < funders.length ; _funderIndex ++ ){... */\n      jump(tag_71)\n    tag_72:\n      pop\n        /* \"contracts/FundMe/contracts/FundeMe.sol\":2049:2050  0 */\n      0x00\n        /* \"contracts/FundMe/contracts/FundeMe.sol\":2035:2051  new address[](0) */\n      0xffffffffffffffff\n      dup2\n      gt\n      iszero\n      tag_78\n      jumpi\n      tag_79\n      tag_80\n      jump\t// in\n    tag_79:\n    tag_78:\n      mload(0x40)\n      swap1\n      dup1\n      dup3\n      mstore\n      dup1\n      0x20\n      mul\n      0x20\n      add\n      dup3\n      add\n      0x40\n      mstore\n      dup1\n      iszero\n      tag_81\n      jumpi\n      dup2\n      0x20\n      add\n      0x20\n      dup3\n      mul\n      dup1\n      calldatasize\n      dup4\n      calldatacopy\n      dup1\n      dup3\n      add\n      swap2\n      pop\n      pop\n      swap1\n      pop\n    tag_81:\n      pop\n        /* \"contracts/FundMe/contracts/FundeMe.sol\":2025:2032  funders */\n      0x01\n        /* \"contracts/FundMe/contracts/FundeMe.sol\":2025:2051  funders = new address[](0) */\n      swap1\n      dup1\n      mload\n      swap1\n      0x20\n      add\n      swap1\n      tag_82\n      swap3\n      swap2\n      swap1\n      tag_83\n      jump\t// in\n    tag_82:\n      pop\n        /* \"contracts/FundMe/contracts/FundeMe.sol\":2482:2498  bool callSuccess */\n      0x00\n        /* \"contracts/FundMe/contracts/FundeMe.sol\":2511:2521  msg.sender */\n      caller\n        /* \"contracts/FundMe/contracts/FundeMe.sol\":2503:2527  payable(msg.sender).call */\n      0xffffffffffffffffffffffffffffffffffffffff\n      and\n        /* \"contracts/FundMe/contracts/FundeMe.sol\":2535:2556  address(this).balance */\n      selfbalance\n        /* \"contracts/FundMe/contracts/FundeMe.sol\":2503:2561  payable(msg.sender).call{value: address(this).balance}(\"\") */\n      mload(0x40)\n      tag_84\n      swap1\n      tag_85\n      jump\t// in\n    tag_84:\n      0x00\n      mload(0x40)\n      dup1\n      dup4\n      sub\n      dup2\n      dup6\n      dup8\n      gas\n      call\n      swap3\n      pop\n      pop\n      pop\n      returndatasize\n      dup1\n      0x00\n      dup2\n      eq\n      tag_88\n      jumpi\n      mload(0x40)\n      swap2\n      pop\n      and(add(returndatasize, 0x3f), not(0x1f))\n      dup3\n      add\n      0x40\n      mstore\n      returndatasize\n      dup3\n      mstore\n      returndatasize\n      0x00\n      0x20\n      dup5\n      add\n      returndatacopy\n      jump(tag_87)\n    tag_88:\n      0x60\n      swap2\n      pop\n    tag_87:\n      pop\n        /* \"contracts/FundMe/contracts/FundeMe.sol\":2481:2561  (bool callSuccess,) = payable(msg.sender).call{value: address(this).balance}(\"\") */\n      pop\n      swap1\n      pop\n        /* \"contracts/FundMe/contracts/FundeMe.sol\":2579:2590  callSuccess */\n      dup1\n        /* \"contracts/FundMe/contracts/FundeMe.sol\":2571:2606  require(callSuccess, \"Call failed\") */\n      tag_89\n      jumpi\n      mload(0x40)\n      0x08c379a000000000000000000000000000000000000000000000000000000000\n      dup2\n      mstore\n      0x04\n      add\n      tag_90\n      swap1\n      tag_91\n      jump\t// in\n    tag_90:\n      mload(0x40)\n      dup1\n      swap2\n      sub\n      swap1\n      revert\n    tag_89:\n        /* \"contracts/FundMe/contracts/FundeMe.sol\":1654:2614  {... */\n      pop\n        /* \"contracts/FundMe/contracts/FundeMe.sol\":1617:2614  function withdraw() public onlyOwner {... */\n      jump\t// out\n        /* \"contracts/FundMe/contracts/FundeMe.sol\":627:677  mapping(address => uint256) public fundersFundings */\n    tag_27:\n      mstore(0x20, 0x02)\n      dup1\n      0x00\n      mstore\n      keccak256(0x00, 0x40)\n      0x00\n      swap2\n      pop\n      swap1\n      pop\n      sload\n      dup2\n      jump\t// out\n        /* \"contracts/FundMe/contracts/FundeMe.sol\":2620:2727  function getPrice() public view returns (uint256) {... */\n    tag_32:\n        /* \"contracts/FundMe/contracts/FundeMe.sol\":2661:2668  uint256 */\n      0x00\n        /* \"contracts/FundMe/contracts/FundeMe.sol\":2687:2720  PriceConverter.conversion_price() */\n      tag_93\n        /* \"contracts/FundMe/contracts/FundeMe.sol\":2687:2718  PriceConverter.conversion_price */\n      tag_94\n        /* \"contracts/FundMe/contracts/FundeMe.sol\":2687:2720  PriceConverter.conversion_price() */\n      jump\t// in\n    tag_93:\n        /* \"contracts/FundMe/contracts/FundeMe.sol\":2680:2720  return PriceConverter.conversion_price() */\n      swap1\n      pop\n        /* \"contracts/FundMe/contracts/FundeMe.sol\":2620:2727  function getPrice() public view returns (uint256) {... */\n      swap1\n      jump\t// out\n        /* \"contracts/FundMe/contracts/FundeMe.sol\":480:531  uint256 public constant MINIMUM_USD_TO_SEND = 10e18 */\n    tag_36:\n        /* \"contracts/FundMe/contracts/FundeMe.sol\":526:531  10e18 */\n      0x8ac7230489e80000\n        /* \"contracts/FundMe/contracts/FundeMe.sol\":480:531  uint256 public constant MINIMUM_USD_TO_SEND = 10e18 */\n      dup2\n      jump\t// out\n        /* \"contracts/FundMe/contracts/FundeMe.sol\":2733:2898  function getEthAmountUsd() public view returns(uint256){... */\n    tag_41:\n        /* \"contracts/FundMe/contracts/FundeMe.sol\":2780:2787  uint256 */\n      0x00\n        /* \"contracts/FundMe/contracts/FundeMe.sol\":2798:2809  uint256 eth */\n      dup1\n        /* \"contracts/FundMe/contracts/FundeMe.sol\":2812:2813  1 */\n      0x01\n        /* \"contracts/FundMe/contracts/FundeMe.sol\":2798:2813  uint256 eth = 1 */\n      swap1\n      pop\n        /* \"contracts/FundMe/contracts/FundeMe.sol\":2830:2853  eth.getConversionRate() */\n      tag_96\n        /* \"contracts/FundMe/contracts/FundeMe.sol\":2830:2833  eth */\n      dup2\n        /* \"contracts/FundMe/contracts/FundeMe.sol\":2830:2851  eth.getConversionRate */\n      tag_61\n        /* \"contracts/FundMe/contracts/FundeMe.sol\":2830:2853  eth.getConversionRate() */\n      jump\t// in\n    tag_96:\n        /* \"contracts/FundMe/contracts/FundeMe.sol\":2823:2853  return eth.getConversionRate() */\n      swap2\n      pop\n      pop\n        /* \"contracts/FundMe/contracts/FundeMe.sol\":2733:2898  function getEthAmountUsd() public view returns(uint256){... */\n      swap1\n      jump\t// out\n        /* \"contracts/FundMe/contracts/FundeMe.sol\":537:569  address public immutable i_owner */\n    tag_45:\n      immutable(\"0x789bcdf275fa270780a52ae3b79bb1ce0fda7e0aaad87b57b74bb99ac290714a\")\n      dup2\n      jump\t// out\n        /* \"contracts/FundMe/contracts/FundeMe.sol\":597:621  address[] public funders */\n    tag_52:\n      0x01\n      dup2\n      dup2\n      sload\n      dup2\n      lt\n      tag_97\n      jumpi\n      0x00\n      dup1\n      revert\n    tag_97:\n      swap1\n      0x00\n      mstore\n      keccak256(0x00, 0x20)\n      add\n      0x00\n      swap2\n      pop\n      sload\n      swap1\n      0x0100\n      exp\n      swap1\n      div\n      0xffffffffffffffffffffffffffffffffffffffff\n      and\n      dup2\n      jump\t// out\n        /* \"contracts/FundMe/contracts/FundeMe.sol\":1211:1333  function getFundingDetails(address _funder) public view returns (uint256) {... */\n    tag_57:\n        /* \"contracts/FundMe/contracts/FundeMe.sol\":1276:1283  uint256 */\n      0x00\n        /* \"contracts/FundMe/contracts/FundeMe.sol\":1302:1317  fundersFundings */\n      0x02\n        /* \"contracts/FundMe/contracts/FundeMe.sol\":1302:1326  fundersFundings[_funder] */\n      0x00\n        /* \"contracts/FundMe/contracts/FundeMe.sol\":1318:1325  _funder */\n      dup4\n        /* \"contracts/FundMe/contracts/FundeMe.sol\":1302:1326  fundersFundings[_funder] */\n      0xffffffffffffffffffffffffffffffffffffffff\n      and\n      0xffffffffffffffffffffffffffffffffffffffff\n      and\n      dup2\n      mstore\n      0x20\n      add\n      swap1\n      dup2\n      mstore\n      0x20\n      add\n      0x00\n      keccak256\n      sload\n        /* \"contracts/FundMe/contracts/FundeMe.sol\":1295:1326  return fundersFundings[_funder] */\n      swap1\n      pop\n        /* \"contracts/FundMe/contracts/FundeMe.sol\":1211:1333  function getFundingDetails(address _funder) public view returns (uint256) {... */\n      swap2\n      swap1\n      pop\n      jump\t// out\n        /* \"contracts/FundMe/contracts/PriceConverterLibrary.sol\":1304:1657  function getConversionRate(uint256 ethAmount) internal view returns (uint256){... */\n    tag_61:\n        /* \"contracts/FundMe/contracts/PriceConverterLibrary.sol\":1373:1380  uint256 */\n      0x00\n        /* \"contracts/FundMe/contracts/PriceConverterLibrary.sol\":1391:1407  uint256 ethPrice */\n      dup1\n        /* \"contracts/FundMe/contracts/PriceConverterLibrary.sol\":1410:1428  conversion_price() */\n      tag_101\n        /* \"contracts/FundMe/contracts/PriceConverterLibrary.sol\":1410:1426  conversion_price */\n      tag_94\n        /* \"contracts/FundMe/contracts/PriceConverterLibrary.sol\":1410:1428  conversion_price() */\n      jump\t// in\n    tag_101:\n        /* \"contracts/FundMe/contracts/PriceConverterLibrary.sol\":1391:1428  uint256 ethPrice = conversion_price() */\n      swap1\n      pop\n        /* \"contracts/FundMe/contracts/PriceConverterLibrary.sol\":1488:1510  uint256 ethAmountInUsd */\n      0x00\n        /* \"contracts/FundMe/contracts/PriceConverterLibrary.sol\":1538:1542  1e18 */\n      0x0de0b6b3a7640000\n        /* \"contracts/FundMe/contracts/PriceConverterLibrary.sol\":1526:1534  ethPrice */\n      dup3\n        /* \"contracts/FundMe/contracts/PriceConverterLibrary.sol\":1514:1523  ethAmount */\n      dup6\n        /* \"contracts/FundMe/contracts/PriceConverterLibrary.sol\":1514:1534  ethAmount * ethPrice */\n      tag_102\n      swap2\n      swap1\n      tag_103\n      jump\t// in\n    tag_102:\n        /* \"contracts/FundMe/contracts/PriceConverterLibrary.sol\":1513:1542  (ethAmount * ethPrice) / 1e18 */\n      tag_104\n      swap2\n      swap1\n      tag_105\n      jump\t// in\n    tag_104:\n        /* \"contracts/FundMe/contracts/PriceConverterLibrary.sol\":1488:1542  uint256 ethAmountInUsd = (ethAmount * ethPrice) / 1e18 */\n      swap1\n      pop\n        /* \"contracts/FundMe/contracts/PriceConverterLibrary.sol\":1636:1650  ethAmountInUsd */\n      dup1\n        /* \"contracts/FundMe/contracts/PriceConverterLibrary.sol\":1629:1650  return ethAmountInUsd */\n      swap3\n      pop\n      pop\n      pop\n        /* \"contracts/FundMe/contracts/PriceConverterLibrary.sol\":1304:1657  function getConversionRate(uint256 ethAmount) internal view returns (uint256){... */\n      swap2\n      swap1\n      pop\n      jump\t// out\n        /* \"contracts/FundMe/contracts/PriceConverterLibrary.sol\":971:1298  function conversion_price() internal view returns (uint256){... */\n    tag_94:\n        /* \"contracts/FundMe/contracts/PriceConverterLibrary.sol\":1022:1029  uint256 */\n      0x00\n        /* \"contracts/FundMe/contracts/PriceConverterLibrary.sol\":1041:1050  int price */\n      dup1\n        /* \"contracts/FundMe/contracts/PriceConverterLibrary.sol\":1076:1118  0x1d142a62E2e98474093545D4A3A0f7DB9503B8BD */\n      0x1d142a62e2e98474093545d4a3a0f7db9503b8bd\n        /* \"contracts/FundMe/contracts/PriceConverterLibrary.sol\":1054:1135  AggregatorV3Interface(0x1d142a62E2e98474093545D4A3A0f7DB9503B8BD).latestRoundData */\n      0xffffffffffffffffffffffffffffffffffffffff\n      and\n      0xfeaf968c\n        /* \"contracts/FundMe/contracts/PriceConverterLibrary.sol\":1054:1137  AggregatorV3Interface(0x1d142a62E2e98474093545D4A3A0f7DB9503B8BD).latestRoundData() */\n      mload(0x40)\n      dup2\n      0xffffffff\n      and\n      0xe0\n      shl\n      dup2\n      mstore\n      0x04\n      add\n      0x20\n      mload(0x40)\n      dup1\n      dup4\n      sub\n      dup2\n      dup7\n      gas\n      staticcall\n      iszero\n      dup1\n      iszero\n      tag_108\n      jumpi\n      returndatasize\n      0x00\n      dup1\n      returndatacopy\n      revert(0x00, returndatasize)\n    tag_108:\n      pop\n      pop\n      pop\n      pop\n      mload(0x40)\n      returndatasize\n      not(0x1f)\n      0x1f\n      dup3\n      add\n      and\n      dup3\n      add\n      dup1\n      0x40\n      mstore\n      pop\n      dup2\n      add\n      swap1\n      tag_109\n      swap2\n      swap1\n      tag_110\n      jump\t// in\n    tag_109:\n        /* \"contracts/FundMe/contracts/PriceConverterLibrary.sol\":1040:1137  (int price) = AggregatorV3Interface(0x1d142a62E2e98474093545D4A3A0f7DB9503B8BD).latestRoundData() */\n      swap1\n      pop\n        /* \"contracts/FundMe/contracts/PriceConverterLibrary.sol\":1286:1290  1e10 */\n      0x02540be400\n        /* \"contracts/FundMe/contracts/PriceConverterLibrary.sol\":1278:1283  price */\n      dup2\n        /* \"contracts/FundMe/contracts/PriceConverterLibrary.sol\":1278:1290  price * 1e10 */\n      tag_111\n      swap2\n      swap1\n      tag_112\n      jump\t// in\n    tag_111:\n        /* \"contracts/FundMe/contracts/PriceConverterLibrary.sol\":1263:1291  return uint256(price * 1e10) */\n      swap2\n      pop\n      pop\n        /* \"contracts/FundMe/contracts/PriceConverterLibrary.sol\":971:1298  function conversion_price() internal view returns (uint256){... */\n      swap1\n      jump\t// out\n    tag_83:\n      dup3\n      dup1\n      sload\n      dup3\n      dup3\n      sstore\n      swap1\n      0x00\n      mstore\n      keccak256(0x00, 0x20)\n      swap1\n      dup2\n      add\n      swap3\n      dup3\n      iszero\n      tag_113\n      jumpi\n      swap2\n      0x20\n      mul\n      dup3\n      add\n    tag_114:\n      dup3\n      dup2\n      gt\n      iszero\n      tag_115\n      jumpi\n      dup3\n      mload\n      dup3\n      exp(0x0100, 0x00)\n      dup2\n      sload\n      dup2\n      0xffffffffffffffffffffffffffffffffffffffff\n      mul\n      not\n      and\n      swap1\n      dup4\n      0xffffffffffffffffffffffffffffffffffffffff\n      and\n      mul\n      or\n      swap1\n      sstore\n      pop\n      swap2\n      0x20\n      add\n      swap2\n      swap1\n      0x01\n      add\n      swap1\n      jump(tag_114)\n    tag_115:\n    tag_113:\n      pop\n      swap1\n      pop\n      tag_116\n      swap2\n      swap1\n      tag_117\n      jump\t// in\n    tag_116:\n      pop\n      swap1\n      jump\t// out\n    tag_117:\n    tag_118:\n      dup1\n      dup3\n      gt\n      iszero\n      tag_119\n      jumpi\n      0x00\n      dup2\n      0x00\n      swap1\n      sstore\n      pop\n      0x01\n      add\n      jump(tag_118)\n    tag_119:\n      pop\n      swap1\n      jump\t// out\n        /* \"#utility.yul\":88:205   */\n    tag_121:\n        /* \"#utility.yul\":197:198   */\n      0x00\n        /* \"#utility.yul\":194:195   */\n      dup1\n        /* \"#utility.yul\":187:199   */\n      revert\n        /* \"#utility.yul\":334:460   */\n    tag_123:\n        /* \"#utility.yul\":371:378   */\n      0x00\n        /* \"#utility.yul\":411:453   */\n      0xffffffffffffffffffffffffffffffffffffffff\n        /* \"#utility.yul\":404:409   */\n      dup3\n        /* \"#utility.yul\":400:454   */\n      and\n        /* \"#utility.yul\":389:454   */\n      swap1\n      pop\n        /* \"#utility.yul\":334:460   */\n      swap2\n      swap1\n      pop\n      jump\t// out\n        /* \"#utility.yul\":466:562   */\n    tag_124:\n        /* \"#utility.yul\":503:510   */\n      0x00\n        /* \"#utility.yul\":532:556   */\n      tag_151\n        /* \"#utility.yul\":550:555   */\n      dup3\n        /* \"#utility.yul\":532:556   */\n      tag_123\n      jump\t// in\n    tag_151:\n        /* \"#utility.yul\":521:556   */\n      swap1\n      pop\n        /* \"#utility.yul\":466:562   */\n      swap2\n      swap1\n      pop\n      jump\t// out\n        /* \"#utility.yul\":568:690   */\n    tag_125:\n        /* \"#utility.yul\":641:665   */\n      tag_153\n        /* \"#utility.yul\":659:664   */\n      dup2\n        /* \"#utility.yul\":641:665   */\n      tag_124\n      jump\t// in\n    tag_153:\n        /* \"#utility.yul\":634:639   */\n      dup2\n        /* \"#utility.yul\":631:666   */\n      eq\n        /* \"#utility.yul\":621:684   */\n      tag_154\n      jumpi\n        /* \"#utility.yul\":680:681   */\n      0x00\n        /* \"#utility.yul\":677:678   */\n      dup1\n        /* \"#utility.yul\":670:682   */\n      revert\n        /* \"#utility.yul\":621:684   */\n    tag_154:\n        /* \"#utility.yul\":568:690   */\n      pop\n      jump\t// out\n        /* \"#utility.yul\":696:835   */\n    tag_126:\n        /* \"#utility.yul\":742:747   */\n      0x00\n        /* \"#utility.yul\":780:786   */\n      dup2\n        /* \"#utility.yul\":767:787   */\n      calldataload\n        /* \"#utility.yul\":758:787   */\n      swap1\n      pop\n        /* \"#utility.yul\":796:829   */\n      tag_156\n        /* \"#utility.yul\":823:828   */\n      dup2\n        /* \"#utility.yul\":796:829   */\n      tag_125\n      jump\t// in\n    tag_156:\n        /* \"#utility.yul\":696:835   */\n      swap3\n      swap2\n      pop\n      pop\n      jump\t// out\n        /* \"#utility.yul\":841:1170   */\n    tag_26:\n        /* \"#utility.yul\":900:906   */\n      0x00\n        /* \"#utility.yul\":949:951   */\n      0x20\n        /* \"#utility.yul\":937:946   */\n      dup3\n        /* \"#utility.yul\":928:935   */\n      dup5\n        /* \"#utility.yul\":924:947   */\n      sub\n        /* \"#utility.yul\":920:952   */\n      slt\n        /* \"#utility.yul\":917:1036   */\n      iszero\n      tag_158\n      jumpi\n        /* \"#utility.yul\":955:1034   */\n      tag_159\n      tag_121\n      jump\t// in\n    tag_159:\n        /* \"#utility.yul\":917:1036   */\n    tag_158:\n        /* \"#utility.yul\":1075:1076   */\n      0x00\n        /* \"#utility.yul\":1100:1153   */\n      tag_160\n        /* \"#utility.yul\":1145:1152   */\n      dup5\n        /* \"#utility.yul\":1136:1142   */\n      dup3\n        /* \"#utility.yul\":1125:1134   */\n      dup6\n        /* \"#utility.yul\":1121:1143   */\n      add\n        /* \"#utility.yul\":1100:1153   */\n      tag_126\n      jump\t// in\n    tag_160:\n        /* \"#utility.yul\":1090:1153   */\n      swap2\n      pop\n        /* \"#utility.yul\":1046:1163   */\n      pop\n        /* \"#utility.yul\":841:1170   */\n      swap3\n      swap2\n      pop\n      pop\n      jump\t// out\n        /* \"#utility.yul\":1176:1253   */\n    tag_127:\n        /* \"#utility.yul\":1213:1220   */\n      0x00\n        /* \"#utility.yul\":1242:1247   */\n      dup2\n        /* \"#utility.yul\":1231:1247   */\n      swap1\n      pop\n        /* \"#utility.yul\":1176:1253   */\n      swap2\n      swap1\n      pop\n      jump\t// out\n        /* \"#utility.yul\":1259:1377   */\n    tag_128:\n        /* \"#utility.yul\":1346:1370   */\n      tag_163\n        /* \"#utility.yul\":1364:1369   */\n      dup2\n        /* \"#utility.yul\":1346:1370   */\n      tag_127\n      jump\t// in\n    tag_163:\n        /* \"#utility.yul\":1341:1344   */\n      dup3\n        /* \"#utility.yul\":1334:1371   */\n      mstore\n        /* \"#utility.yul\":1259:1377   */\n      pop\n      pop\n      jump\t// out\n        /* \"#utility.yul\":1383:1605   */\n    tag_29:\n        /* \"#utility.yul\":1476:1480   */\n      0x00\n        /* \"#utility.yul\":1514:1516   */\n      0x20\n        /* \"#utility.yul\":1503:1512   */\n      dup3\n        /* \"#utility.yul\":1499:1517   */\n      add\n        /* \"#utility.yul\":1491:1517   */\n      swap1\n      pop\n        /* \"#utility.yul\":1527:1598   */\n      tag_165\n        /* \"#utility.yul\":1595:1596   */\n      0x00\n        /* \"#utility.yul\":1584:1593   */\n      dup4\n        /* \"#utility.yul\":1580:1597   */\n      add\n        /* \"#utility.yul\":1571:1577   */\n      dup5\n        /* \"#utility.yul\":1527:1598   */\n      tag_128\n      jump\t// in\n    tag_165:\n        /* \"#utility.yul\":1383:1605   */\n      swap3\n      swap2\n      pop\n      pop\n      jump\t// out\n        /* \"#utility.yul\":1611:1729   */\n    tag_129:\n        /* \"#utility.yul\":1698:1722   */\n      tag_167\n        /* \"#utility.yul\":1716:1721   */\n      dup2\n        /* \"#utility.yul\":1698:1722   */\n      tag_124\n      jump\t// in\n    tag_167:\n        /* \"#utility.yul\":1693:1696   */\n      dup3\n        /* \"#utility.yul\":1686:1723   */\n      mstore\n        /* \"#utility.yul\":1611:1729   */\n      pop\n      pop\n      jump\t// out\n        /* \"#utility.yul\":1735:1957   */\n    tag_47:\n        /* \"#utility.yul\":1828:1832   */\n      0x00\n        /* \"#utility.yul\":1866:1868   */\n      0x20\n        /* \"#utility.yul\":1855:1864   */\n      dup3\n        /* \"#utility.yul\":1851:1869   */\n      add\n        /* \"#utility.yul\":1843:1869   */\n      swap1\n      pop\n        /* \"#utility.yul\":1879:1950   */\n      tag_169\n        /* \"#utility.yul\":1947:1948   */\n      0x00\n        /* \"#utility.yul\":1936:1945   */\n      dup4\n        /* \"#utility.yul\":1932:1949   */\n      add\n        /* \"#utility.yul\":1923:1929   */\n      dup5\n        /* \"#utility.yul\":1879:1950   */\n      tag_129\n      jump\t// in\n    tag_169:\n        /* \"#utility.yul\":1735:1957   */\n      swap3\n      swap2\n      pop\n      pop\n      jump\t// out\n        /* \"#utility.yul\":1963:2085   */\n    tag_130:\n        /* \"#utility.yul\":2036:2060   */\n      tag_171\n        /* \"#utility.yul\":2054:2059   */\n      dup2\n        /* \"#utility.yul\":2036:2060   */\n      tag_127\n      jump\t// in\n    tag_171:\n        /* \"#utility.yul\":2029:2034   */\n      dup2\n        /* \"#utility.yul\":2026:2061   */\n      eq\n        /* \"#utility.yul\":2016:2079   */\n      tag_172\n      jumpi\n        /* \"#utility.yul\":2075:2076   */\n      0x00\n        /* \"#utility.yul\":2072:2073   */\n      dup1\n        /* \"#utility.yul\":2065:2077   */\n      revert\n        /* \"#utility.yul\":2016:2079   */\n    tag_172:\n        /* \"#utility.yul\":1963:2085   */\n      pop\n      jump\t// out\n        /* \"#utility.yul\":2091:2230   */\n    tag_131:\n        /* \"#utility.yul\":2137:2142   */\n      0x00\n        /* \"#utility.yul\":2175:2181   */\n      dup2\n        /* \"#utility.yul\":2162:2182   */\n      calldataload\n        /* \"#utility.yul\":2153:2182   */\n      swap1\n      pop\n        /* \"#utility.yul\":2191:2224   */\n      tag_174\n        /* \"#utility.yul\":2218:2223   */\n      dup2\n        /* \"#utility.yul\":2191:2224   */\n      tag_130\n      jump\t// in\n    tag_174:\n        /* \"#utility.yul\":2091:2230   */\n      swap3\n      swap2\n      pop\n      pop\n      jump\t// out\n        /* \"#utility.yul\":2236:2565   */\n    tag_51:\n        /* \"#utility.yul\":2295:2301   */\n      0x00\n        /* \"#utility.yul\":2344:2346   */\n      0x20\n        /* \"#utility.yul\":2332:2341   */\n      dup3\n        /* \"#utility.yul\":2323:2330   */\n      dup5\n        /* \"#utility.yul\":2319:2342   */\n      sub\n        /* \"#utility.yul\":2315:2347   */\n      slt\n        /* \"#utility.yul\":2312:2431   */\n      iszero\n      tag_176\n      jumpi\n        /* \"#utility.yul\":2350:2429   */\n      tag_177\n      tag_121\n      jump\t// in\n    tag_177:\n        /* \"#utility.yul\":2312:2431   */\n    tag_176:\n        /* \"#utility.yul\":2470:2471   */\n      0x00\n        /* \"#utility.yul\":2495:2548   */\n      tag_178\n        /* \"#utility.yul\":2540:2547   */\n      dup5\n        /* \"#utility.yul\":2531:2537   */\n      dup3\n        /* \"#utility.yul\":2520:2529   */\n      dup6\n        /* \"#utility.yul\":2516:2538   */\n      add\n        /* \"#utility.yul\":2495:2548   */\n      tag_131\n      jump\t// in\n    tag_178:\n        /* \"#utility.yul\":2485:2548   */\n      swap2\n      pop\n        /* \"#utility.yul\":2441:2558   */\n      pop\n        /* \"#utility.yul\":2236:2565   */\n      swap3\n      swap2\n      pop\n      pop\n      jump\t// out\n        /* \"#utility.yul\":2571:2740   */\n    tag_132:\n        /* \"#utility.yul\":2655:2666   */\n      0x00\n        /* \"#utility.yul\":2689:2695   */\n      dup3\n        /* \"#utility.yul\":2684:2687   */\n      dup3\n        /* \"#utility.yul\":2677:2696   */\n      mstore\n        /* \"#utility.yul\":2729:2733   */\n      0x20\n        /* \"#utility.yul\":2724:2727   */\n      dup3\n        /* \"#utility.yul\":2720:2734   */\n      add\n        /* \"#utility.yul\":2705:2734   */\n      swap1\n      pop\n        /* \"#utility.yul\":2571:2740   */\n      swap3\n      swap2\n      pop\n      pop\n      jump\t// out\n        /* \"#utility.yul\":2746:2981   */\n    tag_133:\n        /* \"#utility.yul\":2886:2920   */\n      0x596f75206e65656420746f2073656e64206174206c6561737420313020555344\n        /* \"#utility.yul\":2882:2883   */\n      0x00\n        /* \"#utility.yul\":2874:2880   */\n      dup3\n        /* \"#utility.yul\":2870:2884   */\n      add\n        /* \"#utility.yul\":2863:2921   */\n      mstore\n        /* \"#utility.yul\":2955:2973   */\n      0x20776f727468206f662045746865722100000000000000000000000000000000\n        /* \"#utility.yul\":2950:2952   */\n      0x20\n        /* \"#utility.yul\":2942:2948   */\n      dup3\n        /* \"#utility.yul\":2938:2953   */\n      add\n        /* \"#utility.yul\":2931:2974   */\n      mstore\n        /* \"#utility.yul\":2746:2981   */\n      pop\n      jump\t// out\n        /* \"#utility.yul\":2987:3353   */\n    tag_134:\n        /* \"#utility.yul\":3129:3132   */\n      0x00\n        /* \"#utility.yul\":3150:3217   */\n      tag_182\n        /* \"#utility.yul\":3214:3216   */\n      0x30\n        /* \"#utility.yul\":3209:3212   */\n      dup4\n        /* \"#utility.yul\":3150:3217   */\n      tag_132\n      jump\t// in\n    tag_182:\n        /* \"#utility.yul\":3143:3217   */\n      swap2\n      pop\n        /* \"#utility.yul\":3226:3319   */\n      tag_183\n        /* \"#utility.yul\":3315:3318   */\n      dup3\n        /* \"#utility.yul\":3226:3319   */\n      tag_133\n      jump\t// in\n    tag_183:\n        /* \"#utility.yul\":3344:3346   */\n      0x40\n        /* \"#utility.yul\":3339:3342   */\n      dup3\n        /* \"#utility.yul\":3335:3347   */\n      add\n        /* \"#utility.yul\":3328:3347   */\n      swap1\n      pop\n        /* \"#utility.yul\":2987:3353   */\n      swap2\n      swap1\n      pop\n      jump\t// out\n        /* \"#utility.yul\":3359:3778   */\n    tag_64:\n        /* \"#utility.yul\":3525:3529   */\n      0x00\n        /* \"#utility.yul\":3563:3565   */\n      0x20\n        /* \"#utility.yul\":3552:3561   */\n      dup3\n        /* \"#utility.yul\":3548:3566   */\n      add\n        /* \"#utility.yul\":3540:3566   */\n      swap1\n      pop\n        /* \"#utility.yul\":3612:3621   */\n      dup2\n        /* \"#utility.yul\":3606:3610   */\n      dup2\n        /* \"#utility.yul\":3602:3622   */\n      sub\n        /* \"#utility.yul\":3598:3599   */\n      0x00\n        /* \"#utility.yul\":3587:3596   */\n      dup4\n        /* \"#utility.yul\":3583:3600   */\n      add\n        /* \"#utility.yul\":3576:3623   */\n      mstore\n        /* \"#utility.yul\":3640:3771   */\n      tag_185\n        /* \"#utility.yul\":3766:3770   */\n      dup2\n        /* \"#utility.yul\":3640:3771   */\n      tag_134\n      jump\t// in\n    tag_185:\n        /* \"#utility.yul\":3632:3771   */\n      swap1\n      pop\n        /* \"#utility.yul\":3359:3778   */\n      swap2\n      swap1\n      pop\n      jump\t// out\n        /* \"#utility.yul\":3784:3964   */\n    tag_135:\n        /* \"#utility.yul\":3832:3909   */\n      0x4e487b7100000000000000000000000000000000000000000000000000000000\n        /* \"#utility.yul\":3829:3830   */\n      0x00\n        /* \"#utility.yul\":3822:3910   */\n      mstore\n        /* \"#utility.yul\":3929:3933   */\n      0x11\n        /* \"#utility.yul\":3926:3927   */\n      0x04\n        /* \"#utility.yul\":3919:3934   */\n      mstore\n        /* \"#utility.yul\":3953:3957   */\n      0x24\n        /* \"#utility.yul\":3950:3951   */\n      0x00\n        /* \"#utility.yul\":3943:3958   */\n      revert\n        /* \"#utility.yul\":3970:4161   */\n    tag_67:\n        /* \"#utility.yul\":4010:4013   */\n      0x00\n        /* \"#utility.yul\":4029:4049   */\n      tag_188\n        /* \"#utility.yul\":4047:4048   */\n      dup3\n        /* \"#utility.yul\":4029:4049   */\n      tag_127\n      jump\t// in\n    tag_188:\n        /* \"#utility.yul\":4024:4049   */\n      swap2\n      pop\n        /* \"#utility.yul\":4063:4083   */\n      tag_189\n        /* \"#utility.yul\":4081:4082   */\n      dup4\n        /* \"#utility.yul\":4063:4083   */\n      tag_127\n      jump\t// in\n    tag_189:\n        /* \"#utility.yul\":4058:4083   */\n      swap3\n      pop\n        /* \"#utility.yul\":4106:4107   */\n      dup3\n        /* \"#utility.yul\":4103:4104   */\n      dup3\n        /* \"#utility.yul\":4099:4108   */\n      add\n        /* \"#utility.yul\":4092:4108   */\n      swap1\n      pop\n        /* \"#utility.yul\":4127:4130   */\n      dup1\n        /* \"#utility.yul\":4124:4125   */\n      dup3\n        /* \"#utility.yul\":4121:4131   */\n      gt\n        /* \"#utility.yul\":4118:4154   */\n      iszero\n      tag_190\n      jumpi\n        /* \"#utility.yul\":4134:4152   */\n      tag_191\n      tag_135\n      jump\t// in\n    tag_191:\n        /* \"#utility.yul\":4118:4154   */\n    tag_190:\n        /* \"#utility.yul\":3970:4161   */\n      swap3\n      swap2\n      pop\n      pop\n      jump\t// out\n        /* \"#utility.yul\":4167:4347   */\n    tag_76:\n        /* \"#utility.yul\":4215:4292   */\n      0x4e487b7100000000000000000000000000000000000000000000000000000000\n        /* \"#utility.yul\":4212:4213   */\n      0x00\n        /* \"#utility.yul\":4205:4293   */\n      mstore\n        /* \"#utility.yul\":4312:4316   */\n      0x32\n        /* \"#utility.yul\":4309:4310   */\n      0x04\n        /* \"#utility.yul\":4302:4317   */\n      mstore\n        /* \"#utility.yul\":4336:4340   */\n      0x24\n        /* \"#utility.yul\":4333:4334   */\n      0x00\n        /* \"#utility.yul\":4326:4341   */\n      revert\n        /* \"#utility.yul\":4353:4533   */\n    tag_80:\n        /* \"#utility.yul\":4401:4478   */\n      0x4e487b7100000000000000000000000000000000000000000000000000000000\n        /* \"#utility.yul\":4398:4399   */\n      0x00\n        /* \"#utility.yul\":4391:4479   */\n      mstore\n        /* \"#utility.yul\":4498:4502   */\n      0x41\n        /* \"#utility.yul\":4495:4496   */\n      0x04\n        /* \"#utility.yul\":4488:4503   */\n      mstore\n        /* \"#utility.yul\":4522:4526   */\n      0x24\n        /* \"#utility.yul\":4519:4520   */\n      0x00\n        /* \"#utility.yul\":4512:4527   */\n      revert\n        /* \"#utility.yul\":4539:4686   */\n    tag_136:\n        /* \"#utility.yul\":4640:4651   */\n      0x00\n        /* \"#utility.yul\":4677:4680   */\n      dup2\n        /* \"#utility.yul\":4662:4680   */\n      swap1\n      pop\n        /* \"#utility.yul\":4539:4686   */\n      swap3\n      swap2\n      pop\n      pop\n      jump\t// out\n        /* \"#utility.yul\":4692:4806   */\n    tag_137:\n      pop\n      jump\t// out\n        /* \"#utility.yul\":4812:5210   */\n    tag_138:\n        /* \"#utility.yul\":4971:4974   */\n      0x00\n        /* \"#utility.yul\":4992:5075   */\n      tag_197\n        /* \"#utility.yul\":5073:5074   */\n      0x00\n        /* \"#utility.yul\":5068:5071   */\n      dup4\n        /* \"#utility.yul\":4992:5075   */\n      tag_136\n      jump\t// in\n    tag_197:\n        /* \"#utility.yul\":4985:5075   */\n      swap2\n      pop\n        /* \"#utility.yul\":5084:5177   */\n      tag_198\n        /* \"#utility.yul\":5173:5176   */\n      dup3\n        /* \"#utility.yul\":5084:5177   */\n      tag_137\n      jump\t// in\n    tag_198:\n        /* \"#utility.yul\":5202:5203   */\n      0x00\n        /* \"#utility.yul\":5197:5200   */\n      dup3\n        /* \"#utility.yul\":5193:5204   */\n      add\n        /* \"#utility.yul\":5186:5204   */\n      swap1\n      pop\n        /* \"#utility.yul\":4812:5210   */\n      swap2\n      swap1\n      pop\n      jump\t// out\n        /* \"#utility.yul\":5216:5595   */\n    tag_85:\n        /* \"#utility.yul\":5400:5403   */\n      0x00\n        /* \"#utility.yul\":5422:5569   */\n      tag_200\n        /* \"#utility.yul\":5565:5568   */\n      dup3\n        /* \"#utility.yul\":5422:5569   */\n      tag_138\n      jump\t// in\n    tag_200:\n        /* \"#utility.yul\":5415:5569   */\n      swap2\n      pop\n        /* \"#utility.yul\":5586:5589   */\n      dup2\n        /* \"#utility.yul\":5579:5589   */\n      swap1\n      pop\n        /* \"#utility.yul\":5216:5595   */\n      swap2\n      swap1\n      pop\n      jump\t// out\n        /* \"#utility.yul\":5601:5762   */\n    tag_139:\n        /* \"#utility.yul\":5741:5754   */\n      0x43616c6c206661696c6564000000000000000000000000000000000000000000\n        /* \"#utility.yul\":5737:5738   */\n      0x00\n        /* \"#utility.yul\":5729:5735   */\n      dup3\n        /* \"#utility.yul\":5725:5739   */\n      add\n        /* \"#utility.yul\":5718:5755   */\n      mstore\n        /* \"#utility.yul\":5601:5762   */\n      pop\n      jump\t// out\n        /* \"#utility.yul\":5768:6134   */\n    tag_140:\n        /* \"#utility.yul\":5910:5913   */\n      0x00\n        /* \"#utility.yul\":5931:5998   */\n      tag_203\n        /* \"#utility.yul\":5995:5997   */\n      0x0b\n        /* \"#utility.yul\":5990:5993   */\n      dup4\n        /* \"#utility.yul\":5931:5998   */\n      tag_132\n      jump\t// in\n    tag_203:\n        /* \"#utility.yul\":5924:5998   */\n      swap2\n      pop\n        /* \"#utility.yul\":6007:6100   */\n      tag_204\n        /* \"#utility.yul\":6096:6099   */\n      dup3\n        /* \"#utility.yul\":6007:6100   */\n      tag_139\n      jump\t// in\n    tag_204:\n        /* \"#utility.yul\":6125:6127   */\n      0x20\n        /* \"#utility.yul\":6120:6123   */\n      dup3\n        /* \"#utility.yul\":6116:6128   */\n      add\n        /* \"#utility.yul\":6109:6128   */\n      swap1\n      pop\n        /* \"#utility.yul\":5768:6134   */\n      swap2\n      swap1\n      pop\n      jump\t// out\n        /* \"#utility.yul\":6140:6559   */\n    tag_91:\n        /* \"#utility.yul\":6306:6310   */\n      0x00\n        /* \"#utility.yul\":6344:6346   */\n      0x20\n        /* \"#utility.yul\":6333:6342   */\n      dup3\n        /* \"#utility.yul\":6329:6347   */\n      add\n        /* \"#utility.yul\":6321:6347   */\n      swap1\n      pop\n        /* \"#utility.yul\":6393:6402   */\n      dup2\n        /* \"#utility.yul\":6387:6391   */\n      dup2\n        /* \"#utility.yul\":6383:6403   */\n      sub\n        /* \"#utility.yul\":6379:6380   */\n      0x00\n        /* \"#utility.yul\":6368:6377   */\n      dup4\n        /* \"#utility.yul\":6364:6381   */\n      add\n        /* \"#utility.yul\":6357:6404   */\n      mstore\n        /* \"#utility.yul\":6421:6552   */\n      tag_206\n        /* \"#utility.yul\":6547:6551   */\n      dup2\n        /* \"#utility.yul\":6421:6552   */\n      tag_140\n      jump\t// in\n    tag_206:\n        /* \"#utility.yul\":6413:6552   */\n      swap1\n      pop\n        /* \"#utility.yul\":6140:6559   */\n      swap2\n      swap1\n      pop\n      jump\t// out\n        /* \"#utility.yul\":6565:6975   */\n    tag_103:\n        /* \"#utility.yul\":6605:6612   */\n      0x00\n        /* \"#utility.yul\":6628:6648   */\n      tag_208\n        /* \"#utility.yul\":6646:6647   */\n      dup3\n        /* \"#utility.yul\":6628:6648   */\n      tag_127\n      jump\t// in\n    tag_208:\n        /* \"#utility.yul\":6623:6648   */\n      swap2\n      pop\n        /* \"#utility.yul\":6662:6682   */\n      tag_209\n        /* \"#utility.yul\":6680:6681   */\n      dup4\n        /* \"#utility.yul\":6662:6682   */\n      tag_127\n      jump\t// in\n    tag_209:\n        /* \"#utility.yul\":6657:6682   */\n      swap3\n      pop\n        /* \"#utility.yul\":6717:6718   */\n      dup3\n        /* \"#utility.yul\":6714:6715   */\n      dup3\n        /* \"#utility.yul\":6710:6719   */\n      mul\n        /* \"#utility.yul\":6739:6769   */\n      tag_210\n        /* \"#utility.yul\":6757:6768   */\n      dup2\n        /* \"#utility.yul\":6739:6769   */\n      tag_127\n      jump\t// in\n    tag_210:\n        /* \"#utility.yul\":6728:6769   */\n      swap2\n      pop\n        /* \"#utility.yul\":6918:6919   */\n      dup3\n        /* \"#utility.yul\":6909:6916   */\n      dup3\n        /* \"#utility.yul\":6905:6920   */\n      div\n        /* \"#utility.yul\":6902:6903   */\n      dup5\n        /* \"#utility.yul\":6899:6921   */\n      eq\n        /* \"#utility.yul\":6879:6880   */\n      dup4\n        /* \"#utility.yul\":6872:6881   */\n      iszero\n        /* \"#utility.yul\":6852:6935   */\n      or\n        /* \"#utility.yul\":6829:6968   */\n      tag_211\n      jumpi\n        /* \"#utility.yul\":6948:6966   */\n      tag_212\n      tag_135\n      jump\t// in\n    tag_212:\n        /* \"#utility.yul\":6829:6968   */\n    tag_211:\n        /* \"#utility.yul\":6613:6975   */\n      pop\n        /* \"#utility.yul\":6565:6975   */\n      swap3\n      swap2\n      pop\n      pop\n      jump\t// out\n        /* \"#utility.yul\":6981:7161   */\n    tag_141:\n        /* \"#utility.yul\":7029:7106   */\n      0x4e487b7100000000000000000000000000000000000000000000000000000000\n        /* \"#utility.yul\":7026:7027   */\n      0x00\n        /* \"#utility.yul\":7019:7107   */\n      mstore\n        /* \"#utility.yul\":7126:7130   */\n      0x12\n        /* \"#utility.yul\":7123:7124   */\n      0x04\n        /* \"#utility.yul\":7116:7131   */\n      mstore\n        /* \"#utility.yul\":7150:7154   */\n      0x24\n        /* \"#utility.yul\":7147:7148   */\n      0x00\n        /* \"#utility.yul\":7140:7155   */\n      revert\n        /* \"#utility.yul\":7167:7352   */\n    tag_105:\n        /* \"#utility.yul\":7207:7208   */\n      0x00\n        /* \"#utility.yul\":7224:7244   */\n      tag_215\n        /* \"#utility.yul\":7242:7243   */\n      dup3\n        /* \"#utility.yul\":7224:7244   */\n      tag_127\n      jump\t// in\n    tag_215:\n        /* \"#utility.yul\":7219:7244   */\n      swap2\n      pop\n        /* \"#utility.yul\":7258:7278   */\n      tag_216\n        /* \"#utility.yul\":7276:7277   */\n      dup4\n        /* \"#utility.yul\":7258:7278   */\n      tag_127\n      jump\t// in\n    tag_216:\n        /* \"#utility.yul\":7253:7278   */\n      swap3\n      pop\n        /* \"#utility.yul\":7297:7298   */\n      dup3\n        /* \"#utility.yul\":7287:7322   */\n      tag_217\n      jumpi\n        /* \"#utility.yul\":7302:7320   */\n      tag_218\n      tag_141\n      jump\t// in\n    tag_218:\n        /* \"#utility.yul\":7287:7322   */\n    tag_217:\n        /* \"#utility.yul\":7344:7345   */\n      dup3\n        /* \"#utility.yul\":7341:7342   */\n      dup3\n        /* \"#utility.yul\":7337:7346   */\n      div\n        /* \"#utility.yul\":7332:7346   */\n      swap1\n      pop\n        /* \"#utility.yul\":7167:7352   */\n      swap3\n      swap2\n      pop\n      pop\n      jump\t// out\n        /* \"#utility.yul\":7358:7434   */\n    tag_142:\n        /* \"#utility.yul\":7394:7401   */\n      0x00\n        /* \"#utility.yul\":7423:7428   */\n      dup2\n        /* \"#utility.yul\":7412:7428   */\n      swap1\n      pop\n        /* \"#utility.yul\":7358:7434   */\n      swap2\n      swap1\n      pop\n      jump\t// out\n        /* \"#utility.yul\":7440:7560   */\n    tag_143:\n        /* \"#utility.yul\":7512:7535   */\n      tag_221\n        /* \"#utility.yul\":7529:7534   */\n      dup2\n        /* \"#utility.yul\":7512:7535   */\n      tag_142\n      jump\t// in\n    tag_221:\n        /* \"#utility.yul\":7505:7510   */\n      dup2\n        /* \"#utility.yul\":7502:7536   */\n      eq\n        /* \"#utility.yul\":7492:7554   */\n      tag_222\n      jumpi\n        /* \"#utility.yul\":7550:7551   */\n      0x00\n        /* \"#utility.yul\":7547:7548   */\n      dup1\n        /* \"#utility.yul\":7540:7552   */\n      revert\n        /* \"#utility.yul\":7492:7554   */\n    tag_222:\n        /* \"#utility.yul\":7440:7560   */\n      pop\n      jump\t// out\n        /* \"#utility.yul\":7566:7707   */\n    tag_144:\n        /* \"#utility.yul\":7622:7627   */\n      0x00\n        /* \"#utility.yul\":7653:7659   */\n      dup2\n        /* \"#utility.yul\":7647:7660   */\n      mload\n        /* \"#utility.yul\":7638:7660   */\n      swap1\n      pop\n        /* \"#utility.yul\":7669:7701   */\n      tag_224\n        /* \"#utility.yul\":7695:7700   */\n      dup2\n        /* \"#utility.yul\":7669:7701   */\n      tag_143\n      jump\t// in\n    tag_224:\n        /* \"#utility.yul\":7566:7707   */\n      swap3\n      swap2\n      pop\n      pop\n      jump\t// out\n        /* \"#utility.yul\":7713:8062   */\n    tag_110:\n        /* \"#utility.yul\":7782:7788   */\n      0x00\n        /* \"#utility.yul\":7831:7833   */\n      0x20\n        /* \"#utility.yul\":7819:7828   */\n      dup3\n        /* \"#utility.yul\":7810:7817   */\n      dup5\n        /* \"#utility.yul\":7806:7829   */\n      sub\n        /* \"#utility.yul\":7802:7834   */\n      slt\n        /* \"#utility.yul\":7799:7918   */\n      iszero\n      tag_226\n      jumpi\n        /* \"#utility.yul\":7837:7916   */\n      tag_227\n      tag_121\n      jump\t// in\n    tag_227:\n        /* \"#utility.yul\":7799:7918   */\n    tag_226:\n        /* \"#utility.yul\":7957:7958   */\n      0x00\n        /* \"#utility.yul\":7982:8045   */\n      tag_228\n        /* \"#utility.yul\":8037:8044   */\n      dup5\n        /* \"#utility.yul\":8028:8034   */\n      dup3\n        /* \"#utility.yul\":8017:8026   */\n      dup6\n        /* \"#utility.yul\":8013:8035   */\n      add\n        /* \"#utility.yul\":7982:8045   */\n      tag_144\n      jump\t// in\n    tag_228:\n        /* \"#utility.yul\":7972:8045   */\n      swap2\n      pop\n        /* \"#utility.yul\":7928:8055   */\n      pop\n        /* \"#utility.yul\":7713:8062   */\n      swap3\n      swap2\n      pop\n      pop\n      jump\t// out\n        /* \"#utility.yul\":8068:8624   */\n    tag_112:\n        /* \"#utility.yul\":8107:8114   */\n      0x00\n        /* \"#utility.yul\":8130:8149   */\n      tag_230\n        /* \"#utility.yul\":8147:8148   */\n      dup3\n        /* \"#utility.yul\":8130:8149   */\n      tag_142\n      jump\t// in\n    tag_230:\n        /* \"#utility.yul\":8125:8149   */\n      swap2\n      pop\n        /* \"#utility.yul\":8163:8182   */\n      tag_231\n        /* \"#utility.yul\":8180:8181   */\n      dup4\n        /* \"#utility.yul\":8163:8182   */\n      tag_142\n      jump\t// in\n    tag_231:\n        /* \"#utility.yul\":8158:8182   */\n      swap3\n      pop\n        /* \"#utility.yul\":8217:8218   */\n      dup3\n        /* \"#utility.yul\":8214:8215   */\n      dup3\n        /* \"#utility.yul\":8210:8219   */\n      mul\n        /* \"#utility.yul\":8239:8268   */\n      tag_232\n        /* \"#utility.yul\":8256:8267   */\n      dup2\n        /* \"#utility.yul\":8239:8268   */\n      tag_142\n      jump\t// in\n    tag_232:\n        /* \"#utility.yul\":8228:8268   */\n      swap2\n      pop\n        /* \"#utility.yul\":8326:8392   */\n      0x8000000000000000000000000000000000000000000000000000000000000000\n        /* \"#utility.yul\":8323:8324   */\n      dup5\n        /* \"#utility.yul\":8320:8393   */\n      eq\n        /* \"#utility.yul\":8316:8317   */\n      0x00\n        /* \"#utility.yul\":8313:8314   */\n      dup5\n        /* \"#utility.yul\":8309:8318   */\n      slt\n        /* \"#utility.yul\":8305:8394   */\n      and\n        /* \"#utility.yul\":8302:8417   */\n      iszero\n      tag_233\n      jumpi\n        /* \"#utility.yul\":8397:8415   */\n      tag_234\n      tag_135\n      jump\t// in\n    tag_234:\n        /* \"#utility.yul\":8302:8417   */\n    tag_233:\n        /* \"#utility.yul\":8567:8568   */\n      dup3\n        /* \"#utility.yul\":8558:8565   */\n      dup3\n        /* \"#utility.yul\":8553:8569   */\n      sdiv\n        /* \"#utility.yul\":8550:8551   */\n      dup5\n        /* \"#utility.yul\":8547:8570   */\n      eq\n        /* \"#utility.yul\":8527:8528   */\n      dup4\n        /* \"#utility.yul\":8520:8529   */\n      iszero\n        /* \"#utility.yul\":8500:8584   */\n      or\n        /* \"#utility.yul\":8477:8617   */\n      tag_235\n      jumpi\n        /* \"#utility.yul\":8597:8615   */\n      tag_236\n      tag_135\n      jump\t// in\n    tag_236:\n        /* \"#utility.yul\":8477:8617   */\n    tag_235:\n        /* \"#utility.yul\":8115:8624   */\n      pop\n        /* \"#utility.yul\":8068:8624   */\n      swap3\n      swap2\n      pop\n      pop\n      jump\t// out\n\n    auxdata: 0xa2646970667358221220219bcdeedad57b78af70aff6b63b72f84b77b886e9b7e06358f64b0ab9cd092b64736f6c634300081a0033\n}\n",
				"bytecode": {
					"linkReferences": {},
					"object": "60a0604052348015600e575f80fd5b503373ffffffffffffffffffffffffffffffffffffffff1660808173ffffffffffffffffffffffffffffffffffffffff1681525050608051610c936100625f395f8181610328015261059a0152610c935ff3fe608060405260043610610089575f3560e01c8063b60d428811610058578063b60d428814610148578063c9b90f2c14610152578063dba6335f1461017c578063dc0d3dff146101a6578063ff126197146101e257610098565b80633ccfd60b146100a25780634452d405146100b857806398d5fdca146100f4578063ac47a8b71461011e57610098565b366100985761009661021e565b005b6100a061021e565b005b3480156100ad575f80fd5b506100b6610326565b005b3480156100c3575f80fd5b506100de60048036038101906100d99190610811565b610554565b6040516100eb9190610854565b60405180910390f35b3480156100ff575f80fd5b50610108610569565b6040516101159190610854565b60405180910390f35b348015610129575f80fd5b50610132610577565b60405161013f9190610854565b60405180910390f35b61015061021e565b005b34801561015d575f80fd5b50610166610583565b6040516101739190610854565b60405180910390f35b348015610187575f80fd5b50610190610598565b60405161019d919061087c565b60405180910390f35b3480156101b1575f80fd5b506101cc60048036038101906101c791906108bf565b6105bc565b6040516101d9919061087c565b60405180910390f35b3480156101ed575f80fd5b5061020860048036038101906102039190610811565b6105f7565b6040516102159190610854565b60405180910390f35b678ac7230489e800006102303461063d565b1015610271576040517f08c379a00000000000000000000000000000000000000000000000000000000081526004016102689061096a565b60405180910390fd5b600133908060018154018082558091505060019003905f5260205f20015f9091909190916101000a81548173ffffffffffffffffffffffffffffffffffffffff021916908373ffffffffffffffffffffffffffffffffffffffff1602179055503460025f3373ffffffffffffffffffffffffffffffffffffffff1673ffffffffffffffffffffffffffffffffffffffff1681526020019081526020015f205f82825461031d91906109b5565b92505081905550565b7f000000000000000000000000000000000000000000000000000000000000000073ffffffffffffffffffffffffffffffffffffffff163373ffffffffffffffffffffffffffffffffffffffff16146103ab576040517f251c9d6300000000000000000000000000000000000000000000000000000000815260040160405180910390fd5b5f5b600180549050811015610449575f600182815481106103cf576103ce6109e8565b5b905f5260205f20015f9054906101000a900473ffffffffffffffffffffffffffffffffffffffff1690505f60025f8373ffffffffffffffffffffffffffffffffffffffff1673ffffffffffffffffffffffffffffffffffffffff1681526020019081526020015f20819055505080806001019150506103ad565b505f67ffffffffffffffff81111561046457610463610a15565b5b6040519080825280602002602001820160405280156104925781602001602082028036833780820191505090505b50600190805190602001906104a8929190610711565b505f3373ffffffffffffffffffffffffffffffffffffffff16476040516104ce90610a6f565b5f6040518083038185875af1925050503d805f8114610508576040519150601f19603f3d011682016040523d82523d5f602084013e61050d565b606091505b5050905080610551576040517f08c379a000000000000000000000000000000000000000000000000000000000815260040161054890610acd565b60405180910390fd5b50565b6002602052805f5260405f205f915090505481565b5f610572610675565b905090565b678ac7230489e8000081565b5f80600190506105928161063d565b91505090565b7f000000000000000000000000000000000000000000000000000000000000000081565b600181815481106105cb575f80fd5b905f5260205f20015f915054906101000a900473ffffffffffffffffffffffffffffffffffffffff1681565b5f60025f8373ffffffffffffffffffffffffffffffffffffffff1673ffffffffffffffffffffffffffffffffffffffff1681526020019081526020015f20549050919050565b5f80610647610675565b90505f670de0b6b3a7640000828561065f9190610aeb565b6106699190610b59565b90508092505050919050565b5f80731d142a62e2e98474093545d4a3a0f7db9503b8bd73ffffffffffffffffffffffffffffffffffffffff1663feaf968c6040518163ffffffff1660e01b8152600401602060405180830381865afa1580156106d4573d5f803e3d5ffd5b505050506040513d601f19601f820116820180604052508101906106f89190610bbc565b90506402540be4008161070b9190610be7565b91505090565b828054828255905f5260205f20908101928215610787579160200282015b82811115610786578251825f6101000a81548173ffffffffffffffffffffffffffffffffffffffff021916908373ffffffffffffffffffffffffffffffffffffffff1602179055509160200191906001019061072f565b5b5090506107949190610798565b5090565b5b808211156107af575f815f905550600101610799565b5090565b5f80fd5b5f73ffffffffffffffffffffffffffffffffffffffff82169050919050565b5f6107e0826107b7565b9050919050565b6107f0816107d6565b81146107fa575f80fd5b50565b5f8135905061080b816107e7565b92915050565b5f60208284031215610826576108256107b3565b5b5f610833848285016107fd565b91505092915050565b5f819050919050565b61084e8161083c565b82525050565b5f6020820190506108675f830184610845565b92915050565b610876816107d6565b82525050565b5f60208201905061088f5f83018461086d565b92915050565b61089e8161083c565b81146108a8575f80fd5b50565b5f813590506108b981610895565b92915050565b5f602082840312156108d4576108d36107b3565b5b5f6108e1848285016108ab565b91505092915050565b5f82825260208201905092915050565b7f596f75206e65656420746f2073656e64206174206c65617374203130205553445f8201527f20776f727468206f662045746865722100000000000000000000000000000000602082015250565b5f6109546030836108ea565b915061095f826108fa565b604082019050919050565b5f6020820190508181035f83015261098181610948565b9050919050565b7f4e487b71000000000000000000000000000000000000000000000000000000005f52601160045260245ffd5b5f6109bf8261083c565b91506109ca8361083c565b92508282019050808211156109e2576109e1610988565b5b92915050565b7f4e487b71000000000000000000000000000000000000000000000000000000005f52603260045260245ffd5b7f4e487b71000000000000000000000000000000000000000000000000000000005f52604160045260245ffd5b5f81905092915050565b50565b5f610a5a5f83610a42565b9150610a6582610a4c565b5f82019050919050565b5f610a7982610a4f565b9150819050919050565b7f43616c6c206661696c65640000000000000000000000000000000000000000005f82015250565b5f610ab7600b836108ea565b9150610ac282610a83565b602082019050919050565b5f6020820190508181035f830152610ae481610aab565b9050919050565b5f610af58261083c565b9150610b008361083c565b9250828202610b0e8161083c565b91508282048414831517610b2557610b24610988565b5b5092915050565b7f4e487b71000000000000000000000000000000000000000000000000000000005f52601260045260245ffd5b5f610b638261083c565b9150610b6e8361083c565b925082610b7e57610b7d610b2c565b5b828204905092915050565b5f819050919050565b610b9b81610b89565b8114610ba5575f80fd5b50565b5f81519050610bb681610b92565b92915050565b5f60208284031215610bd157610bd06107b3565b5b5f610bde84828501610ba8565b91505092915050565b5f610bf182610b89565b9150610bfc83610b89565b9250828202610c0a81610b89565b91507f800000000000000000000000000000000000000000000000000000000000000084145f84121615610c4157610c40610988565b5b8282058414831517610c5657610c55610988565b5b509291505056fea2646970667358221220219bcdeedad57b78af70aff6b63b72f84b77b886e9b7e06358f64b0ab9cd092b64736f6c634300081a0033",
					"opcodes": "PUSH1 0xA0 PUSH1 0x40 MSTORE CALLVALUE DUP1 ISZERO PUSH1 0xE JUMPI PUSH0 DUP1 REVERT JUMPDEST POP CALLER PUSH20 0xFFFFFFFFFFFFFFFFFFFFFFFFFFFFFFFFFFFFFFFF AND PUSH1 0x80 DUP2 PUSH20 0xFFFFFFFFFFFFFFFFFFFFFFFFFFFFFFFFFFFFFFFF AND DUP2 MSTORE POP POP PUSH1 0x80 MLOAD PUSH2 0xC93 PUSH2 0x62 PUSH0 CODECOPY PUSH0 DUP2 DUP2 PUSH2 0x328 ADD MSTORE PUSH2 0x59A ADD MSTORE PUSH2 0xC93 PUSH0 RETURN INVALID PUSH1 0x80 PUSH1 0x40 MSTORE PUSH1 0x4 CALLDATASIZE LT PUSH2 0x89 JUMPI PUSH0 CALLDATALOAD PUSH1 0xE0 SHR DUP1 PUSH4 0xB60D4288 GT PUSH2 0x58 JUMPI DUP1 PUSH4 0xB60D4288 EQ PUSH2 0x148 JUMPI DUP1 PUSH4 0xC9B90F2C EQ PUSH2 0x152 JUMPI DUP1 PUSH4 0xDBA6335F EQ PUSH2 0x17C JUMPI DUP1 PUSH4 0xDC0D3DFF EQ PUSH2 0x1A6 JUMPI DUP1 PUSH4 0xFF126197 EQ PUSH2 0x1E2 JUMPI PUSH2 0x98 JUMP JUMPDEST DUP1 PUSH4 0x3CCFD60B EQ PUSH2 0xA2 JUMPI DUP1 PUSH4 0x4452D405 EQ PUSH2 0xB8 JUMPI DUP1 PUSH4 0x98D5FDCA EQ PUSH2 0xF4 JUMPI DUP1 PUSH4 0xAC47A8B7 EQ PUSH2 0x11E JUMPI PUSH2 0x98 JUMP JUMPDEST CALLDATASIZE PUSH2 0x98 JUMPI PUSH2 0x96 PUSH2 0x21E JUMP JUMPDEST STOP JUMPDEST PUSH2 0xA0 PUSH2 0x21E JUMP JUMPDEST STOP JUMPDEST CALLVALUE DUP1 ISZERO PUSH2 0xAD JUMPI PUSH0 DUP1 REVERT JUMPDEST POP PUSH2 0xB6 PUSH2 0x326 JUMP JUMPDEST STOP JUMPDEST CALLVALUE DUP1 ISZERO PUSH2 0xC3 JUMPI PUSH0 DUP1 REVERT JUMPDEST POP PUSH2 0xDE PUSH1 0x4 DUP1 CALLDATASIZE SUB DUP2 ADD SWAP1 PUSH2 0xD9 SWAP2 SWAP1 PUSH2 0x811 JUMP JUMPDEST PUSH2 0x554 JUMP JUMPDEST PUSH1 0x40 MLOAD PUSH2 0xEB SWAP2 SWAP1 PUSH2 0x854 JUMP JUMPDEST PUSH1 0x40 MLOAD DUP1 SWAP2 SUB SWAP1 RETURN JUMPDEST CALLVALUE DUP1 ISZERO PUSH2 0xFF JUMPI PUSH0 DUP1 REVERT JUMPDEST POP PUSH2 0x108 PUSH2 0x569 JUMP JUMPDEST PUSH1 0x40 MLOAD PUSH2 0x115 SWAP2 SWAP1 PUSH2 0x854 JUMP JUMPDEST PUSH1 0x40 MLOAD DUP1 SWAP2 SUB SWAP1 RETURN JUMPDEST CALLVALUE DUP1 ISZERO PUSH2 0x129 JUMPI PUSH0 DUP1 REVERT JUMPDEST POP PUSH2 0x132 PUSH2 0x577 JUMP JUMPDEST PUSH1 0x40 MLOAD PUSH2 0x13F SWAP2 SWAP1 PUSH2 0x854 JUMP JUMPDEST PUSH1 0x40 MLOAD DUP1 SWAP2 SUB SWAP1 RETURN JUMPDEST PUSH2 0x150 PUSH2 0x21E JUMP JUMPDEST STOP JUMPDEST CALLVALUE DUP1 ISZERO PUSH2 0x15D JUMPI PUSH0 DUP1 REVERT JUMPDEST POP PUSH2 0x166 PUSH2 0x583 JUMP JUMPDEST PUSH1 0x40 MLOAD PUSH2 0x173 SWAP2 SWAP1 PUSH2 0x854 JUMP JUMPDEST PUSH1 0x40 MLOAD DUP1 SWAP2 SUB SWAP1 RETURN JUMPDEST CALLVALUE DUP1 ISZERO PUSH2 0x187 JUMPI PUSH0 DUP1 REVERT JUMPDEST POP PUSH2 0x190 PUSH2 0x598 JUMP JUMPDEST PUSH1 0x40 MLOAD PUSH2 0x19D SWAP2 SWAP1 PUSH2 0x87C JUMP JUMPDEST PUSH1 0x40 MLOAD DUP1 SWAP2 SUB SWAP1 RETURN JUMPDEST CALLVALUE DUP1 ISZERO PUSH2 0x1B1 JUMPI PUSH0 DUP1 REVERT JUMPDEST POP PUSH2 0x1CC PUSH1 0x4 DUP1 CALLDATASIZE SUB DUP2 ADD SWAP1 PUSH2 0x1C7 SWAP2 SWAP1 PUSH2 0x8BF JUMP JUMPDEST PUSH2 0x5BC JUMP JUMPDEST PUSH1 0x40 MLOAD PUSH2 0x1D9 SWAP2 SWAP1 PUSH2 0x87C JUMP JUMPDEST PUSH1 0x40 MLOAD DUP1 SWAP2 SUB SWAP1 RETURN JUMPDEST CALLVALUE DUP1 ISZERO PUSH2 0x1ED JUMPI PUSH0 DUP1 REVERT JUMPDEST POP PUSH2 0x208 PUSH1 0x4 DUP1 CALLDATASIZE SUB DUP2 ADD SWAP1 PUSH2 0x203 SWAP2 SWAP1 PUSH2 0x811 JUMP JUMPDEST PUSH2 0x5F7 JUMP JUMPDEST PUSH1 0x40 MLOAD PUSH2 0x215 SWAP2 SWAP1 PUSH2 0x854 JUMP JUMPDEST PUSH1 0x40 MLOAD DUP1 SWAP2 SUB SWAP1 RETURN JUMPDEST PUSH8 0x8AC7230489E80000 PUSH2 0x230 CALLVALUE PUSH2 0x63D JUMP JUMPDEST LT ISZERO PUSH2 0x271 JUMPI PUSH1 0x40 MLOAD PUSH32 0x8C379A000000000000000000000000000000000000000000000000000000000 DUP2 MSTORE PUSH1 0x4 ADD PUSH2 0x268 SWAP1 PUSH2 0x96A JUMP JUMPDEST PUSH1 0x40 MLOAD DUP1 SWAP2 SUB SWAP1 REVERT JUMPDEST PUSH1 0x1 CALLER SWAP1 DUP1 PUSH1 0x1 DUP2 SLOAD ADD DUP1 DUP3 SSTORE DUP1 SWAP2 POP POP PUSH1 0x1 SWAP1 SUB SWAP1 PUSH0 MSTORE PUSH1 0x20 PUSH0 KECCAK256 ADD PUSH0 SWAP1 SWAP2 SWAP1 SWAP2 SWAP1 SWAP2 PUSH2 0x100 EXP DUP2 SLOAD DUP2 PUSH20 0xFFFFFFFFFFFFFFFFFFFFFFFFFFFFFFFFFFFFFFFF MUL NOT AND SWAP1 DUP4 PUSH20 0xFFFFFFFFFFFFFFFFFFFFFFFFFFFFFFFFFFFFFFFF AND MUL OR SWAP1 SSTORE POP CALLVALUE PUSH1 0x2 PUSH0 CALLER PUSH20 0xFFFFFFFFFFFFFFFFFFFFFFFFFFFFFFFFFFFFFFFF AND PUSH20 0xFFFFFFFFFFFFFFFFFFFFFFFFFFFFFFFFFFFFFFFF AND DUP2 MSTORE PUSH1 0x20 ADD SWAP1 DUP2 MSTORE PUSH1 0x20 ADD PUSH0 KECCAK256 PUSH0 DUP3 DUP3 SLOAD PUSH2 0x31D SWAP2 SWAP1 PUSH2 0x9B5 JUMP JUMPDEST SWAP3 POP POP DUP2 SWAP1 SSTORE POP JUMP JUMPDEST PUSH32 0x0 PUSH20 0xFFFFFFFFFFFFFFFFFFFFFFFFFFFFFFFFFFFFFFFF AND CALLER PUSH20 0xFFFFFFFFFFFFFFFFFFFFFFFFFFFFFFFFFFFFFFFF AND EQ PUSH2 0x3AB JUMPI PUSH1 0x40 MLOAD PUSH32 0x251C9D6300000000000000000000000000000000000000000000000000000000 DUP2 MSTORE PUSH1 0x4 ADD PUSH1 0x40 MLOAD DUP1 SWAP2 SUB SWAP1 REVERT JUMPDEST PUSH0 JUMPDEST PUSH1 0x1 DUP1 SLOAD SWAP1 POP DUP2 LT ISZERO PUSH2 0x449 JUMPI PUSH0 PUSH1 0x1 DUP3 DUP2 SLOAD DUP2 LT PUSH2 0x3CF JUMPI PUSH2 0x3CE PUSH2 0x9E8 JUMP JUMPDEST JUMPDEST SWAP1 PUSH0 MSTORE PUSH1 0x20 PUSH0 KECCAK256 ADD PUSH0 SWAP1 SLOAD SWAP1 PUSH2 0x100 EXP SWAP1 DIV PUSH20 0xFFFFFFFFFFFFFFFFFFFFFFFFFFFFFFFFFFFFFFFF AND SWAP1 POP PUSH0 PUSH1 0x2 PUSH0 DUP4 PUSH20 0xFFFFFFFFFFFFFFFFFFFFFFFFFFFFFFFFFFFFFFFF AND PUSH20 0xFFFFFFFFFFFFFFFFFFFFFFFFFFFFFFFFFFFFFFFF AND DUP2 MSTORE PUSH1 0x20 ADD SWAP1 DUP2 MSTORE PUSH1 0x20 ADD PUSH0 KECCAK256 DUP2 SWAP1 SSTORE POP POP DUP1 DUP1 PUSH1 0x1 ADD SWAP2 POP POP PUSH2 0x3AD JUMP JUMPDEST POP PUSH0 PUSH8 0xFFFFFFFFFFFFFFFF DUP2 GT ISZERO PUSH2 0x464 JUMPI PUSH2 0x463 PUSH2 0xA15 JUMP JUMPDEST JUMPDEST PUSH1 0x40 MLOAD SWAP1 DUP1 DUP3 MSTORE DUP1 PUSH1 0x20 MUL PUSH1 0x20 ADD DUP3 ADD PUSH1 0x40 MSTORE DUP1 ISZERO PUSH2 0x492 JUMPI DUP2 PUSH1 0x20 ADD PUSH1 0x20 DUP3 MUL DUP1 CALLDATASIZE DUP4 CALLDATACOPY DUP1 DUP3 ADD SWAP2 POP POP SWAP1 POP JUMPDEST POP PUSH1 0x1 SWAP1 DUP1 MLOAD SWAP1 PUSH1 0x20 ADD SWAP1 PUSH2 0x4A8 SWAP3 SWAP2 SWAP1 PUSH2 0x711 JUMP JUMPDEST POP PUSH0 CALLER PUSH20 0xFFFFFFFFFFFFFFFFFFFFFFFFFFFFFFFFFFFFFFFF AND SELFBALANCE PUSH1 0x40 MLOAD PUSH2 0x4CE SWAP1 PUSH2 0xA6F JUMP JUMPDEST PUSH0 PUSH1 0x40 MLOAD DUP1 DUP4 SUB DUP2 DUP6 DUP8 GAS CALL SWAP3 POP POP POP RETURNDATASIZE DUP1 PUSH0 DUP2 EQ PUSH2 0x508 JUMPI PUSH1 0x40 MLOAD SWAP2 POP PUSH1 0x1F NOT PUSH1 0x3F RETURNDATASIZE ADD AND DUP3 ADD PUSH1 0x40 MSTORE RETURNDATASIZE DUP3 MSTORE RETURNDATASIZE PUSH0 PUSH1 0x20 DUP5 ADD RETURNDATACOPY PUSH2 0x50D JUMP JUMPDEST PUSH1 0x60 SWAP2 POP JUMPDEST POP POP SWAP1 POP DUP1 PUSH2 0x551 JUMPI PUSH1 0x40 MLOAD PUSH32 0x8C379A000000000000000000000000000000000000000000000000000000000 DUP2 MSTORE PUSH1 0x4 ADD PUSH2 0x548 SWAP1 PUSH2 0xACD JUMP JUMPDEST PUSH1 0x40 MLOAD DUP1 SWAP2 SUB SWAP1 REVERT JUMPDEST POP JUMP JUMPDEST PUSH1 0x2 PUSH1 0x20 MSTORE DUP1 PUSH0 MSTORE PUSH1 0x40 PUSH0 KECCAK256 PUSH0 SWAP2 POP SWAP1 POP SLOAD DUP2 JUMP JUMPDEST PUSH0 PUSH2 0x572 PUSH2 0x675 JUMP JUMPDEST SWAP1 POP SWAP1 JUMP JUMPDEST PUSH8 0x8AC7230489E80000 DUP2 JUMP JUMPDEST PUSH0 DUP1 PUSH1 0x1 SWAP1 POP PUSH2 0x592 DUP2 PUSH2 0x63D JUMP JUMPDEST SWAP2 POP POP SWAP1 JUMP JUMPDEST PUSH32 0x0 DUP2 JUMP JUMPDEST PUSH1 0x1 DUP2 DUP2 SLOAD DUP2 LT PUSH2 0x5CB JUMPI PUSH0 DUP1 REVERT JUMPDEST SWAP1 PUSH0 MSTORE PUSH1 0x20 PUSH0 KECCAK256 ADD PUSH0 SWAP2 POP SLOAD SWAP1 PUSH2 0x100 EXP SWAP1 DIV PUSH20 0xFFFFFFFFFFFFFFFFFFFFFFFFFFFFFFFFFFFFFFFF AND DUP2 JUMP JUMPDEST PUSH0 PUSH1 0x2 PUSH0 DUP4 PUSH20 0xFFFFFFFFFFFFFFFFFFFFFFFFFFFFFFFFFFFFFFFF AND PUSH20 0xFFFFFFFFFFFFFFFFFFFFFFFFFFFFFFFFFFFFFFFF AND DUP2 MSTORE PUSH1 0x20 ADD SWAP1 DUP2 MSTORE PUSH1 0x20 ADD PUSH0 KECCAK256 SLOAD SWAP1 POP SWAP2 SWAP1 POP JUMP JUMPDEST PUSH0 DUP1 PUSH2 0x647 PUSH2 0x675 JUMP JUMPDEST SWAP1 POP PUSH0 PUSH8 0xDE0B6B3A7640000 DUP3 DUP6 PUSH2 0x65F SWAP2 SWAP1 PUSH2 0xAEB JUMP JUMPDEST PUSH2 0x669 SWAP2 SWAP1 PUSH2 0xB59 JUMP JUMPDEST SWAP1 POP DUP1 SWAP3 POP POP POP SWAP2 SWAP1 POP JUMP JUMPDEST PUSH0 DUP1 PUSH20 0x1D142A62E2E98474093545D4A3A0F7DB9503B8BD PUSH20 0xFFFFFFFFFFFFFFFFFFFFFFFFFFFFFFFFFFFFFFFF AND PUSH4 0xFEAF968C PUSH1 0x40 MLOAD DUP2 PUSH4 0xFFFFFFFF AND PUSH1 0xE0 SHL DUP2 MSTORE PUSH1 0x4 ADD PUSH1 0x20 PUSH1 0x40 MLOAD DUP1 DUP4 SUB DUP2 DUP7 GAS STATICCALL ISZERO DUP1 ISZERO PUSH2 0x6D4 JUMPI RETURNDATASIZE PUSH0 DUP1 RETURNDATACOPY RETURNDATASIZE PUSH0 REVERT JUMPDEST POP POP POP POP PUSH1 0x40 MLOAD RETURNDATASIZE PUSH1 0x1F NOT PUSH1 0x1F DUP3 ADD AND DUP3 ADD DUP1 PUSH1 0x40 MSTORE POP DUP2 ADD SWAP1 PUSH2 0x6F8 SWAP2 SWAP1 PUSH2 0xBBC JUMP JUMPDEST SWAP1 POP PUSH5 0x2540BE400 DUP2 PUSH2 0x70B SWAP2 SWAP1 PUSH2 0xBE7 JUMP JUMPDEST SWAP2 POP POP SWAP1 JUMP JUMPDEST DUP3 DUP1 SLOAD DUP3 DUP3 SSTORE SWAP1 PUSH0 MSTORE PUSH1 0x20 PUSH0 KECCAK256 SWAP1 DUP2 ADD SWAP3 DUP3 ISZERO PUSH2 0x787 JUMPI SWAP2 PUSH1 0x20 MUL DUP3 ADD JUMPDEST DUP3 DUP2 GT ISZERO PUSH2 0x786 JUMPI DUP3 MLOAD DUP3 PUSH0 PUSH2 0x100 EXP DUP2 SLOAD DUP2 PUSH20 0xFFFFFFFFFFFFFFFFFFFFFFFFFFFFFFFFFFFFFFFF MUL NOT AND SWAP1 DUP4 PUSH20 0xFFFFFFFFFFFFFFFFFFFFFFFFFFFFFFFFFFFFFFFF AND MUL OR SWAP1 SSTORE POP SWAP2 PUSH1 0x20 ADD SWAP2 SWAP1 PUSH1 0x1 ADD SWAP1 PUSH2 0x72F JUMP JUMPDEST JUMPDEST POP SWAP1 POP PUSH2 0x794 SWAP2 SWAP1 PUSH2 0x798 JUMP JUMPDEST POP SWAP1 JUMP JUMPDEST JUMPDEST DUP1 DUP3 GT ISZERO PUSH2 0x7AF JUMPI PUSH0 DUP2 PUSH0 SWAP1 SSTORE POP PUSH1 0x1 ADD PUSH2 0x799 JUMP JUMPDEST POP SWAP1 JUMP JUMPDEST PUSH0 DUP1 REVERT JUMPDEST PUSH0 PUSH20 0xFFFFFFFFFFFFFFFFFFFFFFFFFFFFFFFFFFFFFFFF DUP3 AND SWAP1 POP SWAP2 SWAP1 POP JUMP JUMPDEST PUSH0 PUSH2 0x7E0 DUP3 PUSH2 0x7B7 JUMP JUMPDEST SWAP1 POP SWAP2 SWAP1 POP JUMP JUMPDEST PUSH2 0x7F0 DUP2 PUSH2 0x7D6 JUMP JUMPDEST DUP2 EQ PUSH2 0x7FA JUMPI PUSH0 DUP1 REVERT JUMPDEST POP JUMP JUMPDEST PUSH0 DUP2 CALLDATALOAD SWAP1 POP PUSH2 0x80B DUP2 PUSH2 0x7E7 JUMP JUMPDEST SWAP3 SWAP2 POP POP JUMP JUMPDEST PUSH0 PUSH1 0x20 DUP3 DUP5 SUB SLT ISZERO PUSH2 0x826 JUMPI PUSH2 0x825 PUSH2 0x7B3 JUMP JUMPDEST JUMPDEST PUSH0 PUSH2 0x833 DUP5 DUP3 DUP6 ADD PUSH2 0x7FD JUMP JUMPDEST SWAP2 POP POP SWAP3 SWAP2 POP POP JUMP JUMPDEST PUSH0 DUP2 SWAP1 POP SWAP2 SWAP1 POP JUMP JUMPDEST PUSH2 0x84E DUP2 PUSH2 0x83C JUMP JUMPDEST DUP3 MSTORE POP POP JUMP JUMPDEST PUSH0 PUSH1 0x20 DUP3 ADD SWAP1 POP PUSH2 0x867 PUSH0 DUP4 ADD DUP5 PUSH2 0x845 JUMP JUMPDEST SWAP3 SWAP2 POP POP JUMP JUMPDEST PUSH2 0x876 DUP2 PUSH2 0x7D6 JUMP JUMPDEST DUP3 MSTORE POP POP JUMP JUMPDEST PUSH0 PUSH1 0x20 DUP3 ADD SWAP1 POP PUSH2 0x88F PUSH0 DUP4 ADD DUP5 PUSH2 0x86D JUMP JUMPDEST SWAP3 SWAP2 POP POP JUMP JUMPDEST PUSH2 0x89E DUP2 PUSH2 0x83C JUMP JUMPDEST DUP2 EQ PUSH2 0x8A8 JUMPI PUSH0 DUP1 REVERT JUMPDEST POP JUMP JUMPDEST PUSH0 DUP2 CALLDATALOAD SWAP1 POP PUSH2 0x8B9 DUP2 PUSH2 0x895 JUMP JUMPDEST SWAP3 SWAP2 POP POP JUMP JUMPDEST PUSH0 PUSH1 0x20 DUP3 DUP5 SUB SLT ISZERO PUSH2 0x8D4 JUMPI PUSH2 0x8D3 PUSH2 0x7B3 JUMP JUMPDEST JUMPDEST PUSH0 PUSH2 0x8E1 DUP5 DUP3 DUP6 ADD PUSH2 0x8AB JUMP JUMPDEST SWAP2 POP POP SWAP3 SWAP2 POP POP JUMP JUMPDEST PUSH0 DUP3 DUP3 MSTORE PUSH1 0x20 DUP3 ADD SWAP1 POP SWAP3 SWAP2 POP POP JUMP JUMPDEST PUSH32 0x596F75206E65656420746F2073656E64206174206C6561737420313020555344 PUSH0 DUP3 ADD MSTORE PUSH32 0x20776F727468206F662045746865722100000000000000000000000000000000 PUSH1 0x20 DUP3 ADD MSTORE POP JUMP JUMPDEST PUSH0 PUSH2 0x954 PUSH1 0x30 DUP4 PUSH2 0x8EA JUMP JUMPDEST SWAP2 POP PUSH2 0x95F DUP3 PUSH2 0x8FA JUMP JUMPDEST PUSH1 0x40 DUP3 ADD SWAP1 POP SWAP2 SWAP1 POP JUMP JUMPDEST PUSH0 PUSH1 0x20 DUP3 ADD SWAP1 POP DUP2 DUP2 SUB PUSH0 DUP4 ADD MSTORE PUSH2 0x981 DUP2 PUSH2 0x948 JUMP JUMPDEST SWAP1 POP SWAP2 SWAP1 POP JUMP JUMPDEST PUSH32 0x4E487B7100000000000000000000000000000000000000000000000000000000 PUSH0 MSTORE PUSH1 0x11 PUSH1 0x4 MSTORE PUSH1 0x24 PUSH0 REVERT JUMPDEST PUSH0 PUSH2 0x9BF DUP3 PUSH2 0x83C JUMP JUMPDEST SWAP2 POP PUSH2 0x9CA DUP4 PUSH2 0x83C JUMP JUMPDEST SWAP3 POP DUP3 DUP3 ADD SWAP1 POP DUP1 DUP3 GT ISZERO PUSH2 0x9E2 JUMPI PUSH2 0x9E1 PUSH2 0x988 JUMP JUMPDEST JUMPDEST SWAP3 SWAP2 POP POP JUMP JUMPDEST PUSH32 0x4E487B7100000000000000000000000000000000000000000000000000000000 PUSH0 MSTORE PUSH1 0x32 PUSH1 0x4 MSTORE PUSH1 0x24 PUSH0 REVERT JUMPDEST PUSH32 0x4E487B7100000000000000000000000000000000000000000000000000000000 PUSH0 MSTORE PUSH1 0x41 PUSH1 0x4 MSTORE PUSH1 0x24 PUSH0 REVERT JUMPDEST PUSH0 DUP2 SWAP1 POP SWAP3 SWAP2 POP POP JUMP JUMPDEST POP JUMP JUMPDEST PUSH0 PUSH2 0xA5A PUSH0 DUP4 PUSH2 0xA42 JUMP JUMPDEST SWAP2 POP PUSH2 0xA65 DUP3 PUSH2 0xA4C JUMP JUMPDEST PUSH0 DUP3 ADD SWAP1 POP SWAP2 SWAP1 POP JUMP JUMPDEST PUSH0 PUSH2 0xA79 DUP3 PUSH2 0xA4F JUMP JUMPDEST SWAP2 POP DUP2 SWAP1 POP SWAP2 SWAP1 POP JUMP JUMPDEST PUSH32 0x43616C6C206661696C6564000000000000000000000000000000000000000000 PUSH0 DUP3 ADD MSTORE POP JUMP JUMPDEST PUSH0 PUSH2 0xAB7 PUSH1 0xB DUP4 PUSH2 0x8EA JUMP JUMPDEST SWAP2 POP PUSH2 0xAC2 DUP3 PUSH2 0xA83 JUMP JUMPDEST PUSH1 0x20 DUP3 ADD SWAP1 POP SWAP2 SWAP1 POP JUMP JUMPDEST PUSH0 PUSH1 0x20 DUP3 ADD SWAP1 POP DUP2 DUP2 SUB PUSH0 DUP4 ADD MSTORE PUSH2 0xAE4 DUP2 PUSH2 0xAAB JUMP JUMPDEST SWAP1 POP SWAP2 SWAP1 POP JUMP JUMPDEST PUSH0 PUSH2 0xAF5 DUP3 PUSH2 0x83C JUMP JUMPDEST SWAP2 POP PUSH2 0xB00 DUP4 PUSH2 0x83C JUMP JUMPDEST SWAP3 POP DUP3 DUP3 MUL PUSH2 0xB0E DUP2 PUSH2 0x83C JUMP JUMPDEST SWAP2 POP DUP3 DUP3 DIV DUP5 EQ DUP4 ISZERO OR PUSH2 0xB25 JUMPI PUSH2 0xB24 PUSH2 0x988 JUMP JUMPDEST JUMPDEST POP SWAP3 SWAP2 POP POP JUMP JUMPDEST PUSH32 0x4E487B7100000000000000000000000000000000000000000000000000000000 PUSH0 MSTORE PUSH1 0x12 PUSH1 0x4 MSTORE PUSH1 0x24 PUSH0 REVERT JUMPDEST PUSH0 PUSH2 0xB63 DUP3 PUSH2 0x83C JUMP JUMPDEST SWAP2 POP PUSH2 0xB6E DUP4 PUSH2 0x83C JUMP JUMPDEST SWAP3 POP DUP3 PUSH2 0xB7E JUMPI PUSH2 0xB7D PUSH2 0xB2C JUMP JUMPDEST JUMPDEST DUP3 DUP3 DIV SWAP1 POP SWAP3 SWAP2 POP POP JUMP JUMPDEST PUSH0 DUP2 SWAP1 POP SWAP2 SWAP1 POP JUMP JUMPDEST PUSH2 0xB9B DUP2 PUSH2 0xB89 JUMP JUMPDEST DUP2 EQ PUSH2 0xBA5 JUMPI PUSH0 DUP1 REVERT JUMPDEST POP JUMP JUMPDEST PUSH0 DUP2 MLOAD SWAP1 POP PUSH2 0xBB6 DUP2 PUSH2 0xB92 JUMP JUMPDEST SWAP3 SWAP2 POP POP JUMP JUMPDEST PUSH0 PUSH1 0x20 DUP3 DUP5 SUB SLT ISZERO PUSH2 0xBD1 JUMPI PUSH2 0xBD0 PUSH2 0x7B3 JUMP JUMPDEST JUMPDEST PUSH0 PUSH2 0xBDE DUP5 DUP3 DUP6 ADD PUSH2 0xBA8 JUMP JUMPDEST SWAP2 POP POP SWAP3 SWAP2 POP POP JUMP JUMPDEST PUSH0 PUSH2 0xBF1 DUP3 PUSH2 0xB89 JUMP JUMPDEST SWAP2 POP PUSH2 0xBFC DUP4 PUSH2 0xB89 JUMP JUMPDEST SWAP3 POP DUP3 DUP3 MUL PUSH2 0xC0A DUP2 PUSH2 0xB89 JUMP JUMPDEST SWAP2 POP PUSH32 0x8000000000000000000000000000000000000000000000000000000000000000 DUP5 EQ PUSH0 DUP5 SLT AND ISZERO PUSH2 0xC41 JUMPI PUSH2 0xC40 PUSH2 0x988 JUMP JUMPDEST JUMPDEST DUP3 DUP3 SDIV DUP5 EQ DUP4 ISZERO OR PUSH2 0xC56 JUMPI PUSH2 0xC55 PUSH2 0x988 JUMP JUMPDEST JUMPDEST POP SWAP3 SWAP2 POP POP JUMP INVALID LOG2 PUSH5 0x6970667358 0x22 SLT KECCAK256 0x21 SWAP12 0xCD 0xEE 0xDA 0xD5 PUSH28 0x78AF70AFF6B63B72F84B77B886E9B7E06358F64B0AB9CD092B64736F PUSH13 0x634300081A0033000000000000 "
				},
				"gasEstimates": {
					"creation": {
						"codeDepositCost": "643800",
						"executionCost": "infinite",
						"totalCost": "infinite"
					},
					"external": {
						"": "infinite",
						"MINIMUM_USD_TO_SEND()": "392",
						"fund()": "infinite",
						"funders(uint256)": "5010",
						"fundersFundings(address)": "2825",
						"getEthAmountUsd()": "infinite",
						"getFundingDetails(address)": "2917",
						"getPrice()": "infinite",
						"i_owner()": "infinite",
						"withdraw()": "infinite"
					}
				},
				"methodIdentifiers": {
					"MINIMUM_USD_TO_SEND()": "ac47a8b7",
					"fund()": "b60d4288",
					"funders(uint256)": "dc0d3dff",
					"fundersFundings(address)": "4452d405",
					"getEthAmountUsd()": "c9b90f2c",
					"getFundingDetails(address)": "ff126197",
					"getPrice()": "98d5fdca",
					"i_owner()": "dba6335f",
					"withdraw()": "3ccfd60b"
				}
			},
			"storageLayout": {
				"storage": [
					{
						"astId": 15,
						"contract": "contracts/FundMe/contracts/FundeMe.sol:FundMe",
						"label": "result",
						"offset": 0,
						"slot": "0",
						"type": "t_uint256"
					},
					{
						"astId": 18,
						"contract": "contracts/FundMe/contracts/FundeMe.sol:FundMe",
						"label": "funders",
						"offset": 0,
						"slot": "1",
						"type": "t_array(t_address)dyn_storage"
					},
					{
						"astId": 22,
						"contract": "contracts/FundMe/contracts/FundeMe.sol:FundMe",
						"label": "fundersFundings",
						"offset": 0,
						"slot": "2",
						"type": "t_mapping(t_address,t_uint256)"
					}
				],
				"types": {
					"t_address": {
						"encoding": "inplace",
						"label": "address",
						"numberOfBytes": "20"
					},
					"t_array(t_address)dyn_storage": {
						"base": "t_address",
						"encoding": "dynamic_array",
						"label": "address[]",
						"numberOfBytes": "32"
					},
					"t_mapping(t_address,t_uint256)": {
						"encoding": "mapping",
						"key": "t_address",
						"label": "mapping(address => uint256)",
						"numberOfBytes": "32",
						"value": "t_uint256"
					},
					"t_uint256": {
						"encoding": "inplace",
						"label": "uint256",
						"numberOfBytes": "32"
					}
				}
			},
			"userdoc": {
				"kind": "user",
				"methods": {},
				"version": 1
			}
		}
	}
}