{
	"Simple_Storage/simpleStorage.sol": {
		"simpleStorage": {
			"abi": [
				{
					"inputs": [],
					"name": "getTokenHolders",
					"outputs": [
						{
							"components": [
								{
									"internalType": "string",
									"name": "name",
									"type": "string"
								},
								{
									"internalType": "uint256",
									"name": "token",
									"type": "uint256"
								}
							],
							"internalType": "struct simpleStorage.tokenHolder[]",
							"name": "",
							"type": "tuple[]"
						}
					],
					"stateMutability": "view",
					"type": "function"
				},
				{
					"inputs": [
						{
							"internalType": "string",
							"name": "_name",
							"type": "string"
						}
					],
					"name": "getTokens",
					"outputs": [
						{
							"internalType": "uint256",
							"name": "",
							"type": "uint256"
						}
					],
					"stateMutability": "view",
					"type": "function"
				},
				{
					"inputs": [
						{
							"internalType": "string",
							"name": "",
							"type": "string"
						}
					],
					"name": "holderMapTokenCounts",
					"outputs": [
						{
							"internalType": "uint256",
							"name": "",
							"type": "uint256"
						}
					],
					"stateMutability": "view",
					"type": "function"
				},
				{
					"inputs": [
						{
							"internalType": "uint256",
							"name": "",
							"type": "uint256"
						}
					],
					"name": "holders",
					"outputs": [
						{
							"internalType": "string",
							"name": "name",
							"type": "string"
						},
						{
							"internalType": "uint256",
							"name": "token",
							"type": "uint256"
						}
					],
					"stateMutability": "view",
					"type": "function"
				},
				{
					"inputs": [
						{
							"internalType": "uint256",
							"name": "_token",
							"type": "uint256"
						},
						{
							"internalType": "string",
							"name": "_name",
							"type": "string"
						}
					],
					"name": "setToken",
					"outputs": [],
					"stateMutability": "nonpayable",
					"type": "function"
				}
			],
			"devdoc": {
				"kind": "dev",
				"methods": {},
				"version": 1
			},
			"evm": {
				"assembly": "    /* \"Simple_Storage/simpleStorage.sol\":59:667  contract simpleStorage {... */\n  mstore(0x40, 0x80)\n  callvalue\n  dup1\n  iszero\n  tag_1\n  jumpi\n  0x00\n  dup1\n  revert\ntag_1:\n  pop\n  dataSize(sub_0)\n  dup1\n  dataOffset(sub_0)\n  0x00\n  codecopy\n  0x00\n  return\nstop\n\nsub_0: assembly {\n        /* \"Simple_Storage/simpleStorage.sol\":59:667  contract simpleStorage {... */\n      mstore(0x40, 0x80)\n      callvalue\n      dup1\n      iszero\n      tag_1\n      jumpi\n      0x00\n      dup1\n      revert\n    tag_1:\n      pop\n      jumpi(tag_2, lt(calldatasize, 0x04))\n      shr(0xe0, calldataload(0x00))\n      dup1\n      0x2a11ced0\n      eq\n      tag_3\n      jumpi\n      dup1\n      0x6131bdab\n      eq\n      tag_4\n      jumpi\n      dup1\n      0x7480f4b1\n      eq\n      tag_5\n      jumpi\n      dup1\n      0x876b1566\n      eq\n      tag_6\n      jumpi\n      dup1\n      0xa65dd261\n      eq\n      tag_7\n      jumpi\n    tag_2:\n      0x00\n      dup1\n      revert\n        /* \"Simple_Storage/simpleStorage.sol\":165:194  tokenHolder[] public  holders */\n    tag_3:\n      tag_8\n      0x04\n      dup1\n      calldatasize\n      sub\n      dup2\n      add\n      swap1\n      tag_9\n      swap2\n      swap1\n      tag_10\n      jump\t// in\n    tag_9:\n      tag_11\n      jump\t// in\n    tag_8:\n      mload(0x40)\n      tag_12\n      swap3\n      swap2\n      swap1\n      tag_13\n      jump\t// in\n    tag_12:\n      mload(0x40)\n      dup1\n      swap2\n      sub\n      swap1\n      return\n        /* \"Simple_Storage/simpleStorage.sol\":261:427  function setToken(uint256 _token , string memory _name) public {... */\n    tag_4:\n      tag_14\n      0x04\n      dup1\n      calldatasize\n      sub\n      dup2\n      add\n      swap1\n      tag_15\n      swap2\n      swap1\n      tag_16\n      jump\t// in\n    tag_15:\n      tag_17\n      jump\t// in\n    tag_14:\n      stop\n        /* \"Simple_Storage/simpleStorage.sol\":200:254  mapping(string => uint256) public holderMapTokenCounts */\n    tag_5:\n      tag_18\n      0x04\n      dup1\n      calldatasize\n      sub\n      dup2\n      add\n      swap1\n      tag_19\n      swap2\n      swap1\n      tag_20\n      jump\t// in\n    tag_19:\n      tag_21\n      jump\t// in\n    tag_18:\n      mload(0x40)\n      tag_22\n      swap2\n      swap1\n      tag_23\n      jump\t// in\n    tag_22:\n      mload(0x40)\n      dup1\n      swap2\n      sub\n      swap1\n      return\n        /* \"Simple_Storage/simpleStorage.sol\":433:532  function getTokenHolders() public view returns(tokenHolder[] memory){... */\n    tag_6:\n      tag_24\n      tag_25\n      jump\t// in\n    tag_24:\n      mload(0x40)\n      tag_26\n      swap2\n      swap1\n      tag_27\n      jump\t// in\n    tag_26:\n      mload(0x40)\n      dup1\n      swap2\n      sub\n      swap1\n      return\n        /* \"Simple_Storage/simpleStorage.sol\":538:657  function getTokens(string memory _name) public view returns(uint256){... */\n    tag_7:\n      tag_28\n      0x04\n      dup1\n      calldatasize\n      sub\n      dup2\n      add\n      swap1\n      tag_29\n      swap2\n      swap1\n      tag_20\n      jump\t// in\n    tag_29:\n      tag_30\n      jump\t// in\n    tag_28:\n      mload(0x40)\n      tag_31\n      swap2\n      swap1\n      tag_23\n      jump\t// in\n    tag_31:\n      mload(0x40)\n      dup1\n      swap2\n      sub\n      swap1\n      return\n        /* \"Simple_Storage/simpleStorage.sol\":165:194  tokenHolder[] public  holders */\n    tag_11:\n      0x00\n      dup2\n      dup2\n      sload\n      dup2\n      lt\n      tag_32\n      jumpi\n      0x00\n      dup1\n      revert\n    tag_32:\n      swap1\n      0x00\n      mstore\n      keccak256(0x00, 0x20)\n      swap1\n      0x02\n      mul\n      add\n      0x00\n      swap2\n      pop\n      swap1\n      pop\n      dup1\n      0x00\n      add\n      dup1\n      sload\n      tag_34\n      swap1\n      tag_35\n      jump\t// in\n    tag_34:\n      dup1\n      0x1f\n      add\n      0x20\n      dup1\n      swap2\n      div\n      mul\n      0x20\n      add\n      mload(0x40)\n      swap1\n      dup2\n      add\n      0x40\n      mstore\n      dup1\n      swap3\n      swap2\n      swap1\n      dup2\n      dup2\n      mstore\n      0x20\n      add\n      dup3\n      dup1\n      sload\n      tag_36\n      swap1\n      tag_35\n      jump\t// in\n    tag_36:\n      dup1\n      iszero\n      tag_37\n      jumpi\n      dup1\n      0x1f\n      lt\n      tag_38\n      jumpi\n      0x0100\n      dup1\n      dup4\n      sload\n      div\n      mul\n      dup4\n      mstore\n      swap2\n      0x20\n      add\n      swap2\n      jump(tag_37)\n    tag_38:\n      dup3\n      add\n      swap2\n      swap1\n      0x00\n      mstore\n      keccak256(0x00, 0x20)\n      swap1\n    tag_39:\n      dup2\n      sload\n      dup2\n      mstore\n      swap1\n      0x01\n      add\n      swap1\n      0x20\n      add\n      dup1\n      dup4\n      gt\n      tag_39\n      jumpi\n      dup3\n      swap1\n      sub\n      0x1f\n      and\n      dup3\n      add\n      swap2\n    tag_37:\n      pop\n      pop\n      pop\n      pop\n      pop\n      swap1\n      dup1\n      0x01\n      add\n      sload\n      swap1\n      pop\n      dup3\n      jump\t// out\n        /* \"Simple_Storage/simpleStorage.sol\":261:427  function setToken(uint256 _token , string memory _name) public {... */\n    tag_17:\n        /* \"Simple_Storage/simpleStorage.sol\":334:341  holders */\n      0x00\n        /* \"Simple_Storage/simpleStorage.sol\":347:373  tokenHolder(_name, _token) */\n      mload(0x40)\n      dup1\n      0x40\n      add\n      0x40\n      mstore\n      dup1\n        /* \"Simple_Storage/simpleStorage.sol\":359:364  _name */\n      dup4\n        /* \"Simple_Storage/simpleStorage.sol\":347:373  tokenHolder(_name, _token) */\n      dup2\n      mstore\n      0x20\n      add\n        /* \"Simple_Storage/simpleStorage.sol\":366:372  _token */\n      dup5\n        /* \"Simple_Storage/simpleStorage.sol\":347:373  tokenHolder(_name, _token) */\n      dup2\n      mstore\n      pop\n        /* \"Simple_Storage/simpleStorage.sol\":334:374  holders.push(tokenHolder(_name, _token)) */\n      swap1\n      dup1\n      0x01\n      dup2\n      sload\n      add\n      dup1\n      dup3\n      sstore\n      dup1\n      swap2\n      pop\n      pop\n      0x01\n      swap1\n      sub\n      swap1\n      0x00\n      mstore\n      keccak256(0x00, 0x20)\n      swap1\n      0x02\n      mul\n      add\n      0x00\n      swap1\n      swap2\n      swap1\n      swap2\n      swap1\n      swap2\n      pop\n      0x00\n      dup3\n      add\n      mload\n      dup2\n      0x00\n      add\n      swap1\n      dup2\n      tag_42\n      swap2\n      swap1\n      tag_43\n      jump\t// in\n    tag_42:\n      pop\n      0x20\n      dup3\n      add\n      mload\n      dup2\n      0x01\n      add\n      sstore\n      pop\n      pop\n        /* \"Simple_Storage/simpleStorage.sol\":414:420  _token */\n      dup2\n        /* \"Simple_Storage/simpleStorage.sol\":384:404  holderMapTokenCounts */\n      0x01\n        /* \"Simple_Storage/simpleStorage.sol\":405:410  _name */\n      dup3\n        /* \"Simple_Storage/simpleStorage.sol\":384:411  holderMapTokenCounts[_name] */\n      mload(0x40)\n      tag_44\n      swap2\n      swap1\n      tag_45\n      jump\t// in\n    tag_44:\n      swap1\n      dup2\n      mstore\n      0x20\n      add\n      mload(0x40)\n      dup1\n      swap2\n      sub\n      swap1\n      keccak256\n        /* \"Simple_Storage/simpleStorage.sol\":384:420  holderMapTokenCounts[_name] = _token */\n      dup2\n      swap1\n      sstore\n      pop\n        /* \"Simple_Storage/simpleStorage.sol\":261:427  function setToken(uint256 _token , string memory _name) public {... */\n      pop\n      pop\n      jump\t// out\n        /* \"Simple_Storage/simpleStorage.sol\":200:254  mapping(string => uint256) public holderMapTokenCounts */\n    tag_21:\n      0x01\n      dup2\n      dup1\n      mload\n      0x20\n      dup2\n      add\n      dup3\n      add\n      dup1\n      mload\n      dup5\n      dup3\n      mstore\n      0x20\n      dup4\n      add\n      0x20\n      dup6\n      add\n      keccak256\n      dup2\n      dup4\n      mstore\n      dup1\n      swap6\n      pop\n      pop\n      pop\n      pop\n      pop\n      pop\n      0x00\n      swap2\n      pop\n      swap1\n      pop\n      sload\n      dup2\n      jump\t// out\n        /* \"Simple_Storage/simpleStorage.sol\":433:532  function getTokenHolders() public view returns(tokenHolder[] memory){... */\n    tag_25:\n        /* \"Simple_Storage/simpleStorage.sol\":480:500  tokenHolder[] memory */\n      0x60\n        /* \"Simple_Storage/simpleStorage.sol\":518:525  holders */\n      0x00\n        /* \"Simple_Storage/simpleStorage.sol\":511:525  return holders */\n      dup1\n      sload\n      dup1\n      0x20\n      mul\n      0x20\n      add\n      mload(0x40)\n      swap1\n      dup2\n      add\n      0x40\n      mstore\n      dup1\n      swap3\n      swap2\n      swap1\n      dup2\n      dup2\n      mstore\n      0x20\n      add\n      0x00\n      swap1\n    tag_47:\n      dup3\n      dup3\n      lt\n      iszero\n      tag_48\n      jumpi\n      dup4\n      dup3\n      swap1\n      0x00\n      mstore\n      keccak256(0x00, 0x20)\n      swap1\n      0x02\n      mul\n      add\n      mload(0x40)\n      dup1\n      0x40\n      add\n      0x40\n      mstore\n      swap1\n      dup2\n      0x00\n      dup3\n      add\n      dup1\n      sload\n      tag_50\n      swap1\n      tag_35\n      jump\t// in\n    tag_50:\n      dup1\n      0x1f\n      add\n      0x20\n      dup1\n      swap2\n      div\n      mul\n      0x20\n      add\n      mload(0x40)\n      swap1\n      dup2\n      add\n      0x40\n      mstore\n      dup1\n      swap3\n      swap2\n      swap1\n      dup2\n      dup2\n      mstore\n      0x20\n      add\n      dup3\n      dup1\n      sload\n      tag_51\n      swap1\n      tag_35\n      jump\t// in\n    tag_51:\n      dup1\n      iszero\n      tag_52\n      jumpi\n      dup1\n      0x1f\n      lt\n      tag_53\n      jumpi\n      0x0100\n      dup1\n      dup4\n      sload\n      div\n      mul\n      dup4\n      mstore\n      swap2\n      0x20\n      add\n      swap2\n      jump(tag_52)\n    tag_53:\n      dup3\n      add\n      swap2\n      swap1\n      0x00\n      mstore\n      keccak256(0x00, 0x20)\n      swap1\n    tag_54:\n      dup2\n      sload\n      dup2\n      mstore\n      swap1\n      0x01\n      add\n      swap1\n      0x20\n      add\n      dup1\n      dup4\n      gt\n      tag_54\n      jumpi\n      dup3\n      swap1\n      sub\n      0x1f\n      and\n      dup3\n      add\n      swap2\n    tag_52:\n      pop\n      pop\n      pop\n      pop\n      pop\n      dup2\n      mstore\n      0x20\n      add\n      0x01\n      dup3\n      add\n      sload\n      dup2\n      mstore\n      pop\n      pop\n      dup2\n      mstore\n      0x20\n      add\n      swap1\n      0x01\n      add\n      swap1\n      jump(tag_47)\n    tag_48:\n      pop\n      pop\n      pop\n      pop\n      swap1\n      pop\n        /* \"Simple_Storage/simpleStorage.sol\":433:532  function getTokenHolders() public view returns(tokenHolder[] memory){... */\n      swap1\n      jump\t// out\n        /* \"Simple_Storage/simpleStorage.sol\":538:657  function getTokens(string memory _name) public view returns(uint256){... */\n    tag_30:\n        /* \"Simple_Storage/simpleStorage.sol\":598:605  uint256 */\n      0x00\n        /* \"Simple_Storage/simpleStorage.sol\":623:643  holderMapTokenCounts */\n      0x01\n        /* \"Simple_Storage/simpleStorage.sol\":644:649  _name */\n      dup3\n        /* \"Simple_Storage/simpleStorage.sol\":623:650  holderMapTokenCounts[_name] */\n      mload(0x40)\n      tag_56\n      swap2\n      swap1\n      tag_45\n      jump\t// in\n    tag_56:\n      swap1\n      dup2\n      mstore\n      0x20\n      add\n      mload(0x40)\n      dup1\n      swap2\n      sub\n      swap1\n      keccak256\n      sload\n        /* \"Simple_Storage/simpleStorage.sol\":616:650  return holderMapTokenCounts[_name] */\n      swap1\n      pop\n        /* \"Simple_Storage/simpleStorage.sol\":538:657  function getTokens(string memory _name) public view returns(uint256){... */\n      swap2\n      swap1\n      pop\n      jump\t// out\n        /* \"#utility.yul\":7:82   */\n    tag_57:\n        /* \"#utility.yul\":40:46   */\n      0x00\n        /* \"#utility.yul\":73:75   */\n      0x40\n        /* \"#utility.yul\":67:76   */\n      mload\n        /* \"#utility.yul\":57:76   */\n      swap1\n      pop\n        /* \"#utility.yul\":7:82   */\n      swap1\n      jump\t// out\n        /* \"#utility.yul\":88:205   */\n    tag_58:\n        /* \"#utility.yul\":197:198   */\n      0x00\n        /* \"#utility.yul\":194:195   */\n      dup1\n        /* \"#utility.yul\":187:199   */\n      revert\n        /* \"#utility.yul\":211:328   */\n    tag_59:\n        /* \"#utility.yul\":320:321   */\n      0x00\n        /* \"#utility.yul\":317:318   */\n      dup1\n        /* \"#utility.yul\":310:322   */\n      revert\n        /* \"#utility.yul\":334:411   */\n    tag_60:\n        /* \"#utility.yul\":371:378   */\n      0x00\n        /* \"#utility.yul\":400:405   */\n      dup2\n        /* \"#utility.yul\":389:405   */\n      swap1\n      pop\n        /* \"#utility.yul\":334:411   */\n      swap2\n      swap1\n      pop\n      jump\t// out\n        /* \"#utility.yul\":417:539   */\n    tag_61:\n        /* \"#utility.yul\":490:514   */\n      tag_112\n        /* \"#utility.yul\":508:513   */\n      dup2\n        /* \"#utility.yul\":490:514   */\n      tag_60\n      jump\t// in\n    tag_112:\n        /* \"#utility.yul\":483:488   */\n      dup2\n        /* \"#utility.yul\":480:515   */\n      eq\n        /* \"#utility.yul\":470:533   */\n      tag_113\n      jumpi\n        /* \"#utility.yul\":529:530   */\n      0x00\n        /* \"#utility.yul\":526:527   */\n      dup1\n        /* \"#utility.yul\":519:531   */\n      revert\n        /* \"#utility.yul\":470:533   */\n    tag_113:\n        /* \"#utility.yul\":417:539   */\n      pop\n      jump\t// out\n        /* \"#utility.yul\":545:684   */\n    tag_62:\n        /* \"#utility.yul\":591:596   */\n      0x00\n        /* \"#utility.yul\":629:635   */\n      dup2\n        /* \"#utility.yul\":616:636   */\n      calldataload\n        /* \"#utility.yul\":607:636   */\n      swap1\n      pop\n        /* \"#utility.yul\":645:678   */\n      tag_115\n        /* \"#utility.yul\":672:677   */\n      dup2\n        /* \"#utility.yul\":645:678   */\n      tag_61\n      jump\t// in\n    tag_115:\n        /* \"#utility.yul\":545:684   */\n      swap3\n      swap2\n      pop\n      pop\n      jump\t// out\n        /* \"#utility.yul\":690:1019   */\n    tag_10:\n        /* \"#utility.yul\":749:755   */\n      0x00\n        /* \"#utility.yul\":798:800   */\n      0x20\n        /* \"#utility.yul\":786:795   */\n      dup3\n        /* \"#utility.yul\":777:784   */\n      dup5\n        /* \"#utility.yul\":773:796   */\n      sub\n        /* \"#utility.yul\":769:801   */\n      slt\n        /* \"#utility.yul\":766:885   */\n      iszero\n      tag_117\n      jumpi\n        /* \"#utility.yul\":804:883   */\n      tag_118\n      tag_58\n      jump\t// in\n    tag_118:\n        /* \"#utility.yul\":766:885   */\n    tag_117:\n        /* \"#utility.yul\":924:925   */\n      0x00\n        /* \"#utility.yul\":949:1002   */\n      tag_119\n        /* \"#utility.yul\":994:1001   */\n      dup5\n        /* \"#utility.yul\":985:991   */\n      dup3\n        /* \"#utility.yul\":974:983   */\n      dup6\n        /* \"#utility.yul\":970:992   */\n      add\n        /* \"#utility.yul\":949:1002   */\n      tag_62\n      jump\t// in\n    tag_119:\n        /* \"#utility.yul\":939:1002   */\n      swap2\n      pop\n        /* \"#utility.yul\":895:1012   */\n      pop\n        /* \"#utility.yul\":690:1019   */\n      swap3\n      swap2\n      pop\n      pop\n      jump\t// out\n        /* \"#utility.yul\":1025:1124   */\n    tag_63:\n        /* \"#utility.yul\":1077:1083   */\n      0x00\n        /* \"#utility.yul\":1111:1116   */\n      dup2\n        /* \"#utility.yul\":1105:1117   */\n      mload\n        /* \"#utility.yul\":1095:1117   */\n      swap1\n      pop\n        /* \"#utility.yul\":1025:1124   */\n      swap2\n      swap1\n      pop\n      jump\t// out\n        /* \"#utility.yul\":1130:1299   */\n    tag_64:\n        /* \"#utility.yul\":1214:1225   */\n      0x00\n        /* \"#utility.yul\":1248:1254   */\n      dup3\n        /* \"#utility.yul\":1243:1246   */\n      dup3\n        /* \"#utility.yul\":1236:1255   */\n      mstore\n        /* \"#utility.yul\":1288:1292   */\n      0x20\n        /* \"#utility.yul\":1283:1286   */\n      dup3\n        /* \"#utility.yul\":1279:1293   */\n      add\n        /* \"#utility.yul\":1264:1293   */\n      swap1\n      pop\n        /* \"#utility.yul\":1130:1299   */\n      swap3\n      swap2\n      pop\n      pop\n      jump\t// out\n        /* \"#utility.yul\":1305:1444   */\n    tag_65:\n        /* \"#utility.yul\":1394:1400   */\n      dup3\n        /* \"#utility.yul\":1389:1392   */\n      dup2\n        /* \"#utility.yul\":1384:1387   */\n      dup4\n        /* \"#utility.yul\":1378:1401   */\n      mcopy\n        /* \"#utility.yul\":1435:1436   */\n      0x00\n        /* \"#utility.yul\":1426:1432   */\n      dup4\n        /* \"#utility.yul\":1421:1424   */\n      dup4\n        /* \"#utility.yul\":1417:1433   */\n      add\n        /* \"#utility.yul\":1410:1437   */\n      mstore\n        /* \"#utility.yul\":1305:1444   */\n      pop\n      pop\n      pop\n      jump\t// out\n        /* \"#utility.yul\":1450:1552   */\n    tag_66:\n        /* \"#utility.yul\":1491:1497   */\n      0x00\n        /* \"#utility.yul\":1542:1544   */\n      0x1f\n        /* \"#utility.yul\":1538:1545   */\n      not\n        /* \"#utility.yul\":1533:1535   */\n      0x1f\n        /* \"#utility.yul\":1526:1531   */\n      dup4\n        /* \"#utility.yul\":1522:1536   */\n      add\n        /* \"#utility.yul\":1518:1546   */\n      and\n        /* \"#utility.yul\":1508:1546   */\n      swap1\n      pop\n        /* \"#utility.yul\":1450:1552   */\n      swap2\n      swap1\n      pop\n      jump\t// out\n        /* \"#utility.yul\":1558:1935   */\n    tag_67:\n        /* \"#utility.yul\":1646:1649   */\n      0x00\n        /* \"#utility.yul\":1674:1713   */\n      tag_125\n        /* \"#utility.yul\":1707:1712   */\n      dup3\n        /* \"#utility.yul\":1674:1713   */\n      tag_63\n      jump\t// in\n    tag_125:\n        /* \"#utility.yul\":1729:1800   */\n      tag_126\n        /* \"#utility.yul\":1793:1799   */\n      dup2\n        /* \"#utility.yul\":1788:1791   */\n      dup6\n        /* \"#utility.yul\":1729:1800   */\n      tag_64\n      jump\t// in\n    tag_126:\n        /* \"#utility.yul\":1722:1800   */\n      swap4\n      pop\n        /* \"#utility.yul\":1809:1874   */\n      tag_127\n        /* \"#utility.yul\":1867:1873   */\n      dup2\n        /* \"#utility.yul\":1862:1865   */\n      dup6\n        /* \"#utility.yul\":1855:1859   */\n      0x20\n        /* \"#utility.yul\":1848:1853   */\n      dup7\n        /* \"#utility.yul\":1844:1860   */\n      add\n        /* \"#utility.yul\":1809:1874   */\n      tag_65\n      jump\t// in\n    tag_127:\n        /* \"#utility.yul\":1899:1928   */\n      tag_128\n        /* \"#utility.yul\":1921:1927   */\n      dup2\n        /* \"#utility.yul\":1899:1928   */\n      tag_66\n      jump\t// in\n    tag_128:\n        /* \"#utility.yul\":1894:1897   */\n      dup5\n        /* \"#utility.yul\":1890:1929   */\n      add\n        /* \"#utility.yul\":1883:1929   */\n      swap2\n      pop\n        /* \"#utility.yul\":1650:1935   */\n      pop\n        /* \"#utility.yul\":1558:1935   */\n      swap3\n      swap2\n      pop\n      pop\n      jump\t// out\n        /* \"#utility.yul\":1941:2059   */\n    tag_68:\n        /* \"#utility.yul\":2028:2052   */\n      tag_130\n        /* \"#utility.yul\":2046:2051   */\n      dup2\n        /* \"#utility.yul\":2028:2052   */\n      tag_60\n      jump\t// in\n    tag_130:\n        /* \"#utility.yul\":2023:2026   */\n      dup3\n        /* \"#utility.yul\":2016:2053   */\n      mstore\n        /* \"#utility.yul\":1941:2059   */\n      pop\n      pop\n      jump\t// out\n        /* \"#utility.yul\":2065:2488   */\n    tag_13:\n        /* \"#utility.yul\":2206:2210   */\n      0x00\n        /* \"#utility.yul\":2244:2246   */\n      0x40\n        /* \"#utility.yul\":2233:2242   */\n      dup3\n        /* \"#utility.yul\":2229:2247   */\n      add\n        /* \"#utility.yul\":2221:2247   */\n      swap1\n      pop\n        /* \"#utility.yul\":2293:2302   */\n      dup2\n        /* \"#utility.yul\":2287:2291   */\n      dup2\n        /* \"#utility.yul\":2283:2303   */\n      sub\n        /* \"#utility.yul\":2279:2280   */\n      0x00\n        /* \"#utility.yul\":2268:2277   */\n      dup4\n        /* \"#utility.yul\":2264:2281   */\n      add\n        /* \"#utility.yul\":2257:2304   */\n      mstore\n        /* \"#utility.yul\":2321:2399   */\n      tag_132\n        /* \"#utility.yul\":2394:2398   */\n      dup2\n        /* \"#utility.yul\":2385:2391   */\n      dup6\n        /* \"#utility.yul\":2321:2399   */\n      tag_67\n      jump\t// in\n    tag_132:\n        /* \"#utility.yul\":2313:2399   */\n      swap1\n      pop\n        /* \"#utility.yul\":2409:2481   */\n      tag_133\n        /* \"#utility.yul\":2477:2479   */\n      0x20\n        /* \"#utility.yul\":2466:2475   */\n      dup4\n        /* \"#utility.yul\":2462:2480   */\n      add\n        /* \"#utility.yul\":2453:2459   */\n      dup5\n        /* \"#utility.yul\":2409:2481   */\n      tag_68\n      jump\t// in\n    tag_133:\n        /* \"#utility.yul\":2065:2488   */\n      swap4\n      swap3\n      pop\n      pop\n      pop\n      jump\t// out\n        /* \"#utility.yul\":2494:2611   */\n    tag_69:\n        /* \"#utility.yul\":2603:2604   */\n      0x00\n        /* \"#utility.yul\":2600:2601   */\n      dup1\n        /* \"#utility.yul\":2593:2605   */\n      revert\n        /* \"#utility.yul\":2617:2734   */\n    tag_70:\n        /* \"#utility.yul\":2726:2727   */\n      0x00\n        /* \"#utility.yul\":2723:2724   */\n      dup1\n        /* \"#utility.yul\":2716:2728   */\n      revert\n        /* \"#utility.yul\":2740:2920   */\n    tag_71:\n        /* \"#utility.yul\":2788:2865   */\n      0x4e487b7100000000000000000000000000000000000000000000000000000000\n        /* \"#utility.yul\":2785:2786   */\n      0x00\n        /* \"#utility.yul\":2778:2866   */\n      mstore\n        /* \"#utility.yul\":2885:2889   */\n      0x41\n        /* \"#utility.yul\":2882:2883   */\n      0x04\n        /* \"#utility.yul\":2875:2890   */\n      mstore\n        /* \"#utility.yul\":2909:2913   */\n      0x24\n        /* \"#utility.yul\":2906:2907   */\n      0x00\n        /* \"#utility.yul\":2899:2914   */\n      revert\n        /* \"#utility.yul\":2926:3207   */\n    tag_72:\n        /* \"#utility.yul\":3009:3036   */\n      tag_138\n        /* \"#utility.yul\":3031:3035   */\n      dup3\n        /* \"#utility.yul\":3009:3036   */\n      tag_66\n      jump\t// in\n    tag_138:\n        /* \"#utility.yul\":3001:3007   */\n      dup2\n        /* \"#utility.yul\":2997:3037   */\n      add\n        /* \"#utility.yul\":3139:3145   */\n      dup2\n        /* \"#utility.yul\":3127:3137   */\n      dup2\n        /* \"#utility.yul\":3124:3146   */\n      lt\n        /* \"#utility.yul\":3103:3121   */\n      0xffffffffffffffff\n        /* \"#utility.yul\":3091:3101   */\n      dup3\n        /* \"#utility.yul\":3088:3122   */\n      gt\n        /* \"#utility.yul\":3085:3147   */\n      or\n        /* \"#utility.yul\":3082:3170   */\n      iszero\n      tag_139\n      jumpi\n        /* \"#utility.yul\":3150:3168   */\n      tag_140\n      tag_71\n      jump\t// in\n    tag_140:\n        /* \"#utility.yul\":3082:3170   */\n    tag_139:\n        /* \"#utility.yul\":3190:3200   */\n      dup1\n        /* \"#utility.yul\":3186:3188   */\n      0x40\n        /* \"#utility.yul\":3179:3201   */\n      mstore\n        /* \"#utility.yul\":2969:3207   */\n      pop\n        /* \"#utility.yul\":2926:3207   */\n      pop\n      pop\n      jump\t// out\n        /* \"#utility.yul\":3213:3342   */\n    tag_73:\n        /* \"#utility.yul\":3247:3253   */\n      0x00\n        /* \"#utility.yul\":3274:3294   */\n      tag_142\n      tag_57\n      jump\t// in\n    tag_142:\n        /* \"#utility.yul\":3264:3294   */\n      swap1\n      pop\n        /* \"#utility.yul\":3303:3336   */\n      tag_143\n        /* \"#utility.yul\":3331:3335   */\n      dup3\n        /* \"#utility.yul\":3323:3329   */\n      dup3\n        /* \"#utility.yul\":3303:3336   */\n      tag_72\n      jump\t// in\n    tag_143:\n        /* \"#utility.yul\":3213:3342   */\n      swap2\n      swap1\n      pop\n      jump\t// out\n        /* \"#utility.yul\":3348:3656   */\n    tag_74:\n        /* \"#utility.yul\":3410:3414   */\n      0x00\n        /* \"#utility.yul\":3500:3518   */\n      0xffffffffffffffff\n        /* \"#utility.yul\":3492:3498   */\n      dup3\n        /* \"#utility.yul\":3489:3519   */\n      gt\n        /* \"#utility.yul\":3486:3542   */\n      iszero\n      tag_145\n      jumpi\n        /* \"#utility.yul\":3522:3540   */\n      tag_146\n      tag_71\n      jump\t// in\n    tag_146:\n        /* \"#utility.yul\":3486:3542   */\n    tag_145:\n        /* \"#utility.yul\":3560:3589   */\n      tag_147\n        /* \"#utility.yul\":3582:3588   */\n      dup3\n        /* \"#utility.yul\":3560:3589   */\n      tag_66\n      jump\t// in\n    tag_147:\n        /* \"#utility.yul\":3552:3589   */\n      swap1\n      pop\n        /* \"#utility.yul\":3644:3648   */\n      0x20\n        /* \"#utility.yul\":3638:3642   */\n      dup2\n        /* \"#utility.yul\":3634:3649   */\n      add\n        /* \"#utility.yul\":3626:3649   */\n      swap1\n      pop\n        /* \"#utility.yul\":3348:3656   */\n      swap2\n      swap1\n      pop\n      jump\t// out\n        /* \"#utility.yul\":3662:3810   */\n    tag_75:\n        /* \"#utility.yul\":3760:3766   */\n      dup3\n        /* \"#utility.yul\":3755:3758   */\n      dup2\n        /* \"#utility.yul\":3750:3753   */\n      dup4\n        /* \"#utility.yul\":3737:3767   */\n      calldatacopy\n        /* \"#utility.yul\":3801:3802   */\n      0x00\n        /* \"#utility.yul\":3792:3798   */\n      dup4\n        /* \"#utility.yul\":3787:3790   */\n      dup4\n        /* \"#utility.yul\":3783:3799   */\n      add\n        /* \"#utility.yul\":3776:3803   */\n      mstore\n        /* \"#utility.yul\":3662:3810   */\n      pop\n      pop\n      pop\n      jump\t// out\n        /* \"#utility.yul\":3816:4241   */\n    tag_76:\n        /* \"#utility.yul\":3894:3899   */\n      0x00\n        /* \"#utility.yul\":3919:3985   */\n      tag_150\n        /* \"#utility.yul\":3935:3984   */\n      tag_151\n        /* \"#utility.yul\":3977:3983   */\n      dup5\n        /* \"#utility.yul\":3935:3984   */\n      tag_74\n      jump\t// in\n    tag_151:\n        /* \"#utility.yul\":3919:3985   */\n      tag_73\n      jump\t// in\n    tag_150:\n        /* \"#utility.yul\":3910:3985   */\n      swap1\n      pop\n        /* \"#utility.yul\":4008:4014   */\n      dup3\n        /* \"#utility.yul\":4001:4006   */\n      dup2\n        /* \"#utility.yul\":3994:4015   */\n      mstore\n        /* \"#utility.yul\":4046:4050   */\n      0x20\n        /* \"#utility.yul\":4039:4044   */\n      dup2\n        /* \"#utility.yul\":4035:4051   */\n      add\n        /* \"#utility.yul\":4084:4087   */\n      dup5\n        /* \"#utility.yul\":4075:4081   */\n      dup5\n        /* \"#utility.yul\":4070:4073   */\n      dup5\n        /* \"#utility.yul\":4066:4082   */\n      add\n        /* \"#utility.yul\":4063:4088   */\n      gt\n        /* \"#utility.yul\":4060:4172   */\n      iszero\n      tag_152\n      jumpi\n        /* \"#utility.yul\":4091:4170   */\n      tag_153\n      tag_70\n      jump\t// in\n    tag_153:\n        /* \"#utility.yul\":4060:4172   */\n    tag_152:\n        /* \"#utility.yul\":4181:4235   */\n      tag_154\n        /* \"#utility.yul\":4228:4234   */\n      dup5\n        /* \"#utility.yul\":4223:4226   */\n      dup3\n        /* \"#utility.yul\":4218:4221   */\n      dup6\n        /* \"#utility.yul\":4181:4235   */\n      tag_75\n      jump\t// in\n    tag_154:\n        /* \"#utility.yul\":3900:4241   */\n      pop\n        /* \"#utility.yul\":3816:4241   */\n      swap4\n      swap3\n      pop\n      pop\n      pop\n      jump\t// out\n        /* \"#utility.yul\":4261:4601   */\n    tag_77:\n        /* \"#utility.yul\":4317:4322   */\n      0x00\n        /* \"#utility.yul\":4366:4369   */\n      dup3\n        /* \"#utility.yul\":4359:4363   */\n      0x1f\n        /* \"#utility.yul\":4351:4357   */\n      dup4\n        /* \"#utility.yul\":4347:4364   */\n      add\n        /* \"#utility.yul\":4343:4370   */\n      slt\n        /* \"#utility.yul\":4333:4455   */\n      tag_156\n      jumpi\n        /* \"#utility.yul\":4374:4453   */\n      tag_157\n      tag_69\n      jump\t// in\n    tag_157:\n        /* \"#utility.yul\":4333:4455   */\n    tag_156:\n        /* \"#utility.yul\":4491:4497   */\n      dup2\n        /* \"#utility.yul\":4478:4498   */\n      calldataload\n        /* \"#utility.yul\":4516:4595   */\n      tag_158\n        /* \"#utility.yul\":4591:4594   */\n      dup5\n        /* \"#utility.yul\":4583:4589   */\n      dup3\n        /* \"#utility.yul\":4576:4580   */\n      0x20\n        /* \"#utility.yul\":4568:4574   */\n      dup7\n        /* \"#utility.yul\":4564:4581   */\n      add\n        /* \"#utility.yul\":4516:4595   */\n      tag_76\n      jump\t// in\n    tag_158:\n        /* \"#utility.yul\":4507:4595   */\n      swap2\n      pop\n        /* \"#utility.yul\":4323:4601   */\n      pop\n        /* \"#utility.yul\":4261:4601   */\n      swap3\n      swap2\n      pop\n      pop\n      jump\t// out\n        /* \"#utility.yul\":4607:5261   */\n    tag_16:\n        /* \"#utility.yul\":4685:4691   */\n      0x00\n        /* \"#utility.yul\":4693:4699   */\n      dup1\n        /* \"#utility.yul\":4742:4744   */\n      0x40\n        /* \"#utility.yul\":4730:4739   */\n      dup4\n        /* \"#utility.yul\":4721:4728   */\n      dup6\n        /* \"#utility.yul\":4717:4740   */\n      sub\n        /* \"#utility.yul\":4713:4745   */\n      slt\n        /* \"#utility.yul\":4710:4829   */\n      iszero\n      tag_160\n      jumpi\n        /* \"#utility.yul\":4748:4827   */\n      tag_161\n      tag_58\n      jump\t// in\n    tag_161:\n        /* \"#utility.yul\":4710:4829   */\n    tag_160:\n        /* \"#utility.yul\":4868:4869   */\n      0x00\n        /* \"#utility.yul\":4893:4946   */\n      tag_162\n        /* \"#utility.yul\":4938:4945   */\n      dup6\n        /* \"#utility.yul\":4929:4935   */\n      dup3\n        /* \"#utility.yul\":4918:4927   */\n      dup7\n        /* \"#utility.yul\":4914:4936   */\n      add\n        /* \"#utility.yul\":4893:4946   */\n      tag_62\n      jump\t// in\n    tag_162:\n        /* \"#utility.yul\":4883:4946   */\n      swap3\n      pop\n        /* \"#utility.yul\":4839:4956   */\n      pop\n        /* \"#utility.yul\":5023:5025   */\n      0x20\n        /* \"#utility.yul\":5012:5021   */\n      dup4\n        /* \"#utility.yul\":5008:5026   */\n      add\n        /* \"#utility.yul\":4995:5027   */\n      calldataload\n        /* \"#utility.yul\":5054:5072   */\n      0xffffffffffffffff\n        /* \"#utility.yul\":5046:5052   */\n      dup2\n        /* \"#utility.yul\":5043:5073   */\n      gt\n        /* \"#utility.yul\":5040:5157   */\n      iszero\n      tag_163\n      jumpi\n        /* \"#utility.yul\":5076:5155   */\n      tag_164\n      tag_59\n      jump\t// in\n    tag_164:\n        /* \"#utility.yul\":5040:5157   */\n    tag_163:\n        /* \"#utility.yul\":5181:5244   */\n      tag_165\n        /* \"#utility.yul\":5236:5243   */\n      dup6\n        /* \"#utility.yul\":5227:5233   */\n      dup3\n        /* \"#utility.yul\":5216:5225   */\n      dup7\n        /* \"#utility.yul\":5212:5234   */\n      add\n        /* \"#utility.yul\":5181:5244   */\n      tag_77\n      jump\t// in\n    tag_165:\n        /* \"#utility.yul\":5171:5244   */\n      swap2\n      pop\n        /* \"#utility.yul\":4966:5254   */\n      pop\n        /* \"#utility.yul\":4607:5261   */\n      swap3\n      pop\n      swap3\n      swap1\n      pop\n      jump\t// out\n        /* \"#utility.yul\":5267:5776   */\n    tag_20:\n        /* \"#utility.yul\":5336:5342   */\n      0x00\n        /* \"#utility.yul\":5385:5387   */\n      0x20\n        /* \"#utility.yul\":5373:5382   */\n      dup3\n        /* \"#utility.yul\":5364:5371   */\n      dup5\n        /* \"#utility.yul\":5360:5383   */\n      sub\n        /* \"#utility.yul\":5356:5388   */\n      slt\n        /* \"#utility.yul\":5353:5472   */\n      iszero\n      tag_167\n      jumpi\n        /* \"#utility.yul\":5391:5470   */\n      tag_168\n      tag_58\n      jump\t// in\n    tag_168:\n        /* \"#utility.yul\":5353:5472   */\n    tag_167:\n        /* \"#utility.yul\":5539:5540   */\n      0x00\n        /* \"#utility.yul\":5528:5537   */\n      dup3\n        /* \"#utility.yul\":5524:5541   */\n      add\n        /* \"#utility.yul\":5511:5542   */\n      calldataload\n        /* \"#utility.yul\":5569:5587   */\n      0xffffffffffffffff\n        /* \"#utility.yul\":5561:5567   */\n      dup2\n        /* \"#utility.yul\":5558:5588   */\n      gt\n        /* \"#utility.yul\":5555:5672   */\n      iszero\n      tag_169\n      jumpi\n        /* \"#utility.yul\":5591:5670   */\n      tag_170\n      tag_59\n      jump\t// in\n    tag_170:\n        /* \"#utility.yul\":5555:5672   */\n    tag_169:\n        /* \"#utility.yul\":5696:5759   */\n      tag_171\n        /* \"#utility.yul\":5751:5758   */\n      dup5\n        /* \"#utility.yul\":5742:5748   */\n      dup3\n        /* \"#utility.yul\":5731:5740   */\n      dup6\n        /* \"#utility.yul\":5727:5749   */\n      add\n        /* \"#utility.yul\":5696:5759   */\n      tag_77\n      jump\t// in\n    tag_171:\n        /* \"#utility.yul\":5686:5759   */\n      swap2\n      pop\n        /* \"#utility.yul\":5482:5769   */\n      pop\n        /* \"#utility.yul\":5267:5776   */\n      swap3\n      swap2\n      pop\n      pop\n      jump\t// out\n        /* \"#utility.yul\":5782:6004   */\n    tag_23:\n        /* \"#utility.yul\":5875:5879   */\n      0x00\n        /* \"#utility.yul\":5913:5915   */\n      0x20\n        /* \"#utility.yul\":5902:5911   */\n      dup3\n        /* \"#utility.yul\":5898:5916   */\n      add\n        /* \"#utility.yul\":5890:5916   */\n      swap1\n      pop\n        /* \"#utility.yul\":5926:5997   */\n      tag_173\n        /* \"#utility.yul\":5994:5995   */\n      0x00\n        /* \"#utility.yul\":5983:5992   */\n      dup4\n        /* \"#utility.yul\":5979:5996   */\n      add\n        /* \"#utility.yul\":5970:5976   */\n      dup5\n        /* \"#utility.yul\":5926:5997   */\n      tag_68\n      jump\t// in\n    tag_173:\n        /* \"#utility.yul\":5782:6004   */\n      swap3\n      swap2\n      pop\n      pop\n      jump\t// out\n        /* \"#utility.yul\":6010:6150   */\n    tag_78:\n        /* \"#utility.yul\":6103:6109   */\n      0x00\n        /* \"#utility.yul\":6137:6142   */\n      dup2\n        /* \"#utility.yul\":6131:6143   */\n      mload\n        /* \"#utility.yul\":6121:6143   */\n      swap1\n      pop\n        /* \"#utility.yul\":6010:6150   */\n      swap2\n      swap1\n      pop\n      jump\t// out\n        /* \"#utility.yul\":6156:6366   */\n    tag_79:\n        /* \"#utility.yul\":6281:6292   */\n      0x00\n        /* \"#utility.yul\":6315:6321   */\n      dup3\n        /* \"#utility.yul\":6310:6313   */\n      dup3\n        /* \"#utility.yul\":6303:6322   */\n      mstore\n        /* \"#utility.yul\":6355:6359   */\n      0x20\n        /* \"#utility.yul\":6350:6353   */\n      dup3\n        /* \"#utility.yul\":6346:6360   */\n      add\n        /* \"#utility.yul\":6331:6360   */\n      swap1\n      pop\n        /* \"#utility.yul\":6156:6366   */\n      swap3\n      swap2\n      pop\n      pop\n      jump\t// out\n        /* \"#utility.yul\":6372:6530   */\n    tag_80:\n        /* \"#utility.yul\":6465:6469   */\n      0x00\n        /* \"#utility.yul\":6488:6491   */\n      dup2\n        /* \"#utility.yul\":6480:6491   */\n      swap1\n      pop\n        /* \"#utility.yul\":6518:6522   */\n      0x20\n        /* \"#utility.yul\":6513:6516   */\n      dup3\n        /* \"#utility.yul\":6509:6523   */\n      add\n        /* \"#utility.yul\":6501:6523   */\n      swap1\n      pop\n        /* \"#utility.yul\":6372:6530   */\n      swap2\n      swap1\n      pop\n      jump\t// out\n        /* \"#utility.yul\":6536:6695   */\n    tag_81:\n        /* \"#utility.yul\":6610:6621   */\n      0x00\n        /* \"#utility.yul\":6644:6650   */\n      dup3\n        /* \"#utility.yul\":6639:6642   */\n      dup3\n        /* \"#utility.yul\":6632:6651   */\n      mstore\n        /* \"#utility.yul\":6684:6688   */\n      0x20\n        /* \"#utility.yul\":6679:6682   */\n      dup3\n        /* \"#utility.yul\":6675:6689   */\n      add\n        /* \"#utility.yul\":6660:6689   */\n      swap1\n      pop\n        /* \"#utility.yul\":6536:6695   */\n      swap3\n      swap2\n      pop\n      pop\n      jump\t// out\n        /* \"#utility.yul\":6701:7058   */\n    tag_82:\n        /* \"#utility.yul\":6779:6782   */\n      0x00\n        /* \"#utility.yul\":6807:6846   */\n      tag_179\n        /* \"#utility.yul\":6840:6845   */\n      dup3\n        /* \"#utility.yul\":6807:6846   */\n      tag_63\n      jump\t// in\n    tag_179:\n        /* \"#utility.yul\":6862:6923   */\n      tag_180\n        /* \"#utility.yul\":6916:6922   */\n      dup2\n        /* \"#utility.yul\":6911:6914   */\n      dup6\n        /* \"#utility.yul\":6862:6923   */\n      tag_81\n      jump\t// in\n    tag_180:\n        /* \"#utility.yul\":6855:6923   */\n      swap4\n      pop\n        /* \"#utility.yul\":6932:6997   */\n      tag_181\n        /* \"#utility.yul\":6990:6996   */\n      dup2\n        /* \"#utility.yul\":6985:6988   */\n      dup6\n        /* \"#utility.yul\":6978:6982   */\n      0x20\n        /* \"#utility.yul\":6971:6976   */\n      dup7\n        /* \"#utility.yul\":6967:6983   */\n      add\n        /* \"#utility.yul\":6932:6997   */\n      tag_65\n      jump\t// in\n    tag_181:\n        /* \"#utility.yul\":7022:7051   */\n      tag_182\n        /* \"#utility.yul\":7044:7050   */\n      dup2\n        /* \"#utility.yul\":7022:7051   */\n      tag_66\n      jump\t// in\n    tag_182:\n        /* \"#utility.yul\":7017:7020   */\n      dup5\n        /* \"#utility.yul\":7013:7052   */\n      add\n        /* \"#utility.yul\":7006:7052   */\n      swap2\n      pop\n        /* \"#utility.yul\":6783:7058   */\n      pop\n        /* \"#utility.yul\":6701:7058   */\n      swap3\n      swap2\n      pop\n      pop\n      jump\t// out\n        /* \"#utility.yul\":7064:7172   */\n    tag_83:\n        /* \"#utility.yul\":7141:7165   */\n      tag_184\n        /* \"#utility.yul\":7159:7164   */\n      dup2\n        /* \"#utility.yul\":7141:7165   */\n      tag_60\n      jump\t// in\n    tag_184:\n        /* \"#utility.yul\":7136:7139   */\n      dup3\n        /* \"#utility.yul\":7129:7166   */\n      mstore\n        /* \"#utility.yul\":7064:7172   */\n      pop\n      pop\n      jump\t// out\n        /* \"#utility.yul\":7254:7853   */\n    tag_84:\n        /* \"#utility.yul\":7365:7368   */\n      0x00\n        /* \"#utility.yul\":7401:7405   */\n      0x40\n        /* \"#utility.yul\":7396:7399   */\n      dup4\n        /* \"#utility.yul\":7392:7406   */\n      add\n        /* \"#utility.yul\":7488:7492   */\n      0x00\n        /* \"#utility.yul\":7481:7486   */\n      dup4\n        /* \"#utility.yul\":7477:7493   */\n      add\n        /* \"#utility.yul\":7471:7494   */\n      mload\n        /* \"#utility.yul\":7541:7544   */\n      dup5\n        /* \"#utility.yul\":7535:7539   */\n      dup3\n        /* \"#utility.yul\":7531:7545   */\n      sub\n        /* \"#utility.yul\":7524:7528   */\n      0x00\n        /* \"#utility.yul\":7519:7522   */\n      dup7\n        /* \"#utility.yul\":7515:7529   */\n      add\n        /* \"#utility.yul\":7508:7546   */\n      mstore\n        /* \"#utility.yul\":7567:7640   */\n      tag_186\n        /* \"#utility.yul\":7635:7639   */\n      dup3\n        /* \"#utility.yul\":7621:7633   */\n      dup3\n        /* \"#utility.yul\":7567:7640   */\n      tag_82\n      jump\t// in\n    tag_186:\n        /* \"#utility.yul\":7559:7640   */\n      swap2\n      pop\n        /* \"#utility.yul\":7416:7651   */\n      pop\n        /* \"#utility.yul\":7734:7738   */\n      0x20\n        /* \"#utility.yul\":7727:7732   */\n      dup4\n        /* \"#utility.yul\":7723:7739   */\n      add\n        /* \"#utility.yul\":7717:7740   */\n      mload\n        /* \"#utility.yul\":7753:7816   */\n      tag_187\n        /* \"#utility.yul\":7810:7814   */\n      0x20\n        /* \"#utility.yul\":7805:7808   */\n      dup7\n        /* \"#utility.yul\":7801:7815   */\n      add\n        /* \"#utility.yul\":7787:7799   */\n      dup3\n        /* \"#utility.yul\":7753:7816   */\n      tag_83\n      jump\t// in\n    tag_187:\n        /* \"#utility.yul\":7661:7826   */\n      pop\n        /* \"#utility.yul\":7843:7847   */\n      dup1\n        /* \"#utility.yul\":7836:7847   */\n      swap2\n      pop\n        /* \"#utility.yul\":7370:7853   */\n      pop\n        /* \"#utility.yul\":7254:7853   */\n      swap3\n      swap2\n      pop\n      pop\n      jump\t// out\n        /* \"#utility.yul\":7859:8119   */\n    tag_85:\n        /* \"#utility.yul\":7980:7990   */\n      0x00\n        /* \"#utility.yul\":8015:8113   */\n      tag_189\n        /* \"#utility.yul\":8109:8112   */\n      dup4\n        /* \"#utility.yul\":8101:8107   */\n      dup4\n        /* \"#utility.yul\":8015:8113   */\n      tag_84\n      jump\t// in\n    tag_189:\n        /* \"#utility.yul\":8001:8113   */\n      swap1\n      pop\n        /* \"#utility.yul\":7859:8119   */\n      swap3\n      swap2\n      pop\n      pop\n      jump\t// out\n        /* \"#utility.yul\":8125:8264   */\n    tag_86:\n        /* \"#utility.yul\":8221:8225   */\n      0x00\n        /* \"#utility.yul\":8253:8257   */\n      0x20\n        /* \"#utility.yul\":8248:8251   */\n      dup3\n        /* \"#utility.yul\":8244:8258   */\n      add\n        /* \"#utility.yul\":8236:8258   */\n      swap1\n      pop\n        /* \"#utility.yul\":8125:8264   */\n      swap2\n      swap1\n      pop\n      jump\t// out\n        /* \"#utility.yul\":8350:9469   */\n    tag_87:\n        /* \"#utility.yul\":8521:8524   */\n      0x00\n        /* \"#utility.yul\":8550:8630   */\n      tag_192\n        /* \"#utility.yul\":8624:8629   */\n      dup3\n        /* \"#utility.yul\":8550:8630   */\n      tag_78\n      jump\t// in\n    tag_192:\n        /* \"#utility.yul\":8646:8758   */\n      tag_193\n        /* \"#utility.yul\":8751:8757   */\n      dup2\n        /* \"#utility.yul\":8746:8749   */\n      dup6\n        /* \"#utility.yul\":8646:8758   */\n      tag_79\n      jump\t// in\n    tag_193:\n        /* \"#utility.yul\":8639:8758   */\n      swap4\n      pop\n        /* \"#utility.yul\":8784:8787   */\n      dup4\n        /* \"#utility.yul\":8829:8833   */\n      0x20\n        /* \"#utility.yul\":8821:8827   */\n      dup3\n        /* \"#utility.yul\":8817:8834   */\n      mul\n        /* \"#utility.yul\":8812:8815   */\n      dup6\n        /* \"#utility.yul\":8808:8835   */\n      add\n        /* \"#utility.yul\":8859:8941   */\n      tag_194\n        /* \"#utility.yul\":8935:8940   */\n      dup6\n        /* \"#utility.yul\":8859:8941   */\n      tag_80\n      jump\t// in\n    tag_194:\n        /* \"#utility.yul\":8964:8971   */\n      dup1\n        /* \"#utility.yul\":8995:8996   */\n      0x00\n        /* \"#utility.yul\":8980:9424   */\n    tag_195:\n        /* \"#utility.yul\":9005:9011   */\n      dup6\n        /* \"#utility.yul\":9002:9003   */\n      dup2\n        /* \"#utility.yul\":8999:9012   */\n      lt\n        /* \"#utility.yul\":8980:9424   */\n      iszero\n      tag_197\n      jumpi\n        /* \"#utility.yul\":9076:9085   */\n      dup5\n        /* \"#utility.yul\":9070:9074   */\n      dup5\n        /* \"#utility.yul\":9066:9086   */\n      sub\n        /* \"#utility.yul\":9061:9064   */\n      dup10\n        /* \"#utility.yul\":9054:9087   */\n      mstore\n        /* \"#utility.yul\":9127:9133   */\n      dup2\n        /* \"#utility.yul\":9121:9134   */\n      mload\n        /* \"#utility.yul\":9155:9271   */\n      tag_198\n        /* \"#utility.yul\":9266:9270   */\n      dup6\n        /* \"#utility.yul\":9251:9264   */\n      dup3\n        /* \"#utility.yul\":9155:9271   */\n      tag_85\n      jump\t// in\n    tag_198:\n        /* \"#utility.yul\":9147:9271   */\n      swap5\n      pop\n        /* \"#utility.yul\":9294:9380   */\n      tag_199\n        /* \"#utility.yul\":9373:9379   */\n      dup4\n        /* \"#utility.yul\":9294:9380   */\n      tag_86\n      jump\t// in\n    tag_199:\n        /* \"#utility.yul\":9284:9380   */\n      swap3\n      pop\n        /* \"#utility.yul\":9409:9413   */\n      0x20\n        /* \"#utility.yul\":9404:9407   */\n      dup11\n        /* \"#utility.yul\":9400:9414   */\n      add\n        /* \"#utility.yul\":9393:9414   */\n      swap10\n      pop\n        /* \"#utility.yul\":9040:9424   */\n      pop\n        /* \"#utility.yul\":9027:9028   */\n      0x01\n        /* \"#utility.yul\":9024:9025   */\n      dup2\n        /* \"#utility.yul\":9020:9029   */\n      add\n        /* \"#utility.yul\":9015:9029   */\n      swap1\n      pop\n        /* \"#utility.yul\":8980:9424   */\n      jump(tag_195)\n    tag_197:\n        /* \"#utility.yul\":8984:8998   */\n      pop\n        /* \"#utility.yul\":9440:9444   */\n      dup3\n        /* \"#utility.yul\":9433:9444   */\n      swap8\n      pop\n        /* \"#utility.yul\":9460:9463   */\n      dup8\n        /* \"#utility.yul\":9453:9463   */\n      swap6\n      pop\n        /* \"#utility.yul\":8526:9469   */\n      pop\n      pop\n      pop\n      pop\n      pop\n        /* \"#utility.yul\":8350:9469   */\n      swap3\n      swap2\n      pop\n      pop\n      jump\t// out\n        /* \"#utility.yul\":9475:9952   */\n    tag_27:\n        /* \"#utility.yul\":9670:9674   */\n      0x00\n        /* \"#utility.yul\":9708:9710   */\n      0x20\n        /* \"#utility.yul\":9697:9706   */\n      dup3\n        /* \"#utility.yul\":9693:9711   */\n      add\n        /* \"#utility.yul\":9685:9711   */\n      swap1\n      pop\n        /* \"#utility.yul\":9757:9766   */\n      dup2\n        /* \"#utility.yul\":9751:9755   */\n      dup2\n        /* \"#utility.yul\":9747:9767   */\n      sub\n        /* \"#utility.yul\":9743:9744   */\n      0x00\n        /* \"#utility.yul\":9732:9741   */\n      dup4\n        /* \"#utility.yul\":9728:9745   */\n      add\n        /* \"#utility.yul\":9721:9768   */\n      mstore\n        /* \"#utility.yul\":9785:9945   */\n      tag_201\n        /* \"#utility.yul\":9940:9944   */\n      dup2\n        /* \"#utility.yul\":9931:9937   */\n      dup5\n        /* \"#utility.yul\":9785:9945   */\n      tag_87\n      jump\t// in\n    tag_201:\n        /* \"#utility.yul\":9777:9945   */\n      swap1\n      pop\n        /* \"#utility.yul\":9475:9952   */\n      swap3\n      swap2\n      pop\n      pop\n      jump\t// out\n        /* \"#utility.yul\":9958:10138   */\n    tag_88:\n        /* \"#utility.yul\":10006:10083   */\n      0x4e487b7100000000000000000000000000000000000000000000000000000000\n        /* \"#utility.yul\":10003:10004   */\n      0x00\n        /* \"#utility.yul\":9996:10084   */\n      mstore\n        /* \"#utility.yul\":10103:10107   */\n      0x22\n        /* \"#utility.yul\":10100:10101   */\n      0x04\n        /* \"#utility.yul\":10093:10108   */\n      mstore\n        /* \"#utility.yul\":10127:10131   */\n      0x24\n        /* \"#utility.yul\":10124:10125   */\n      0x00\n        /* \"#utility.yul\":10117:10132   */\n      revert\n        /* \"#utility.yul\":10144:10464   */\n    tag_35:\n        /* \"#utility.yul\":10188:10194   */\n      0x00\n        /* \"#utility.yul\":10225:10226   */\n      0x02\n        /* \"#utility.yul\":10219:10223   */\n      dup3\n        /* \"#utility.yul\":10215:10227   */\n      div\n        /* \"#utility.yul\":10205:10227   */\n      swap1\n      pop\n        /* \"#utility.yul\":10272:10273   */\n      0x01\n        /* \"#utility.yul\":10266:10270   */\n      dup3\n        /* \"#utility.yul\":10262:10274   */\n      and\n        /* \"#utility.yul\":10293:10311   */\n      dup1\n        /* \"#utility.yul\":10283:10364   */\n      tag_204\n      jumpi\n        /* \"#utility.yul\":10349:10353   */\n      0x7f\n        /* \"#utility.yul\":10341:10347   */\n      dup3\n        /* \"#utility.yul\":10337:10354   */\n      and\n        /* \"#utility.yul\":10327:10354   */\n      swap2\n      pop\n        /* \"#utility.yul\":10283:10364   */\n    tag_204:\n        /* \"#utility.yul\":10411:10413   */\n      0x20\n        /* \"#utility.yul\":10403:10409   */\n      dup3\n        /* \"#utility.yul\":10400:10414   */\n      lt\n        /* \"#utility.yul\":10380:10398   */\n      dup2\n        /* \"#utility.yul\":10377:10415   */\n      sub\n        /* \"#utility.yul\":10374:10458   */\n      tag_205\n      jumpi\n        /* \"#utility.yul\":10430:10448   */\n      tag_206\n      tag_88\n      jump\t// in\n    tag_206:\n        /* \"#utility.yul\":10374:10458   */\n    tag_205:\n        /* \"#utility.yul\":10195:10464   */\n      pop\n        /* \"#utility.yul\":10144:10464   */\n      swap2\n      swap1\n      pop\n      jump\t// out\n        /* \"#utility.yul\":10470:10611   */\n    tag_89:\n        /* \"#utility.yul\":10519:10523   */\n      0x00\n        /* \"#utility.yul\":10542:10545   */\n      dup2\n        /* \"#utility.yul\":10534:10545   */\n      swap1\n      pop\n        /* \"#utility.yul\":10565:10568   */\n      dup2\n        /* \"#utility.yul\":10562:10563   */\n      0x00\n        /* \"#utility.yul\":10555:10569   */\n      mstore\n        /* \"#utility.yul\":10599:10603   */\n      0x20\n        /* \"#utility.yul\":10596:10597   */\n      0x00\n        /* \"#utility.yul\":10586:10604   */\n      keccak256\n        /* \"#utility.yul\":10578:10604   */\n      swap1\n      pop\n        /* \"#utility.yul\":10470:10611   */\n      swap2\n      swap1\n      pop\n      jump\t// out\n        /* \"#utility.yul\":10617:10710   */\n    tag_90:\n        /* \"#utility.yul\":10654:10660   */\n      0x00\n        /* \"#utility.yul\":10701:10703   */\n      0x20\n        /* \"#utility.yul\":10696:10698   */\n      0x1f\n        /* \"#utility.yul\":10689:10694   */\n      dup4\n        /* \"#utility.yul\":10685:10699   */\n      add\n        /* \"#utility.yul\":10681:10704   */\n      div\n        /* \"#utility.yul\":10671:10704   */\n      swap1\n      pop\n        /* \"#utility.yul\":10617:10710   */\n      swap2\n      swap1\n      pop\n      jump\t// out\n        /* \"#utility.yul\":10716:10823   */\n    tag_91:\n        /* \"#utility.yul\":10760:10768   */\n      0x00\n        /* \"#utility.yul\":10810:10815   */\n      dup3\n        /* \"#utility.yul\":10804:10808   */\n      dup3\n        /* \"#utility.yul\":10800:10816   */\n      shl\n        /* \"#utility.yul\":10779:10816   */\n      swap1\n      pop\n        /* \"#utility.yul\":10716:10823   */\n      swap3\n      swap2\n      pop\n      pop\n      jump\t// out\n        /* \"#utility.yul\":10829:11222   */\n    tag_92:\n        /* \"#utility.yul\":10898:10904   */\n      0x00\n        /* \"#utility.yul\":10948:10949   */\n      0x08\n        /* \"#utility.yul\":10936:10946   */\n      dup4\n        /* \"#utility.yul\":10932:10950   */\n      mul\n        /* \"#utility.yul\":10971:11068   */\n      tag_211\n        /* \"#utility.yul\":11001:11067   */\n      0xffffffffffffffffffffffffffffffffffffffffffffffffffffffffffffffff\n        /* \"#utility.yul\":10990:10999   */\n      dup3\n        /* \"#utility.yul\":10971:11068   */\n      tag_91\n      jump\t// in\n    tag_211:\n        /* \"#utility.yul\":11089:11128   */\n      tag_212\n        /* \"#utility.yul\":11119:11127   */\n      dup7\n        /* \"#utility.yul\":11108:11117   */\n      dup4\n        /* \"#utility.yul\":11089:11128   */\n      tag_91\n      jump\t// in\n    tag_212:\n        /* \"#utility.yul\":11077:11128   */\n      swap6\n      pop\n        /* \"#utility.yul\":11161:11165   */\n      dup1\n        /* \"#utility.yul\":11157:11166   */\n      not\n        /* \"#utility.yul\":11150:11155   */\n      dup5\n        /* \"#utility.yul\":11146:11167   */\n      and\n        /* \"#utility.yul\":11137:11167   */\n      swap4\n      pop\n        /* \"#utility.yul\":11210:11214   */\n      dup1\n        /* \"#utility.yul\":11200:11208   */\n      dup7\n        /* \"#utility.yul\":11196:11215   */\n      and\n        /* \"#utility.yul\":11189:11194   */\n      dup5\n        /* \"#utility.yul\":11186:11216   */\n      or\n        /* \"#utility.yul\":11176:11216   */\n      swap3\n      pop\n        /* \"#utility.yul\":10905:11222   */\n      pop\n      pop\n        /* \"#utility.yul\":10829:11222   */\n      swap4\n      swap3\n      pop\n      pop\n      pop\n      jump\t// out\n        /* \"#utility.yul\":11228:11288   */\n    tag_93:\n        /* \"#utility.yul\":11256:11259   */\n      0x00\n        /* \"#utility.yul\":11277:11282   */\n      dup2\n        /* \"#utility.yul\":11270:11282   */\n      swap1\n      pop\n        /* \"#utility.yul\":11228:11288   */\n      swap2\n      swap1\n      pop\n      jump\t// out\n        /* \"#utility.yul\":11294:11436   */\n    tag_94:\n        /* \"#utility.yul\":11344:11353   */\n      0x00\n        /* \"#utility.yul\":11377:11430   */\n      tag_215\n        /* \"#utility.yul\":11395:11429   */\n      tag_216\n        /* \"#utility.yul\":11404:11428   */\n      tag_217\n        /* \"#utility.yul\":11422:11427   */\n      dup5\n        /* \"#utility.yul\":11404:11428   */\n      tag_60\n      jump\t// in\n    tag_217:\n        /* \"#utility.yul\":11395:11429   */\n      tag_93\n      jump\t// in\n    tag_216:\n        /* \"#utility.yul\":11377:11430   */\n      tag_60\n      jump\t// in\n    tag_215:\n        /* \"#utility.yul\":11364:11430   */\n      swap1\n      pop\n        /* \"#utility.yul\":11294:11436   */\n      swap2\n      swap1\n      pop\n      jump\t// out\n        /* \"#utility.yul\":11442:11517   */\n    tag_95:\n        /* \"#utility.yul\":11485:11488   */\n      0x00\n        /* \"#utility.yul\":11506:11511   */\n      dup2\n        /* \"#utility.yul\":11499:11511   */\n      swap1\n      pop\n        /* \"#utility.yul\":11442:11517   */\n      swap2\n      swap1\n      pop\n      jump\t// out\n        /* \"#utility.yul\":11523:11792   */\n    tag_96:\n        /* \"#utility.yul\":11633:11672   */\n      tag_220\n        /* \"#utility.yul\":11664:11671   */\n      dup4\n        /* \"#utility.yul\":11633:11672   */\n      tag_94\n      jump\t// in\n    tag_220:\n        /* \"#utility.yul\":11694:11785   */\n      tag_221\n        /* \"#utility.yul\":11743:11784   */\n      tag_222\n        /* \"#utility.yul\":11767:11783   */\n      dup3\n        /* \"#utility.yul\":11743:11784   */\n      tag_95\n      jump\t// in\n    tag_222:\n        /* \"#utility.yul\":11735:11741   */\n      dup5\n        /* \"#utility.yul\":11728:11732   */\n      dup5\n        /* \"#utility.yul\":11722:11733   */\n      sload\n        /* \"#utility.yul\":11694:11785   */\n      tag_92\n      jump\t// in\n    tag_221:\n        /* \"#utility.yul\":11688:11692   */\n      dup3\n        /* \"#utility.yul\":11681:11786   */\n      sstore\n        /* \"#utility.yul\":11599:11792   */\n      pop\n        /* \"#utility.yul\":11523:11792   */\n      pop\n      pop\n      pop\n      jump\t// out\n        /* \"#utility.yul\":11798:11871   */\n    tag_97:\n        /* \"#utility.yul\":11843:11846   */\n      0x00\n        /* \"#utility.yul\":11798:11871   */\n      swap1\n      jump\t// out\n        /* \"#utility.yul\":11877:12066   */\n    tag_98:\n        /* \"#utility.yul\":11954:11986   */\n      tag_225\n      tag_97\n      jump\t// in\n    tag_225:\n        /* \"#utility.yul\":11995:12060   */\n      tag_226\n        /* \"#utility.yul\":12053:12059   */\n      dup2\n        /* \"#utility.yul\":12045:12051   */\n      dup5\n        /* \"#utility.yul\":12039:12043   */\n      dup5\n        /* \"#utility.yul\":11995:12060   */\n      tag_96\n      jump\t// in\n    tag_226:\n        /* \"#utility.yul\":11930:12066   */\n      pop\n        /* \"#utility.yul\":11877:12066   */\n      pop\n      pop\n      jump\t// out\n        /* \"#utility.yul\":12072:12258   */\n    tag_99:\n        /* \"#utility.yul\":12132:12252   */\n    tag_228:\n        /* \"#utility.yul\":12149:12152   */\n      dup2\n        /* \"#utility.yul\":12142:12147   */\n      dup2\n        /* \"#utility.yul\":12139:12153   */\n      lt\n        /* \"#utility.yul\":12132:12252   */\n      iszero\n      tag_230\n      jumpi\n        /* \"#utility.yul\":12203:12242   */\n      tag_231\n        /* \"#utility.yul\":12240:12241   */\n      0x00\n        /* \"#utility.yul\":12233:12238   */\n      dup3\n        /* \"#utility.yul\":12203:12242   */\n      tag_98\n      jump\t// in\n    tag_231:\n        /* \"#utility.yul\":12176:12177   */\n      0x01\n        /* \"#utility.yul\":12169:12174   */\n      dup2\n        /* \"#utility.yul\":12165:12178   */\n      add\n        /* \"#utility.yul\":12156:12178   */\n      swap1\n      pop\n        /* \"#utility.yul\":12132:12252   */\n      jump(tag_228)\n    tag_230:\n        /* \"#utility.yul\":12072:12258   */\n      pop\n      pop\n      jump\t// out\n        /* \"#utility.yul\":12264:12807   */\n    tag_100:\n        /* \"#utility.yul\":12365:12367   */\n      0x1f\n        /* \"#utility.yul\":12360:12363   */\n      dup3\n        /* \"#utility.yul\":12357:12368   */\n      gt\n        /* \"#utility.yul\":12354:12800   */\n      iszero\n      tag_233\n      jumpi\n        /* \"#utility.yul\":12399:12437   */\n      tag_234\n        /* \"#utility.yul\":12431:12436   */\n      dup2\n        /* \"#utility.yul\":12399:12437   */\n      tag_89\n      jump\t// in\n    tag_234:\n        /* \"#utility.yul\":12483:12512   */\n      tag_235\n        /* \"#utility.yul\":12501:12511   */\n      dup5\n        /* \"#utility.yul\":12483:12512   */\n      tag_90\n      jump\t// in\n    tag_235:\n        /* \"#utility.yul\":12473:12481   */\n      dup2\n        /* \"#utility.yul\":12469:12513   */\n      add\n        /* \"#utility.yul\":12666:12668   */\n      0x20\n        /* \"#utility.yul\":12654:12664   */\n      dup6\n        /* \"#utility.yul\":12651:12669   */\n      lt\n        /* \"#utility.yul\":12648:12697   */\n      iszero\n      tag_236\n      jumpi\n        /* \"#utility.yul\":12687:12695   */\n      dup2\n        /* \"#utility.yul\":12672:12695   */\n      swap1\n      pop\n        /* \"#utility.yul\":12648:12697   */\n    tag_236:\n        /* \"#utility.yul\":12710:12790   */\n      tag_237\n        /* \"#utility.yul\":12766:12788   */\n      tag_238\n        /* \"#utility.yul\":12784:12787   */\n      dup6\n        /* \"#utility.yul\":12766:12788   */\n      tag_90\n      jump\t// in\n    tag_238:\n        /* \"#utility.yul\":12756:12764   */\n      dup4\n        /* \"#utility.yul\":12752:12789   */\n      add\n        /* \"#utility.yul\":12739:12750   */\n      dup3\n        /* \"#utility.yul\":12710:12790   */\n      tag_99\n      jump\t// in\n    tag_237:\n        /* \"#utility.yul\":12369:12800   */\n      pop\n      pop\n        /* \"#utility.yul\":12354:12800   */\n    tag_233:\n        /* \"#utility.yul\":12264:12807   */\n      pop\n      pop\n      pop\n      jump\t// out\n        /* \"#utility.yul\":12813:12930   */\n    tag_101:\n        /* \"#utility.yul\":12867:12875   */\n      0x00\n        /* \"#utility.yul\":12917:12922   */\n      dup3\n        /* \"#utility.yul\":12911:12915   */\n      dup3\n        /* \"#utility.yul\":12907:12923   */\n      shr\n        /* \"#utility.yul\":12886:12923   */\n      swap1\n      pop\n        /* \"#utility.yul\":12813:12930   */\n      swap3\n      swap2\n      pop\n      pop\n      jump\t// out\n        /* \"#utility.yul\":12936:13105   */\n    tag_102:\n        /* \"#utility.yul\":12980:12986   */\n      0x00\n        /* \"#utility.yul\":13013:13064   */\n      tag_241\n        /* \"#utility.yul\":13061:13062   */\n      0x00\n        /* \"#utility.yul\":13057:13063   */\n      not\n        /* \"#utility.yul\":13049:13054   */\n      dup5\n        /* \"#utility.yul\":13046:13047   */\n      0x08\n        /* \"#utility.yul\":13042:13055   */\n      mul\n        /* \"#utility.yul\":13013:13064   */\n      tag_101\n      jump\t// in\n    tag_241:\n        /* \"#utility.yul\":13009:13065   */\n      not\n        /* \"#utility.yul\":13094:13098   */\n      dup1\n        /* \"#utility.yul\":13088:13092   */\n      dup4\n        /* \"#utility.yul\":13084:13099   */\n      and\n        /* \"#utility.yul\":13074:13099   */\n      swap2\n      pop\n        /* \"#utility.yul\":12987:13105   */\n      pop\n        /* \"#utility.yul\":12936:13105   */\n      swap3\n      swap2\n      pop\n      pop\n      jump\t// out\n        /* \"#utility.yul\":13110:13405   */\n    tag_103:\n        /* \"#utility.yul\":13186:13190   */\n      0x00\n        /* \"#utility.yul\":13332:13361   */\n      tag_243\n        /* \"#utility.yul\":13357:13360   */\n      dup4\n        /* \"#utility.yul\":13351:13355   */\n      dup4\n        /* \"#utility.yul\":13332:13361   */\n      tag_102\n      jump\t// in\n    tag_243:\n        /* \"#utility.yul\":13324:13361   */\n      swap2\n      pop\n        /* \"#utility.yul\":13394:13397   */\n      dup3\n        /* \"#utility.yul\":13391:13392   */\n      0x02\n        /* \"#utility.yul\":13387:13398   */\n      mul\n        /* \"#utility.yul\":13381:13385   */\n      dup3\n        /* \"#utility.yul\":13378:13399   */\n      or\n        /* \"#utility.yul\":13370:13399   */\n      swap1\n      pop\n        /* \"#utility.yul\":13110:13405   */\n      swap3\n      swap2\n      pop\n      pop\n      jump\t// out\n        /* \"#utility.yul\":13410:14805   */\n    tag_43:\n        /* \"#utility.yul\":13527:13564   */\n      tag_245\n        /* \"#utility.yul\":13560:13563   */\n      dup3\n        /* \"#utility.yul\":13527:13564   */\n      tag_63\n      jump\t// in\n    tag_245:\n        /* \"#utility.yul\":13629:13647   */\n      0xffffffffffffffff\n        /* \"#utility.yul\":13621:13627   */\n      dup2\n        /* \"#utility.yul\":13618:13648   */\n      gt\n        /* \"#utility.yul\":13615:13671   */\n      iszero\n      tag_246\n      jumpi\n        /* \"#utility.yul\":13651:13669   */\n      tag_247\n      tag_71\n      jump\t// in\n    tag_247:\n        /* \"#utility.yul\":13615:13671   */\n    tag_246:\n        /* \"#utility.yul\":13695:13733   */\n      tag_248\n        /* \"#utility.yul\":13727:13731   */\n      dup3\n        /* \"#utility.yul\":13721:13732   */\n      sload\n        /* \"#utility.yul\":13695:13733   */\n      tag_35\n      jump\t// in\n    tag_248:\n        /* \"#utility.yul\":13780:13847   */\n      tag_249\n        /* \"#utility.yul\":13840:13846   */\n      dup3\n        /* \"#utility.yul\":13832:13838   */\n      dup3\n        /* \"#utility.yul\":13826:13830   */\n      dup6\n        /* \"#utility.yul\":13780:13847   */\n      tag_100\n      jump\t// in\n    tag_249:\n        /* \"#utility.yul\":13874:13875   */\n      0x00\n        /* \"#utility.yul\":13898:13902   */\n      0x20\n        /* \"#utility.yul\":13885:13902   */\n      swap1\n      pop\n        /* \"#utility.yul\":13930:13932   */\n      0x1f\n        /* \"#utility.yul\":13922:13928   */\n      dup4\n        /* \"#utility.yul\":13919:13933   */\n      gt\n        /* \"#utility.yul\":13947:13948   */\n      0x01\n        /* \"#utility.yul\":13942:14560   */\n      dup2\n      eq\n      tag_251\n      jumpi\n        /* \"#utility.yul\":14604:14605   */\n      0x00\n        /* \"#utility.yul\":14621:14627   */\n      dup5\n        /* \"#utility.yul\":14618:14695   */\n      iszero\n      tag_252\n      jumpi\n        /* \"#utility.yul\":14670:14679   */\n      dup3\n        /* \"#utility.yul\":14665:14668   */\n      dup8\n        /* \"#utility.yul\":14661:14680   */\n      add\n        /* \"#utility.yul\":14655:14681   */\n      mload\n        /* \"#utility.yul\":14646:14681   */\n      swap1\n      pop\n        /* \"#utility.yul\":14618:14695   */\n    tag_252:\n        /* \"#utility.yul\":14721:14788   */\n      tag_253\n        /* \"#utility.yul\":14781:14787   */\n      dup6\n        /* \"#utility.yul\":14774:14779   */\n      dup3\n        /* \"#utility.yul\":14721:14788   */\n      tag_103\n      jump\t// in\n    tag_253:\n        /* \"#utility.yul\":14715:14719   */\n      dup7\n        /* \"#utility.yul\":14708:14789   */\n      sstore\n        /* \"#utility.yul\":14577:14799   */\n      pop\n        /* \"#utility.yul\":13912:14799   */\n      jump(tag_250)\n        /* \"#utility.yul\":13942:14560   */\n    tag_251:\n        /* \"#utility.yul\":13994:13998   */\n      0x1f\n        /* \"#utility.yul\":13990:13999   */\n      not\n        /* \"#utility.yul\":13982:13988   */\n      dup5\n        /* \"#utility.yul\":13978:14000   */\n      and\n        /* \"#utility.yul\":14028:14065   */\n      tag_254\n        /* \"#utility.yul\":14060:14064   */\n      dup7\n        /* \"#utility.yul\":14028:14065   */\n      tag_89\n      jump\t// in\n    tag_254:\n        /* \"#utility.yul\":14087:14088   */\n      0x00\n        /* \"#utility.yul\":14101:14309   */\n    tag_255:\n        /* \"#utility.yul\":14115:14122   */\n      dup3\n        /* \"#utility.yul\":14112:14113   */\n      dup2\n        /* \"#utility.yul\":14109:14123   */\n      lt\n        /* \"#utility.yul\":14101:14309   */\n      iszero\n      tag_257\n      jumpi\n        /* \"#utility.yul\":14194:14203   */\n      dup5\n        /* \"#utility.yul\":14189:14192   */\n      dup10\n        /* \"#utility.yul\":14185:14204   */\n      add\n        /* \"#utility.yul\":14179:14205   */\n      mload\n        /* \"#utility.yul\":14171:14177   */\n      dup3\n        /* \"#utility.yul\":14164:14206   */\n      sstore\n        /* \"#utility.yul\":14245:14246   */\n      0x01\n        /* \"#utility.yul\":14237:14243   */\n      dup3\n        /* \"#utility.yul\":14233:14247   */\n      add\n        /* \"#utility.yul\":14223:14247   */\n      swap2\n      pop\n        /* \"#utility.yul\":14292:14294   */\n      0x20\n        /* \"#utility.yul\":14281:14290   */\n      dup6\n        /* \"#utility.yul\":14277:14295   */\n      add\n        /* \"#utility.yul\":14264:14295   */\n      swap5\n      pop\n        /* \"#utility.yul\":14138:14142   */\n      0x20\n        /* \"#utility.yul\":14135:14136   */\n      dup2\n        /* \"#utility.yul\":14131:14143   */\n      add\n        /* \"#utility.yul\":14126:14143   */\n      swap1\n      pop\n        /* \"#utility.yul\":14101:14309   */\n      jump(tag_255)\n    tag_257:\n        /* \"#utility.yul\":14337:14343   */\n      dup7\n        /* \"#utility.yul\":14328:14335   */\n      dup4\n        /* \"#utility.yul\":14325:14344   */\n      lt\n        /* \"#utility.yul\":14322:14501   */\n      iszero\n      tag_258\n      jumpi\n        /* \"#utility.yul\":14395:14404   */\n      dup5\n        /* \"#utility.yul\":14390:14393   */\n      dup10\n        /* \"#utility.yul\":14386:14405   */\n      add\n        /* \"#utility.yul\":14380:14406   */\n      mload\n        /* \"#utility.yul\":14438:14486   */\n      tag_259\n        /* \"#utility.yul\":14480:14484   */\n      0x1f\n        /* \"#utility.yul\":14472:14478   */\n      dup10\n        /* \"#utility.yul\":14468:14485   */\n      and\n        /* \"#utility.yul\":14457:14466   */\n      dup3\n        /* \"#utility.yul\":14438:14486   */\n      tag_102\n      jump\t// in\n    tag_259:\n        /* \"#utility.yul\":14430:14436   */\n      dup4\n        /* \"#utility.yul\":14423:14487   */\n      sstore\n        /* \"#utility.yul\":14345:14501   */\n      pop\n        /* \"#utility.yul\":14322:14501   */\n    tag_258:\n        /* \"#utility.yul\":14547:14548   */\n      0x01\n        /* \"#utility.yul\":14543:14544   */\n      0x02\n        /* \"#utility.yul\":14535:14541   */\n      dup9\n        /* \"#utility.yul\":14531:14545   */\n      mul\n        /* \"#utility.yul\":14527:14549   */\n      add\n        /* \"#utility.yul\":14521:14525   */\n      dup9\n        /* \"#utility.yul\":14514:14550   */\n      sstore\n        /* \"#utility.yul\":13949:14560   */\n      pop\n      pop\n      pop\n        /* \"#utility.yul\":13912:14799   */\n    tag_250:\n      pop\n        /* \"#utility.yul\":13502:14805   */\n      pop\n      pop\n      pop\n        /* \"#utility.yul\":13410:14805   */\n      pop\n      pop\n      jump\t// out\n        /* \"#utility.yul\":14811:14959   */\n    tag_104:\n        /* \"#utility.yul\":14913:14924   */\n      0x00\n        /* \"#utility.yul\":14950:14953   */\n      dup2\n        /* \"#utility.yul\":14935:14953   */\n      swap1\n      pop\n        /* \"#utility.yul\":14811:14959   */\n      swap3\n      swap2\n      pop\n      pop\n      jump\t// out\n        /* \"#utility.yul\":14965:15355   */\n    tag_105:\n        /* \"#utility.yul\":15071:15074   */\n      0x00\n        /* \"#utility.yul\":15099:15138   */\n      tag_262\n        /* \"#utility.yul\":15132:15137   */\n      dup3\n        /* \"#utility.yul\":15099:15138   */\n      tag_63\n      jump\t// in\n    tag_262:\n        /* \"#utility.yul\":15154:15243   */\n      tag_263\n        /* \"#utility.yul\":15236:15242   */\n      dup2\n        /* \"#utility.yul\":15231:15234   */\n      dup6\n        /* \"#utility.yul\":15154:15243   */\n      tag_104\n      jump\t// in\n    tag_263:\n        /* \"#utility.yul\":15147:15243   */\n      swap4\n      pop\n        /* \"#utility.yul\":15252:15317   */\n      tag_264\n        /* \"#utility.yul\":15310:15316   */\n      dup2\n        /* \"#utility.yul\":15305:15308   */\n      dup6\n        /* \"#utility.yul\":15298:15302   */\n      0x20\n        /* \"#utility.yul\":15291:15296   */\n      dup7\n        /* \"#utility.yul\":15287:15303   */\n      add\n        /* \"#utility.yul\":15252:15317   */\n      tag_65\n      jump\t// in\n    tag_264:\n        /* \"#utility.yul\":15342:15348   */\n      dup1\n        /* \"#utility.yul\":15337:15340   */\n      dup5\n        /* \"#utility.yul\":15333:15349   */\n      add\n        /* \"#utility.yul\":15326:15349   */\n      swap2\n      pop\n        /* \"#utility.yul\":15075:15355   */\n      pop\n        /* \"#utility.yul\":14965:15355   */\n      swap3\n      swap2\n      pop\n      pop\n      jump\t// out\n        /* \"#utility.yul\":15361:15636   */\n    tag_45:\n        /* \"#utility.yul\":15493:15496   */\n      0x00\n        /* \"#utility.yul\":15515:15610   */\n      tag_266\n        /* \"#utility.yul\":15606:15609   */\n      dup3\n        /* \"#utility.yul\":15597:15603   */\n      dup5\n        /* \"#utility.yul\":15515:15610   */\n      tag_105\n      jump\t// in\n    tag_266:\n        /* \"#utility.yul\":15508:15610   */\n      swap2\n      pop\n        /* \"#utility.yul\":15627:15630   */\n      dup2\n        /* \"#utility.yul\":15620:15630   */\n      swap1\n      pop\n        /* \"#utility.yul\":15361:15636   */\n      swap3\n      swap2\n      pop\n      pop\n      jump\t// out\n\n    auxdata: 0xa264697066735822122071a0c6b15d7e45a358faf9eadb81fef2291d5b00e9427002949f76d2cdda48e864736f6c634300081a0033\n}\n",
				"bytecode": {
					"linkReferences": {},
					"object": "6080604052348015600e575f80fd5b50610b608061001c5f395ff3fe608060405234801561000f575f80fd5b5060043610610055575f3560e01c80632a11ced0146100595780636131bdab1461008a5780637480f4b1146100a6578063876b1566146100d6578063a65dd261146100f4575b5f80fd5b610073600480360381019061006e91906103e7565b610124565b604051610081929190610491565b60405180910390f35b6100a4600480360381019061009f91906105eb565b6101d8565b005b6100c060048036038101906100bb9190610645565b61025b565b6040516100cd919061068c565b60405180910390f35b6100de610288565b6040516100eb91906107f1565b60405180910390f35b61010e60048036038101906101099190610645565b61037c565b60405161011b919061068c565b60405180910390f35b5f8181548110610132575f80fd5b905f5260205f2090600202015f91509050805f0180546101519061083e565b80601f016020809104026020016040519081016040528092919081815260200182805461017d9061083e565b80156101c85780601f1061019f576101008083540402835291602001916101c8565b820191905f5260205f20905b8154815290600101906020018083116101ab57829003601f168201915b5050505050908060010154905082565b5f604051806040016040528083815260200184815250908060018154018082558091505060019003905f5260205f2090600202015f909190919091505f820151815f0190816102279190610a0b565b50602082015181600101555050816001826040516102459190610b14565b9081526020016040518091039020819055505050565b6001818051602081018201805184825260208301602085012081835280955050505050505f915090505481565b60605f805480602002602001604051908101604052809291908181526020015f905b82821015610373578382905f5260205f2090600202016040518060400160405290815f820180546102da9061083e565b80601f01602080910402602001604051908101604052809291908181526020018280546103069061083e565b80156103515780601f1061032857610100808354040283529160200191610351565b820191905f5260205f20905b81548152906001019060200180831161033457829003601f168201915b50505050508152602001600182015481525050815260200190600101906102aa565b50505050905090565b5f60018260405161038d9190610b14565b9081526020016040518091039020549050919050565b5f604051905090565b5f80fd5b5f80fd5b5f819050919050565b6103c6816103b4565b81146103d0575f80fd5b50565b5f813590506103e1816103bd565b92915050565b5f602082840312156103fc576103fb6103ac565b5b5f610409848285016103d3565b91505092915050565b5f81519050919050565b5f82825260208201905092915050565b8281835e5f83830152505050565b5f601f19601f8301169050919050565b5f61045482610412565b61045e818561041c565b935061046e81856020860161042c565b6104778161043a565b840191505092915050565b61048b816103b4565b82525050565b5f6040820190508181035f8301526104a9818561044a565b90506104b86020830184610482565b9392505050565b5f80fd5b5f80fd5b7f4e487b71000000000000000000000000000000000000000000000000000000005f52604160045260245ffd5b6104fd8261043a565b810181811067ffffffffffffffff8211171561051c5761051b6104c7565b5b80604052505050565b5f61052e6103a3565b905061053a82826104f4565b919050565b5f67ffffffffffffffff821115610559576105586104c7565b5b6105628261043a565b9050602081019050919050565b828183375f83830152505050565b5f61058f61058a8461053f565b610525565b9050828152602081018484840111156105ab576105aa6104c3565b5b6105b684828561056f565b509392505050565b5f82601f8301126105d2576105d16104bf565b5b81356105e284826020860161057d565b91505092915050565b5f8060408385031215610601576106006103ac565b5b5f61060e858286016103d3565b925050602083013567ffffffffffffffff81111561062f5761062e6103b0565b5b61063b858286016105be565b9150509250929050565b5f6020828403121561065a576106596103ac565b5b5f82013567ffffffffffffffff811115610677576106766103b0565b5b610683848285016105be565b91505092915050565b5f60208201905061069f5f830184610482565b92915050565b5f81519050919050565b5f82825260208201905092915050565b5f819050602082019050919050565b5f82825260208201905092915050565b5f6106e882610412565b6106f281856106ce565b935061070281856020860161042c565b61070b8161043a565b840191505092915050565b61071f816103b4565b82525050565b5f604083015f8301518482035f86015261073f82826106de565b91505060208301516107546020860182610716565b508091505092915050565b5f61076a8383610725565b905092915050565b5f602082019050919050565b5f610788826106a5565b61079281856106af565b9350836020820285016107a4856106bf565b805f5b858110156107df57848403895281516107c0858261075f565b94506107cb83610772565b925060208a019950506001810190506107a7565b50829750879550505050505092915050565b5f6020820190508181035f830152610809818461077e565b905092915050565b7f4e487b71000000000000000000000000000000000000000000000000000000005f52602260045260245ffd5b5f600282049050600182168061085557607f821691505b60208210810361086857610867610811565b5b50919050565b5f819050815f5260205f209050919050565b5f6020601f8301049050919050565b5f82821b905092915050565b5f600883026108ca7fffffffffffffffffffffffffffffffffffffffffffffffffffffffffffffffff8261088f565b6108d4868361088f565b95508019841693508086168417925050509392505050565b5f819050919050565b5f61090f61090a610905846103b4565b6108ec565b6103b4565b9050919050565b5f819050919050565b610928836108f5565b61093c61093482610916565b84845461089b565b825550505050565b5f90565b610950610944565b61095b81848461091f565b505050565b5b8181101561097e576109735f82610948565b600181019050610961565b5050565b601f8211156109c3576109948161086e565b61099d84610880565b810160208510156109ac578190505b6109c06109b885610880565b830182610960565b50505b505050565b5f82821c905092915050565b5f6109e35f19846008026109c8565b1980831691505092915050565b5f6109fb83836109d4565b9150826002028217905092915050565b610a1482610412565b67ffffffffffffffff811115610a2d57610a2c6104c7565b5b610a37825461083e565b610a42828285610982565b5f60209050601f831160018114610a73575f8415610a61578287015190505b610a6b85826109f0565b865550610ad2565b601f198416610a818661086e565b5f5b82811015610aa857848901518255600182019150602085019450602081019050610a83565b86831015610ac55784890151610ac1601f8916826109d4565b8355505b6001600288020188555050505b505050505050565b5f81905092915050565b5f610aee82610412565b610af88185610ada565b9350610b0881856020860161042c565b80840191505092915050565b5f610b1f8284610ae4565b91508190509291505056fea264697066735822122071a0c6b15d7e45a358faf9eadb81fef2291d5b00e9427002949f76d2cdda48e864736f6c634300081a0033",
					"opcodes": "PUSH1 0x80 PUSH1 0x40 MSTORE CALLVALUE DUP1 ISZERO PUSH1 0xE JUMPI PUSH0 DUP1 REVERT JUMPDEST POP PUSH2 0xB60 DUP1 PUSH2 0x1C PUSH0 CODECOPY PUSH0 RETURN INVALID PUSH1 0x80 PUSH1 0x40 MSTORE CALLVALUE DUP1 ISZERO PUSH2 0xF JUMPI PUSH0 DUP1 REVERT JUMPDEST POP PUSH1 0x4 CALLDATASIZE LT PUSH2 0x55 JUMPI PUSH0 CALLDATALOAD PUSH1 0xE0 SHR DUP1 PUSH4 0x2A11CED0 EQ PUSH2 0x59 JUMPI DUP1 PUSH4 0x6131BDAB EQ PUSH2 0x8A JUMPI DUP1 PUSH4 0x7480F4B1 EQ PUSH2 0xA6 JUMPI DUP1 PUSH4 0x876B1566 EQ PUSH2 0xD6 JUMPI DUP1 PUSH4 0xA65DD261 EQ PUSH2 0xF4 JUMPI JUMPDEST PUSH0 DUP1 REVERT JUMPDEST PUSH2 0x73 PUSH1 0x4 DUP1 CALLDATASIZE SUB DUP2 ADD SWAP1 PUSH2 0x6E SWAP2 SWAP1 PUSH2 0x3E7 JUMP JUMPDEST PUSH2 0x124 JUMP JUMPDEST PUSH1 0x40 MLOAD PUSH2 0x81 SWAP3 SWAP2 SWAP1 PUSH2 0x491 JUMP JUMPDEST PUSH1 0x40 MLOAD DUP1 SWAP2 SUB SWAP1 RETURN JUMPDEST PUSH2 0xA4 PUSH1 0x4 DUP1 CALLDATASIZE SUB DUP2 ADD SWAP1 PUSH2 0x9F SWAP2 SWAP1 PUSH2 0x5EB JUMP JUMPDEST PUSH2 0x1D8 JUMP JUMPDEST STOP JUMPDEST PUSH2 0xC0 PUSH1 0x4 DUP1 CALLDATASIZE SUB DUP2 ADD SWAP1 PUSH2 0xBB SWAP2 SWAP1 PUSH2 0x645 JUMP JUMPDEST PUSH2 0x25B JUMP JUMPDEST PUSH1 0x40 MLOAD PUSH2 0xCD SWAP2 SWAP1 PUSH2 0x68C JUMP JUMPDEST PUSH1 0x40 MLOAD DUP1 SWAP2 SUB SWAP1 RETURN JUMPDEST PUSH2 0xDE PUSH2 0x288 JUMP JUMPDEST PUSH1 0x40 MLOAD PUSH2 0xEB SWAP2 SWAP1 PUSH2 0x7F1 JUMP JUMPDEST PUSH1 0x40 MLOAD DUP1 SWAP2 SUB SWAP1 RETURN JUMPDEST PUSH2 0x10E PUSH1 0x4 DUP1 CALLDATASIZE SUB DUP2 ADD SWAP1 PUSH2 0x109 SWAP2 SWAP1 PUSH2 0x645 JUMP JUMPDEST PUSH2 0x37C JUMP JUMPDEST PUSH1 0x40 MLOAD PUSH2 0x11B SWAP2 SWAP1 PUSH2 0x68C JUMP JUMPDEST PUSH1 0x40 MLOAD DUP1 SWAP2 SUB SWAP1 RETURN JUMPDEST PUSH0 DUP2 DUP2 SLOAD DUP2 LT PUSH2 0x132 JUMPI PUSH0 DUP1 REVERT JUMPDEST SWAP1 PUSH0 MSTORE PUSH1 0x20 PUSH0 KECCAK256 SWAP1 PUSH1 0x2 MUL ADD PUSH0 SWAP2 POP SWAP1 POP DUP1 PUSH0 ADD DUP1 SLOAD PUSH2 0x151 SWAP1 PUSH2 0x83E JUMP JUMPDEST DUP1 PUSH1 0x1F ADD PUSH1 0x20 DUP1 SWAP2 DIV MUL PUSH1 0x20 ADD PUSH1 0x40 MLOAD SWAP1 DUP2 ADD PUSH1 0x40 MSTORE DUP1 SWAP3 SWAP2 SWAP1 DUP2 DUP2 MSTORE PUSH1 0x20 ADD DUP3 DUP1 SLOAD PUSH2 0x17D SWAP1 PUSH2 0x83E JUMP JUMPDEST DUP1 ISZERO PUSH2 0x1C8 JUMPI DUP1 PUSH1 0x1F LT PUSH2 0x19F JUMPI PUSH2 0x100 DUP1 DUP4 SLOAD DIV MUL DUP4 MSTORE SWAP2 PUSH1 0x20 ADD SWAP2 PUSH2 0x1C8 JUMP JUMPDEST DUP3 ADD SWAP2 SWAP1 PUSH0 MSTORE PUSH1 0x20 PUSH0 KECCAK256 SWAP1 JUMPDEST DUP2 SLOAD DUP2 MSTORE SWAP1 PUSH1 0x1 ADD SWAP1 PUSH1 0x20 ADD DUP1 DUP4 GT PUSH2 0x1AB JUMPI DUP3 SWAP1 SUB PUSH1 0x1F AND DUP3 ADD SWAP2 JUMPDEST POP POP POP POP POP SWAP1 DUP1 PUSH1 0x1 ADD SLOAD SWAP1 POP DUP3 JUMP JUMPDEST PUSH0 PUSH1 0x40 MLOAD DUP1 PUSH1 0x40 ADD PUSH1 0x40 MSTORE DUP1 DUP4 DUP2 MSTORE PUSH1 0x20 ADD DUP5 DUP2 MSTORE POP SWAP1 DUP1 PUSH1 0x1 DUP2 SLOAD ADD DUP1 DUP3 SSTORE DUP1 SWAP2 POP POP PUSH1 0x1 SWAP1 SUB SWAP1 PUSH0 MSTORE PUSH1 0x20 PUSH0 KECCAK256 SWAP1 PUSH1 0x2 MUL ADD PUSH0 SWAP1 SWAP2 SWAP1 SWAP2 SWAP1 SWAP2 POP PUSH0 DUP3 ADD MLOAD DUP2 PUSH0 ADD SWAP1 DUP2 PUSH2 0x227 SWAP2 SWAP1 PUSH2 0xA0B JUMP JUMPDEST POP PUSH1 0x20 DUP3 ADD MLOAD DUP2 PUSH1 0x1 ADD SSTORE POP POP DUP2 PUSH1 0x1 DUP3 PUSH1 0x40 MLOAD PUSH2 0x245 SWAP2 SWAP1 PUSH2 0xB14 JUMP JUMPDEST SWAP1 DUP2 MSTORE PUSH1 0x20 ADD PUSH1 0x40 MLOAD DUP1 SWAP2 SUB SWAP1 KECCAK256 DUP2 SWAP1 SSTORE POP POP POP JUMP JUMPDEST PUSH1 0x1 DUP2 DUP1 MLOAD PUSH1 0x20 DUP2 ADD DUP3 ADD DUP1 MLOAD DUP5 DUP3 MSTORE PUSH1 0x20 DUP4 ADD PUSH1 0x20 DUP6 ADD KECCAK256 DUP2 DUP4 MSTORE DUP1 SWAP6 POP POP POP POP POP POP PUSH0 SWAP2 POP SWAP1 POP SLOAD DUP2 JUMP JUMPDEST PUSH1 0x60 PUSH0 DUP1 SLOAD DUP1 PUSH1 0x20 MUL PUSH1 0x20 ADD PUSH1 0x40 MLOAD SWAP1 DUP2 ADD PUSH1 0x40 MSTORE DUP1 SWAP3 SWAP2 SWAP1 DUP2 DUP2 MSTORE PUSH1 0x20 ADD PUSH0 SWAP1 JUMPDEST DUP3 DUP3 LT ISZERO PUSH2 0x373 JUMPI DUP4 DUP3 SWAP1 PUSH0 MSTORE PUSH1 0x20 PUSH0 KECCAK256 SWAP1 PUSH1 0x2 MUL ADD PUSH1 0x40 MLOAD DUP1 PUSH1 0x40 ADD PUSH1 0x40 MSTORE SWAP1 DUP2 PUSH0 DUP3 ADD DUP1 SLOAD PUSH2 0x2DA SWAP1 PUSH2 0x83E JUMP JUMPDEST DUP1 PUSH1 0x1F ADD PUSH1 0x20 DUP1 SWAP2 DIV MUL PUSH1 0x20 ADD PUSH1 0x40 MLOAD SWAP1 DUP2 ADD PUSH1 0x40 MSTORE DUP1 SWAP3 SWAP2 SWAP1 DUP2 DUP2 MSTORE PUSH1 0x20 ADD DUP3 DUP1 SLOAD PUSH2 0x306 SWAP1 PUSH2 0x83E JUMP JUMPDEST DUP1 ISZERO PUSH2 0x351 JUMPI DUP1 PUSH1 0x1F LT PUSH2 0x328 JUMPI PUSH2 0x100 DUP1 DUP4 SLOAD DIV MUL DUP4 MSTORE SWAP2 PUSH1 0x20 ADD SWAP2 PUSH2 0x351 JUMP JUMPDEST DUP3 ADD SWAP2 SWAP1 PUSH0 MSTORE PUSH1 0x20 PUSH0 KECCAK256 SWAP1 JUMPDEST DUP2 SLOAD DUP2 MSTORE SWAP1 PUSH1 0x1 ADD SWAP1 PUSH1 0x20 ADD DUP1 DUP4 GT PUSH2 0x334 JUMPI DUP3 SWAP1 SUB PUSH1 0x1F AND DUP3 ADD SWAP2 JUMPDEST POP POP POP POP POP DUP2 MSTORE PUSH1 0x20 ADD PUSH1 0x1 DUP3 ADD SLOAD DUP2 MSTORE POP POP DUP2 MSTORE PUSH1 0x20 ADD SWAP1 PUSH1 0x1 ADD SWAP1 PUSH2 0x2AA JUMP JUMPDEST POP POP POP POP SWAP1 POP SWAP1 JUMP JUMPDEST PUSH0 PUSH1 0x1 DUP3 PUSH1 0x40 MLOAD PUSH2 0x38D SWAP2 SWAP1 PUSH2 0xB14 JUMP JUMPDEST SWAP1 DUP2 MSTORE PUSH1 0x20 ADD PUSH1 0x40 MLOAD DUP1 SWAP2 SUB SWAP1 KECCAK256 SLOAD SWAP1 POP SWAP2 SWAP1 POP JUMP JUMPDEST PUSH0 PUSH1 0x40 MLOAD SWAP1 POP SWAP1 JUMP JUMPDEST PUSH0 DUP1 REVERT JUMPDEST PUSH0 DUP1 REVERT JUMPDEST PUSH0 DUP2 SWAP1 POP SWAP2 SWAP1 POP JUMP JUMPDEST PUSH2 0x3C6 DUP2 PUSH2 0x3B4 JUMP JUMPDEST DUP2 EQ PUSH2 0x3D0 JUMPI PUSH0 DUP1 REVERT JUMPDEST POP JUMP JUMPDEST PUSH0 DUP2 CALLDATALOAD SWAP1 POP PUSH2 0x3E1 DUP2 PUSH2 0x3BD JUMP JUMPDEST SWAP3 SWAP2 POP POP JUMP JUMPDEST PUSH0 PUSH1 0x20 DUP3 DUP5 SUB SLT ISZERO PUSH2 0x3FC JUMPI PUSH2 0x3FB PUSH2 0x3AC JUMP JUMPDEST JUMPDEST PUSH0 PUSH2 0x409 DUP5 DUP3 DUP6 ADD PUSH2 0x3D3 JUMP JUMPDEST SWAP2 POP POP SWAP3 SWAP2 POP POP JUMP JUMPDEST PUSH0 DUP2 MLOAD SWAP1 POP SWAP2 SWAP1 POP JUMP JUMPDEST PUSH0 DUP3 DUP3 MSTORE PUSH1 0x20 DUP3 ADD SWAP1 POP SWAP3 SWAP2 POP POP JUMP JUMPDEST DUP3 DUP2 DUP4 MCOPY PUSH0 DUP4 DUP4 ADD MSTORE POP POP POP JUMP JUMPDEST PUSH0 PUSH1 0x1F NOT PUSH1 0x1F DUP4 ADD AND SWAP1 POP SWAP2 SWAP1 POP JUMP JUMPDEST PUSH0 PUSH2 0x454 DUP3 PUSH2 0x412 JUMP JUMPDEST PUSH2 0x45E DUP2 DUP6 PUSH2 0x41C JUMP JUMPDEST SWAP4 POP PUSH2 0x46E DUP2 DUP6 PUSH1 0x20 DUP7 ADD PUSH2 0x42C JUMP JUMPDEST PUSH2 0x477 DUP2 PUSH2 0x43A JUMP JUMPDEST DUP5 ADD SWAP2 POP POP SWAP3 SWAP2 POP POP JUMP JUMPDEST PUSH2 0x48B DUP2 PUSH2 0x3B4 JUMP JUMPDEST DUP3 MSTORE POP POP JUMP JUMPDEST PUSH0 PUSH1 0x40 DUP3 ADD SWAP1 POP DUP2 DUP2 SUB PUSH0 DUP4 ADD MSTORE PUSH2 0x4A9 DUP2 DUP6 PUSH2 0x44A JUMP JUMPDEST SWAP1 POP PUSH2 0x4B8 PUSH1 0x20 DUP4 ADD DUP5 PUSH2 0x482 JUMP JUMPDEST SWAP4 SWAP3 POP POP POP JUMP JUMPDEST PUSH0 DUP1 REVERT JUMPDEST PUSH0 DUP1 REVERT JUMPDEST PUSH32 0x4E487B7100000000000000000000000000000000000000000000000000000000 PUSH0 MSTORE PUSH1 0x41 PUSH1 0x4 MSTORE PUSH1 0x24 PUSH0 REVERT JUMPDEST PUSH2 0x4FD DUP3 PUSH2 0x43A JUMP JUMPDEST DUP2 ADD DUP2 DUP2 LT PUSH8 0xFFFFFFFFFFFFFFFF DUP3 GT OR ISZERO PUSH2 0x51C JUMPI PUSH2 0x51B PUSH2 0x4C7 JUMP JUMPDEST JUMPDEST DUP1 PUSH1 0x40 MSTORE POP POP POP JUMP JUMPDEST PUSH0 PUSH2 0x52E PUSH2 0x3A3 JUMP JUMPDEST SWAP1 POP PUSH2 0x53A DUP3 DUP3 PUSH2 0x4F4 JUMP JUMPDEST SWAP2 SWAP1 POP JUMP JUMPDEST PUSH0 PUSH8 0xFFFFFFFFFFFFFFFF DUP3 GT ISZERO PUSH2 0x559 JUMPI PUSH2 0x558 PUSH2 0x4C7 JUMP JUMPDEST JUMPDEST PUSH2 0x562 DUP3 PUSH2 0x43A JUMP JUMPDEST SWAP1 POP PUSH1 0x20 DUP2 ADD SWAP1 POP SWAP2 SWAP1 POP JUMP JUMPDEST DUP3 DUP2 DUP4 CALLDATACOPY PUSH0 DUP4 DUP4 ADD MSTORE POP POP POP JUMP JUMPDEST PUSH0 PUSH2 0x58F PUSH2 0x58A DUP5 PUSH2 0x53F JUMP JUMPDEST PUSH2 0x525 JUMP JUMPDEST SWAP1 POP DUP3 DUP2 MSTORE PUSH1 0x20 DUP2 ADD DUP5 DUP5 DUP5 ADD GT ISZERO PUSH2 0x5AB JUMPI PUSH2 0x5AA PUSH2 0x4C3 JUMP JUMPDEST JUMPDEST PUSH2 0x5B6 DUP5 DUP3 DUP6 PUSH2 0x56F JUMP JUMPDEST POP SWAP4 SWAP3 POP POP POP JUMP JUMPDEST PUSH0 DUP3 PUSH1 0x1F DUP4 ADD SLT PUSH2 0x5D2 JUMPI PUSH2 0x5D1 PUSH2 0x4BF JUMP JUMPDEST JUMPDEST DUP2 CALLDATALOAD PUSH2 0x5E2 DUP5 DUP3 PUSH1 0x20 DUP7 ADD PUSH2 0x57D JUMP JUMPDEST SWAP2 POP POP SWAP3 SWAP2 POP POP JUMP JUMPDEST PUSH0 DUP1 PUSH1 0x40 DUP4 DUP6 SUB SLT ISZERO PUSH2 0x601 JUMPI PUSH2 0x600 PUSH2 0x3AC JUMP JUMPDEST JUMPDEST PUSH0 PUSH2 0x60E DUP6 DUP3 DUP7 ADD PUSH2 0x3D3 JUMP JUMPDEST SWAP3 POP POP PUSH1 0x20 DUP4 ADD CALLDATALOAD PUSH8 0xFFFFFFFFFFFFFFFF DUP2 GT ISZERO PUSH2 0x62F JUMPI PUSH2 0x62E PUSH2 0x3B0 JUMP JUMPDEST JUMPDEST PUSH2 0x63B DUP6 DUP3 DUP7 ADD PUSH2 0x5BE JUMP JUMPDEST SWAP2 POP POP SWAP3 POP SWAP3 SWAP1 POP JUMP JUMPDEST PUSH0 PUSH1 0x20 DUP3 DUP5 SUB SLT ISZERO PUSH2 0x65A JUMPI PUSH2 0x659 PUSH2 0x3AC JUMP JUMPDEST JUMPDEST PUSH0 DUP3 ADD CALLDATALOAD PUSH8 0xFFFFFFFFFFFFFFFF DUP2 GT ISZERO PUSH2 0x677 JUMPI PUSH2 0x676 PUSH2 0x3B0 JUMP JUMPDEST JUMPDEST PUSH2 0x683 DUP5 DUP3 DUP6 ADD PUSH2 0x5BE JUMP JUMPDEST SWAP2 POP POP SWAP3 SWAP2 POP POP JUMP JUMPDEST PUSH0 PUSH1 0x20 DUP3 ADD SWAP1 POP PUSH2 0x69F PUSH0 DUP4 ADD DUP5 PUSH2 0x482 JUMP JUMPDEST SWAP3 SWAP2 POP POP JUMP JUMPDEST PUSH0 DUP2 MLOAD SWAP1 POP SWAP2 SWAP1 POP JUMP JUMPDEST PUSH0 DUP3 DUP3 MSTORE PUSH1 0x20 DUP3 ADD SWAP1 POP SWAP3 SWAP2 POP POP JUMP JUMPDEST PUSH0 DUP2 SWAP1 POP PUSH1 0x20 DUP3 ADD SWAP1 POP SWAP2 SWAP1 POP JUMP JUMPDEST PUSH0 DUP3 DUP3 MSTORE PUSH1 0x20 DUP3 ADD SWAP1 POP SWAP3 SWAP2 POP POP JUMP JUMPDEST PUSH0 PUSH2 0x6E8 DUP3 PUSH2 0x412 JUMP JUMPDEST PUSH2 0x6F2 DUP2 DUP6 PUSH2 0x6CE JUMP JUMPDEST SWAP4 POP PUSH2 0x702 DUP2 DUP6 PUSH1 0x20 DUP7 ADD PUSH2 0x42C JUMP JUMPDEST PUSH2 0x70B DUP2 PUSH2 0x43A JUMP JUMPDEST DUP5 ADD SWAP2 POP POP SWAP3 SWAP2 POP POP JUMP JUMPDEST PUSH2 0x71F DUP2 PUSH2 0x3B4 JUMP JUMPDEST DUP3 MSTORE POP POP JUMP JUMPDEST PUSH0 PUSH1 0x40 DUP4 ADD PUSH0 DUP4 ADD MLOAD DUP5 DUP3 SUB PUSH0 DUP7 ADD MSTORE PUSH2 0x73F DUP3 DUP3 PUSH2 0x6DE JUMP JUMPDEST SWAP2 POP POP PUSH1 0x20 DUP4 ADD MLOAD PUSH2 0x754 PUSH1 0x20 DUP7 ADD DUP3 PUSH2 0x716 JUMP JUMPDEST POP DUP1 SWAP2 POP POP SWAP3 SWAP2 POP POP JUMP JUMPDEST PUSH0 PUSH2 0x76A DUP4 DUP4 PUSH2 0x725 JUMP JUMPDEST SWAP1 POP SWAP3 SWAP2 POP POP JUMP JUMPDEST PUSH0 PUSH1 0x20 DUP3 ADD SWAP1 POP SWAP2 SWAP1 POP JUMP JUMPDEST PUSH0 PUSH2 0x788 DUP3 PUSH2 0x6A5 JUMP JUMPDEST PUSH2 0x792 DUP2 DUP6 PUSH2 0x6AF JUMP JUMPDEST SWAP4 POP DUP4 PUSH1 0x20 DUP3 MUL DUP6 ADD PUSH2 0x7A4 DUP6 PUSH2 0x6BF JUMP JUMPDEST DUP1 PUSH0 JUMPDEST DUP6 DUP2 LT ISZERO PUSH2 0x7DF JUMPI DUP5 DUP5 SUB DUP10 MSTORE DUP2 MLOAD PUSH2 0x7C0 DUP6 DUP3 PUSH2 0x75F JUMP JUMPDEST SWAP5 POP PUSH2 0x7CB DUP4 PUSH2 0x772 JUMP JUMPDEST SWAP3 POP PUSH1 0x20 DUP11 ADD SWAP10 POP POP PUSH1 0x1 DUP2 ADD SWAP1 POP PUSH2 0x7A7 JUMP JUMPDEST POP DUP3 SWAP8 POP DUP8 SWAP6 POP POP POP POP POP POP SWAP3 SWAP2 POP POP JUMP JUMPDEST PUSH0 PUSH1 0x20 DUP3 ADD SWAP1 POP DUP2 DUP2 SUB PUSH0 DUP4 ADD MSTORE PUSH2 0x809 DUP2 DUP5 PUSH2 0x77E JUMP JUMPDEST SWAP1 POP SWAP3 SWAP2 POP POP JUMP JUMPDEST PUSH32 0x4E487B7100000000000000000000000000000000000000000000000000000000 PUSH0 MSTORE PUSH1 0x22 PUSH1 0x4 MSTORE PUSH1 0x24 PUSH0 REVERT JUMPDEST PUSH0 PUSH1 0x2 DUP3 DIV SWAP1 POP PUSH1 0x1 DUP3 AND DUP1 PUSH2 0x855 JUMPI PUSH1 0x7F DUP3 AND SWAP2 POP JUMPDEST PUSH1 0x20 DUP3 LT DUP2 SUB PUSH2 0x868 JUMPI PUSH2 0x867 PUSH2 0x811 JUMP JUMPDEST JUMPDEST POP SWAP2 SWAP1 POP JUMP JUMPDEST PUSH0 DUP2 SWAP1 POP DUP2 PUSH0 MSTORE PUSH1 0x20 PUSH0 KECCAK256 SWAP1 POP SWAP2 SWAP1 POP JUMP JUMPDEST PUSH0 PUSH1 0x20 PUSH1 0x1F DUP4 ADD DIV SWAP1 POP SWAP2 SWAP1 POP JUMP JUMPDEST PUSH0 DUP3 DUP3 SHL SWAP1 POP SWAP3 SWAP2 POP POP JUMP JUMPDEST PUSH0 PUSH1 0x8 DUP4 MUL PUSH2 0x8CA PUSH32 0xFFFFFFFFFFFFFFFFFFFFFFFFFFFFFFFFFFFFFFFFFFFFFFFFFFFFFFFFFFFFFFFF DUP3 PUSH2 0x88F JUMP JUMPDEST PUSH2 0x8D4 DUP7 DUP4 PUSH2 0x88F JUMP JUMPDEST SWAP6 POP DUP1 NOT DUP5 AND SWAP4 POP DUP1 DUP7 AND DUP5 OR SWAP3 POP POP POP SWAP4 SWAP3 POP POP POP JUMP JUMPDEST PUSH0 DUP2 SWAP1 POP SWAP2 SWAP1 POP JUMP JUMPDEST PUSH0 PUSH2 0x90F PUSH2 0x90A PUSH2 0x905 DUP5 PUSH2 0x3B4 JUMP JUMPDEST PUSH2 0x8EC JUMP JUMPDEST PUSH2 0x3B4 JUMP JUMPDEST SWAP1 POP SWAP2 SWAP1 POP JUMP JUMPDEST PUSH0 DUP2 SWAP1 POP SWAP2 SWAP1 POP JUMP JUMPDEST PUSH2 0x928 DUP4 PUSH2 0x8F5 JUMP JUMPDEST PUSH2 0x93C PUSH2 0x934 DUP3 PUSH2 0x916 JUMP JUMPDEST DUP5 DUP5 SLOAD PUSH2 0x89B JUMP JUMPDEST DUP3 SSTORE POP POP POP POP JUMP JUMPDEST PUSH0 SWAP1 JUMP JUMPDEST PUSH2 0x950 PUSH2 0x944 JUMP JUMPDEST PUSH2 0x95B DUP2 DUP5 DUP5 PUSH2 0x91F JUMP JUMPDEST POP POP POP JUMP JUMPDEST JUMPDEST DUP2 DUP2 LT ISZERO PUSH2 0x97E JUMPI PUSH2 0x973 PUSH0 DUP3 PUSH2 0x948 JUMP JUMPDEST PUSH1 0x1 DUP2 ADD SWAP1 POP PUSH2 0x961 JUMP JUMPDEST POP POP JUMP JUMPDEST PUSH1 0x1F DUP3 GT ISZERO PUSH2 0x9C3 JUMPI PUSH2 0x994 DUP2 PUSH2 0x86E JUMP JUMPDEST PUSH2 0x99D DUP5 PUSH2 0x880 JUMP JUMPDEST DUP2 ADD PUSH1 0x20 DUP6 LT ISZERO PUSH2 0x9AC JUMPI DUP2 SWAP1 POP JUMPDEST PUSH2 0x9C0 PUSH2 0x9B8 DUP6 PUSH2 0x880 JUMP JUMPDEST DUP4 ADD DUP3 PUSH2 0x960 JUMP JUMPDEST POP POP JUMPDEST POP POP POP JUMP JUMPDEST PUSH0 DUP3 DUP3 SHR SWAP1 POP SWAP3 SWAP2 POP POP JUMP JUMPDEST PUSH0 PUSH2 0x9E3 PUSH0 NOT DUP5 PUSH1 0x8 MUL PUSH2 0x9C8 JUMP JUMPDEST NOT DUP1 DUP4 AND SWAP2 POP POP SWAP3 SWAP2 POP POP JUMP JUMPDEST PUSH0 PUSH2 0x9FB DUP4 DUP4 PUSH2 0x9D4 JUMP JUMPDEST SWAP2 POP DUP3 PUSH1 0x2 MUL DUP3 OR SWAP1 POP SWAP3 SWAP2 POP POP JUMP JUMPDEST PUSH2 0xA14 DUP3 PUSH2 0x412 JUMP JUMPDEST PUSH8 0xFFFFFFFFFFFFFFFF DUP2 GT ISZERO PUSH2 0xA2D JUMPI PUSH2 0xA2C PUSH2 0x4C7 JUMP JUMPDEST JUMPDEST PUSH2 0xA37 DUP3 SLOAD PUSH2 0x83E JUMP JUMPDEST PUSH2 0xA42 DUP3 DUP3 DUP6 PUSH2 0x982 JUMP JUMPDEST PUSH0 PUSH1 0x20 SWAP1 POP PUSH1 0x1F DUP4 GT PUSH1 0x1 DUP2 EQ PUSH2 0xA73 JUMPI PUSH0 DUP5 ISZERO PUSH2 0xA61 JUMPI DUP3 DUP8 ADD MLOAD SWAP1 POP JUMPDEST PUSH2 0xA6B DUP6 DUP3 PUSH2 0x9F0 JUMP JUMPDEST DUP7 SSTORE POP PUSH2 0xAD2 JUMP JUMPDEST PUSH1 0x1F NOT DUP5 AND PUSH2 0xA81 DUP7 PUSH2 0x86E JUMP JUMPDEST PUSH0 JUMPDEST DUP3 DUP2 LT ISZERO PUSH2 0xAA8 JUMPI DUP5 DUP10 ADD MLOAD DUP3 SSTORE PUSH1 0x1 DUP3 ADD SWAP2 POP PUSH1 0x20 DUP6 ADD SWAP5 POP PUSH1 0x20 DUP2 ADD SWAP1 POP PUSH2 0xA83 JUMP JUMPDEST DUP7 DUP4 LT ISZERO PUSH2 0xAC5 JUMPI DUP5 DUP10 ADD MLOAD PUSH2 0xAC1 PUSH1 0x1F DUP10 AND DUP3 PUSH2 0x9D4 JUMP JUMPDEST DUP4 SSTORE POP JUMPDEST PUSH1 0x1 PUSH1 0x2 DUP9 MUL ADD DUP9 SSTORE POP POP POP JUMPDEST POP POP POP POP POP POP JUMP JUMPDEST PUSH0 DUP2 SWAP1 POP SWAP3 SWAP2 POP POP JUMP JUMPDEST PUSH0 PUSH2 0xAEE DUP3 PUSH2 0x412 JUMP JUMPDEST PUSH2 0xAF8 DUP2 DUP6 PUSH2 0xADA JUMP JUMPDEST SWAP4 POP PUSH2 0xB08 DUP2 DUP6 PUSH1 0x20 DUP7 ADD PUSH2 0x42C JUMP JUMPDEST DUP1 DUP5 ADD SWAP2 POP POP SWAP3 SWAP2 POP POP JUMP JUMPDEST PUSH0 PUSH2 0xB1F DUP3 DUP5 PUSH2 0xAE4 JUMP JUMPDEST SWAP2 POP DUP2 SWAP1 POP SWAP3 SWAP2 POP POP JUMP INVALID LOG2 PUSH5 0x6970667358 0x22 SLT KECCAK256 PUSH18 0xA0C6B15D7E45A358FAF9EADB81FEF2291D5B STOP 0xE9 TIMESTAMP PUSH17 0x2949F76D2CDDA48E864736F6C63430008 BYTE STOP CALLER "
				},
				"gasEstimates": {
					"creation": {
						"codeDepositCost": "582400",
						"executionCost": "611",
						"totalCost": "583011"
					},
					"external": {
						"getTokenHolders()": "infinite",
						"getTokens(string)": "infinite",
						"holderMapTokenCounts(string)": "infinite",
						"holders(uint256)": "infinite",
						"setToken(uint256,string)": "infinite"
					}
				},
				"methodIdentifiers": {
					"getTokenHolders()": "876b1566",
					"getTokens(string)": "a65dd261",
					"holderMapTokenCounts(string)": "7480f4b1",
					"holders(uint256)": "2a11ced0",
					"setToken(uint256,string)": "6131bdab"
				}
			},
			"storageLayout": {
				"storage": [
					{
						"astId": 10,
						"contract": "Simple_Storage/simpleStorage.sol:simpleStorage",
						"label": "holders",
						"offset": 0,
						"slot": "0",
						"type": "t_array(t_struct(tokenHolder)6_storage)dyn_storage"
					},
					{
						"astId": 14,
						"contract": "Simple_Storage/simpleStorage.sol:simpleStorage",
						"label": "holderMapTokenCounts",
						"offset": 0,
						"slot": "1",
						"type": "t_mapping(t_string_memory_ptr,t_uint256)"
					}
				],
				"types": {
					"t_array(t_struct(tokenHolder)6_storage)dyn_storage": {
						"base": "t_struct(tokenHolder)6_storage",
						"encoding": "dynamic_array",
						"label": "struct simpleStorage.tokenHolder[]",
						"numberOfBytes": "32"
					},
					"t_mapping(t_string_memory_ptr,t_uint256)": {
						"encoding": "mapping",
						"key": "t_string_memory_ptr",
						"label": "mapping(string => uint256)",
						"numberOfBytes": "32",
						"value": "t_uint256"
					},
					"t_string_memory_ptr": {
						"encoding": "bytes",
						"label": "string",
						"numberOfBytes": "32"
					},
					"t_string_storage": {
						"encoding": "bytes",
						"label": "string",
						"numberOfBytes": "32"
					},
					"t_struct(tokenHolder)6_storage": {
						"encoding": "inplace",
						"label": "struct simpleStorage.tokenHolder",
						"members": [
							{
								"astId": 3,
								"contract": "Simple_Storage/simpleStorage.sol:simpleStorage",
								"label": "name",
								"offset": 0,
								"slot": "0",
								"type": "t_string_storage"
							},
							{
								"astId": 5,
								"contract": "Simple_Storage/simpleStorage.sol:simpleStorage",
								"label": "token",
								"offset": 0,
								"slot": "1",
								"type": "t_uint256"
							}
						],
						"numberOfBytes": "64"
					},
					"t_uint256": {
						"encoding": "inplace",
						"label": "uint256",
						"numberOfBytes": "32"
					}
				}
			},
			"userdoc": {
				"kind": "user",
				"methods": {},
				"version": 1
			}
		}
	}
}