{
	"FundMe/contracts/PracticeInterface/CheckInterfaceViaAddress.sol": {
		"CheckInterfaceViaAddress": {
			"abi": [
				{
					"inputs": [],
					"name": "latestRoundData",
					"outputs": [
						{
							"internalType": "int256",
							"name": "",
							"type": "int256"
						}
					],
					"stateMutability": "view",
					"type": "function"
				}
			],
			"devdoc": {
				"kind": "dev",
				"methods": {},
				"version": 1
			},
			"evm": {
				"assembly": "    /* \"FundMe/contracts/PracticeInterface/CheckInterfaceViaAddress.sol\":96:301  contract CheckInterfaceViaAddress {... */\n  mstore(0x40, 0x80)\n  callvalue\n  dup1\n  iszero\n  tag_1\n  jumpi\n  0x00\n  dup1\n  revert\ntag_1:\n  pop\n  dataSize(sub_0)\n  dup1\n  dataOffset(sub_0)\n  0x00\n  codecopy\n  0x00\n  return\nstop\n\nsub_0: assembly {\n        /* \"FundMe/contracts/PracticeInterface/CheckInterfaceViaAddress.sol\":96:301  contract CheckInterfaceViaAddress {... */\n      mstore(0x40, 0x80)\n      callvalue\n      dup1\n      iszero\n      tag_1\n      jumpi\n      0x00\n      dup1\n      revert\n    tag_1:\n      pop\n      jumpi(tag_2, lt(calldatasize, 0x04))\n      shr(0xe0, calldataload(0x00))\n      dup1\n      0xfeaf968c\n      eq\n      tag_3\n      jumpi\n    tag_2:\n      0x00\n      dup1\n      revert\n        /* \"FundMe/contracts/PracticeInterface/CheckInterfaceViaAddress.sol\":137:298  function latestRoundData() public view returns(int256){... */\n    tag_3:\n      tag_4\n      tag_5\n      jump\t// in\n    tag_4:\n      mload(0x40)\n      tag_6\n      swap2\n      swap1\n      tag_7\n      jump\t// in\n    tag_6:\n      mload(0x40)\n      dup1\n      swap2\n      sub\n      swap1\n      return\n    tag_5:\n        /* \"FundMe/contracts/PracticeInterface/CheckInterfaceViaAddress.sol\":184:190  int256 */\n      0x00\n        /* \"FundMe/contracts/PracticeInterface/CheckInterfaceViaAddress.sol\":230:272  0x1d142a62E2e98474093545D4A3A0f7DB9503B8BD */\n      0x1d142a62e2e98474093545d4a3a0f7db9503b8bd\n        /* \"FundMe/contracts/PracticeInterface/CheckInterfaceViaAddress.sol\":208:289  AggregatorV3Interface(0x1d142a62E2e98474093545D4A3A0f7DB9503B8BD).latestRoundData */\n      0xffffffffffffffffffffffffffffffffffffffff\n      and\n      0xfeaf968c\n        /* \"FundMe/contracts/PracticeInterface/CheckInterfaceViaAddress.sol\":208:291  AggregatorV3Interface(0x1d142a62E2e98474093545D4A3A0f7DB9503B8BD).latestRoundData() */\n      mload(0x40)\n      dup2\n      0xffffffff\n      and\n      0xe0\n      shl\n      dup2\n      mstore\n      0x04\n      add\n      0x20\n      mload(0x40)\n      dup1\n      dup4\n      sub\n      dup2\n      dup7\n      gas\n      staticcall\n      iszero\n      dup1\n      iszero\n      tag_10\n      jumpi\n      returndatasize\n      0x00\n      dup1\n      returndatacopy\n      revert(0x00, returndatasize)\n    tag_10:\n      pop\n      pop\n      pop\n      pop\n      mload(0x40)\n      returndatasize\n      not(0x1f)\n      0x1f\n      dup3\n      add\n      and\n      dup3\n      add\n      dup1\n      0x40\n      mstore\n      pop\n      dup2\n      add\n      swap1\n      tag_11\n      swap2\n      swap1\n      tag_12\n      jump\t// in\n    tag_11:\n        /* \"FundMe/contracts/PracticeInterface/CheckInterfaceViaAddress.sol\":201:291  return AggregatorV3Interface(0x1d142a62E2e98474093545D4A3A0f7DB9503B8BD).latestRoundData() */\n      swap1\n      pop\n        /* \"FundMe/contracts/PracticeInterface/CheckInterfaceViaAddress.sol\":137:298  function latestRoundData() public view returns(int256){... */\n      swap1\n      jump\t// out\n        /* \"#utility.yul\":7:83   */\n    tag_13:\n        /* \"#utility.yul\":43:50   */\n      0x00\n        /* \"#utility.yul\":72:77   */\n      dup2\n        /* \"#utility.yul\":61:77   */\n      swap1\n      pop\n        /* \"#utility.yul\":7:83   */\n      swap2\n      swap1\n      pop\n      jump\t// out\n        /* \"#utility.yul\":89:204   */\n    tag_14:\n        /* \"#utility.yul\":174:197   */\n      tag_23\n        /* \"#utility.yul\":191:196   */\n      dup2\n        /* \"#utility.yul\":174:197   */\n      tag_13\n      jump\t// in\n    tag_23:\n        /* \"#utility.yul\":169:172   */\n      dup3\n        /* \"#utility.yul\":162:198   */\n      mstore\n        /* \"#utility.yul\":89:204   */\n      pop\n      pop\n      jump\t// out\n        /* \"#utility.yul\":210:428   */\n    tag_7:\n        /* \"#utility.yul\":301:305   */\n      0x00\n        /* \"#utility.yul\":339:341   */\n      0x20\n        /* \"#utility.yul\":328:337   */\n      dup3\n        /* \"#utility.yul\":324:342   */\n      add\n        /* \"#utility.yul\":316:342   */\n      swap1\n      pop\n        /* \"#utility.yul\":352:421   */\n      tag_25\n        /* \"#utility.yul\":418:419   */\n      0x00\n        /* \"#utility.yul\":407:416   */\n      dup4\n        /* \"#utility.yul\":403:420   */\n      add\n        /* \"#utility.yul\":394:400   */\n      dup5\n        /* \"#utility.yul\":352:421   */\n      tag_14\n      jump\t// in\n    tag_25:\n        /* \"#utility.yul\":210:428   */\n      swap3\n      swap2\n      pop\n      pop\n      jump\t// out\n        /* \"#utility.yul\":515:632   */\n    tag_16:\n        /* \"#utility.yul\":624:625   */\n      0x00\n        /* \"#utility.yul\":621:622   */\n      dup1\n        /* \"#utility.yul\":614:626   */\n      revert\n        /* \"#utility.yul\":761:881   */\n    tag_18:\n        /* \"#utility.yul\":833:856   */\n      tag_30\n        /* \"#utility.yul\":850:855   */\n      dup2\n        /* \"#utility.yul\":833:856   */\n      tag_13\n      jump\t// in\n    tag_30:\n        /* \"#utility.yul\":826:831   */\n      dup2\n        /* \"#utility.yul\":823:857   */\n      eq\n        /* \"#utility.yul\":813:875   */\n      tag_31\n      jumpi\n        /* \"#utility.yul\":871:872   */\n      0x00\n        /* \"#utility.yul\":868:869   */\n      dup1\n        /* \"#utility.yul\":861:873   */\n      revert\n        /* \"#utility.yul\":813:875   */\n    tag_31:\n        /* \"#utility.yul\":761:881   */\n      pop\n      jump\t// out\n        /* \"#utility.yul\":887:1028   */\n    tag_19:\n        /* \"#utility.yul\":943:948   */\n      0x00\n        /* \"#utility.yul\":974:980   */\n      dup2\n        /* \"#utility.yul\":968:981   */\n      mload\n        /* \"#utility.yul\":959:981   */\n      swap1\n      pop\n        /* \"#utility.yul\":990:1022   */\n      tag_33\n        /* \"#utility.yul\":1016:1021   */\n      dup2\n        /* \"#utility.yul\":990:1022   */\n      tag_18\n      jump\t// in\n    tag_33:\n        /* \"#utility.yul\":887:1028   */\n      swap3\n      swap2\n      pop\n      pop\n      jump\t// out\n        /* \"#utility.yul\":1034:1383   */\n    tag_12:\n        /* \"#utility.yul\":1103:1109   */\n      0x00\n        /* \"#utility.yul\":1152:1154   */\n      0x20\n        /* \"#utility.yul\":1140:1149   */\n      dup3\n        /* \"#utility.yul\":1131:1138   */\n      dup5\n        /* \"#utility.yul\":1127:1150   */\n      sub\n        /* \"#utility.yul\":1123:1155   */\n      slt\n        /* \"#utility.yul\":1120:1239   */\n      iszero\n      tag_35\n      jumpi\n        /* \"#utility.yul\":1158:1237   */\n      tag_36\n      tag_16\n      jump\t// in\n    tag_36:\n        /* \"#utility.yul\":1120:1239   */\n    tag_35:\n        /* \"#utility.yul\":1278:1279   */\n      0x00\n        /* \"#utility.yul\":1303:1366   */\n      tag_37\n        /* \"#utility.yul\":1358:1365   */\n      dup5\n        /* \"#utility.yul\":1349:1355   */\n      dup3\n        /* \"#utility.yul\":1338:1347   */\n      dup6\n        /* \"#utility.yul\":1334:1356   */\n      add\n        /* \"#utility.yul\":1303:1366   */\n      tag_19\n      jump\t// in\n    tag_37:\n        /* \"#utility.yul\":1293:1366   */\n      swap2\n      pop\n        /* \"#utility.yul\":1249:1376   */\n      pop\n        /* \"#utility.yul\":1034:1383   */\n      swap3\n      swap2\n      pop\n      pop\n      jump\t// out\n\n    auxdata: 0xa264697066735822122033f1482942487a7a174ed670fe3fa3736c3d4395a61392cd0fa32fa78bb44e2464736f6c634300081a0033\n}\n",
				"bytecode": {
					"linkReferences": {},
					"object": "6080604052348015600e575f80fd5b506101928061001c5f395ff3fe608060405234801561000f575f80fd5b5060043610610029575f3560e01c8063feaf968c1461002d575b5f80fd5b61003561004b565b60405161004291906100ea565b60405180910390f35b5f731d142a62e2e98474093545d4a3a0f7db9503b8bd73ffffffffffffffffffffffffffffffffffffffff1663feaf968c6040518163ffffffff1660e01b8152600401602060405180830381865afa1580156100a9573d5f803e3d5ffd5b505050506040513d601f19601f820116820180604052508101906100cd9190610131565b905090565b5f819050919050565b6100e4816100d2565b82525050565b5f6020820190506100fd5f8301846100db565b92915050565b5f80fd5b610110816100d2565b811461011a575f80fd5b50565b5f8151905061012b81610107565b92915050565b5f6020828403121561014657610145610103565b5b5f6101538482850161011d565b9150509291505056fea264697066735822122033f1482942487a7a174ed670fe3fa3736c3d4395a61392cd0fa32fa78bb44e2464736f6c634300081a0033",
					"opcodes": "PUSH1 0x80 PUSH1 0x40 MSTORE CALLVALUE DUP1 ISZERO PUSH1 0xE JUMPI PUSH0 DUP1 REVERT JUMPDEST POP PUSH2 0x192 DUP1 PUSH2 0x1C PUSH0 CODECOPY PUSH0 RETURN INVALID PUSH1 0x80 PUSH1 0x40 MSTORE CALLVALUE DUP1 ISZERO PUSH2 0xF JUMPI PUSH0 DUP1 REVERT JUMPDEST POP PUSH1 0x4 CALLDATASIZE LT PUSH2 0x29 JUMPI PUSH0 CALLDATALOAD PUSH1 0xE0 SHR DUP1 PUSH4 0xFEAF968C EQ PUSH2 0x2D JUMPI JUMPDEST PUSH0 DUP1 REVERT JUMPDEST PUSH2 0x35 PUSH2 0x4B JUMP JUMPDEST PUSH1 0x40 MLOAD PUSH2 0x42 SWAP2 SWAP1 PUSH2 0xEA JUMP JUMPDEST PUSH1 0x40 MLOAD DUP1 SWAP2 SUB SWAP1 RETURN JUMPDEST PUSH0 PUSH20 0x1D142A62E2E98474093545D4A3A0F7DB9503B8BD PUSH20 0xFFFFFFFFFFFFFFFFFFFFFFFFFFFFFFFFFFFFFFFF AND PUSH4 0xFEAF968C PUSH1 0x40 MLOAD DUP2 PUSH4 0xFFFFFFFF AND PUSH1 0xE0 SHL DUP2 MSTORE PUSH1 0x4 ADD PUSH1 0x20 PUSH1 0x40 MLOAD DUP1 DUP4 SUB DUP2 DUP7 GAS STATICCALL ISZERO DUP1 ISZERO PUSH2 0xA9 JUMPI RETURNDATASIZE PUSH0 DUP1 RETURNDATACOPY RETURNDATASIZE PUSH0 REVERT JUMPDEST POP POP POP POP PUSH1 0x40 MLOAD RETURNDATASIZE PUSH1 0x1F NOT PUSH1 0x1F DUP3 ADD AND DUP3 ADD DUP1 PUSH1 0x40 MSTORE POP DUP2 ADD SWAP1 PUSH2 0xCD SWAP2 SWAP1 PUSH2 0x131 JUMP JUMPDEST SWAP1 POP SWAP1 JUMP JUMPDEST PUSH0 DUP2 SWAP1 POP SWAP2 SWAP1 POP JUMP JUMPDEST PUSH2 0xE4 DUP2 PUSH2 0xD2 JUMP JUMPDEST DUP3 MSTORE POP POP JUMP JUMPDEST PUSH0 PUSH1 0x20 DUP3 ADD SWAP1 POP PUSH2 0xFD PUSH0 DUP4 ADD DUP5 PUSH2 0xDB JUMP JUMPDEST SWAP3 SWAP2 POP POP JUMP JUMPDEST PUSH0 DUP1 REVERT JUMPDEST PUSH2 0x110 DUP2 PUSH2 0xD2 JUMP JUMPDEST DUP2 EQ PUSH2 0x11A JUMPI PUSH0 DUP1 REVERT JUMPDEST POP JUMP JUMPDEST PUSH0 DUP2 MLOAD SWAP1 POP PUSH2 0x12B DUP2 PUSH2 0x107 JUMP JUMPDEST SWAP3 SWAP2 POP POP JUMP JUMPDEST PUSH0 PUSH1 0x20 DUP3 DUP5 SUB SLT ISZERO PUSH2 0x146 JUMPI PUSH2 0x145 PUSH2 0x103 JUMP JUMPDEST JUMPDEST PUSH0 PUSH2 0x153 DUP5 DUP3 DUP6 ADD PUSH2 0x11D JUMP JUMPDEST SWAP2 POP POP SWAP3 SWAP2 POP POP JUMP INVALID LOG2 PUSH5 0x6970667358 0x22 SLT KECCAK256 CALLER CALL BASEFEE 0x29 TIMESTAMP BASEFEE PUSH27 0x7A174ED670FE3FA3736C3D4395A61392CD0FA32FA78BB44E246473 PUSH16 0x6C634300081A00330000000000000000 "
				},
				"gasEstimates": {
					"creation": {
						"codeDepositCost": "80400",
						"executionCost": "127",
						"totalCost": "80527"
					},
					"external": {
						"latestRoundData()": "infinite"
					}
				},
				"methodIdentifiers": {
					"latestRoundData()": "feaf968c"
				}
			},
			"storageLayout": {
				"storage": [],
				"types": null
			},
			"userdoc": {
				"kind": "user",
				"methods": {},
				"version": 1
			}
		}
	}
}